:020000040009F1
:280000000108006999994204204EB1FD0400FFFFFFFF4006000000A0027020020A00280009000000000000001D
:FB002800411A0042726F6164636F6D20426C7565746F6F74682044657669636500980100035C0100017206000300000800019304002000000068040012000C006A3600038012000000B2000000A2000000420000005200000080000000900000006200000072000000C1000000D000000022000000320000007C04000100000209080068000F00030000006F210002001F05C9000000AA147F8C00FA000040970000000014000002081E0000000000690200CE055D0C000A64E6B000008898425A33435F09003C280100040004F70C0A6F0098160800C600F3025D0066033000C900E10268005C033600C300E2026A0053033C00C200E1026C004E034100C5C4
:FB01230000D60272004A034300C300CE02790042034800C500C00283003A034E00C800BF0282003B034E00C900BC028400370352000808070707070707060606060505050502C0440194FC0E00FFFF00005E02000030FC0E00FFFF0F006304000000FD0E00FFFF0F006602000088FC0E00FFFF0000000200002CFC0E00FFFF00004904000070FC0E00FFFF00000B09000074FC0E00FFFF00002E010000D8FF0E00FFFF000062190000D0FC0E00FFFF000020C90000C8FC0E00FFFF000038850000DCFC0E00FFFF00001CC80000CCFD0E00FFFF0000048000005CFC0E00FFFF00000200000020FC0E00FFFF000019210000E0FC0E000080000000000000C0FC0F
:FB021E000E00FFFF000022000000948F0800FFFFFFFF000F000F988F0800FFFF0000000F00009C8F080000FFFFFF0004040468000F00FFFF00000308000078000F00FFFFFFFF0504040430010F00FF0000000D0000008C000F0000F0FF0F0000800834010F000F000000080000001C010F000000FFFF000005062C010F00FF00000017000000B0010800FF00000005000000D07B0001040A08FC0E00FFFF00002E3600000CFC0E00FFFF00002CAE000010FC0E00FFFF00002AAC000014FC0E00FFFF0000A222000018FC0E00FFFF00001D2000001CFC0E00FFFF00000D15000020FC0E00FFFF0000858D000024FC0E00FFFF00008311000028FC0E00FFFF0083
:FB031900000001000098FF0E00FFFF00003E410000C3160012691419783604243060700F7180764A3108290B7E07CF090010000F6EF0B009F060D10900010403036B1428206B1A2400FF010808040F000DFC0BF809F407F005EC03E802040F000DFC0BF809F407F005EC03E8020301000182D600040602020A233C5A6E7D80008000800080008000800080008000800080008000800014FF19840AFF610000000000000000000000000014FF19820AFF610000000000000000000000000014FF19000AFF610000000000000000000000000014FF19050AFF610000000000000000000000000014FF190B0AFF610000000000000000000000000014FF190D0AB8
:FB041400FF610000000000000000000000000040FFFF68027B0000000040FFFF68027B0000000040FFFF68027B0000000040FFFF68027B0000000040FFFF69027B0000000040FFFF69027B0000000082D600FF0602020A233C5A6E7D80008000800080008000800080008000800080008000800014FF19840AFF200000000000000000000000000014FF19820AFF430000000000000000000000000014FF19000AFF660000000000000000000000000014FF19050AFF660000000000000000000000000014FF190B0AFF430000000000000000000000000014FF190D0AFF200000000000000000000000000041000000007B0000000041000000007B0000003F
:FB050F000041000000007B0000000041000000007B0000000041000000007B0000000041000000007B000000008612000413004008000040130001000180FF000112C15E0044041422A244041422A23B04B104B204B304B404B504B604B704B804B904BA04BB04BC04BD04BE04BF04C004C104C204C304C404C504C604C704C804C904CA04CB04CC04CD04CE04CF04D004D104D204D304D404D504D604D704D8280C000B0400002A09000B0400EC2A09000B0400342D0900081D00005018010081F0F6FC0E004032090030B4201CFFF7C8FF30BC7EF710FB08190001086501007CF0A1FE0A004E320900FFF7A7FF83F773F9000008250002B0DB010076F02E56
:FB060A00FD160010460900281CFEF72BFE281C5F3000210170391C321D89F7C7FA080F000384E0000030BD00B50000000000000817000488E0000085F0A2F90800D033090000F002F800BD0000081D0005C46200008DF0B3FB0E002E3A090001B4FFF769FF01BC72F74FFC000008150006586600008DF0E6F90600283A0900FFF796FF30BD0B0400CE3B0900081F0007484800008FF072FD100030430900A56498231D53201C00F002F870F787FA0B0400F83B090008150008C08400008BF0F4FE0600AC420900FFF7A6FF30BD08350009B47702006CF07DFD2600B242090002B421684907002905D061684907C90F301C93F7FDFB02BC002902D0F06993F728
:FB07050072FA93F774FA080F000A24B500000FE0C046000000000000080F000BC44F000010E0C0460000000000000867000C1CF0030055F05CF95800D842090070B5061C0C1C151C002B21D104A8008840281DD105A80088202819D15A2917D8081C15D005F0CAFC002811D1032D0FD02204121408210748002305F0C7FC002806D1221C291C301CAAF73BFF012000E0002070BD18650800080F000D988000005808042B0000000000000817000E680C040053F07AFB08006043090000F002F870BD00000819000F64D4000086F0FEFF0A0064440900281CFEF77FFE79F710F80813001008D6000086F031FF04006E44090079F7CEF8080F001180DA0000C027
:FB08000046C04600000000000008150012245200008FF025F906007244090000F001F8F0BD0B0400D445090008190013845C02006EF0CFFC0A00264609009B005859EF1891F72CFB0817001464F8000084F0E4FE08003046090000F002F8F0BD0000081700153CF5000085F0E4F808000847090000F002F830BD0000082F0016C4F6010075F05EF8200084470900054B30B4054CE57949190C06211630BC19548AF797FFC046903408008C03080008170017487C02006CF0ACFD0800A447090000F002F870BD0000082B0018D4BA000088F0A2FE1C001C4809000AB4201C311C00F009F80ABC012803D0042B01D177F752F977F753F9081F00192CF000008538
:FB08FB00F011FC10005248090001B485F72FFB01BC00F024F87AF7E7FB0825001AE4A203005AF0BDFA160062480900002803D000F007F8002802D10120A5F764FDA5F73AFD0817001BC06A02006DF0FAFE0800B848090000F002F830BD00000823001CC47202006DF098FB1400F849090008B4301C0122012300F004F808BC92F761FC00000817001D2C6A01007EF0C2F80800B44B0900FFF7DDFF00BD0000080F001E587B02006DF044F80000E44B0900087B001F0C7702006DF08CFA6C00284C0900F0B5061C0F1C93300078002803D00B795B08072B24D17DF704FF041C0C301422391D051CBFF79AFE7268002A03D0291C301CC6F729FE3368E377002346
:FB09F600A37709490868002804D00368236004600C6001E00C6024600121890403480022B8F7FCFDF0BDC046ECC40800FC4408000815002098AE020069F0FCFE0600944C090000F00AF870BD081700210C13010083F0C5FC08009A4C090000F035F87CF738FB08190022FCBE020068F0D1FE0A00A24C0900281C00F03BF897F72DF908230023B47102006DF0BEFD1400344D090002D0E86992F73EFA281C211C00F002F892F750FA081F00249C6E02006DF068FF1000704D09000FB4201C00F004F80FBC92F793F80000081300251CF0000085F0BCFE0400984D09007AF747F908170026245300008FF0E4FD0800F04E0900FFF75AFF30BD0000920600A300AA
:FB0AF1008000141908270027A06D020070F0EEFB1800807509000198311C3A1CFFF7C1FFFF2801D18FF71FFC8FF7B4FC0000080F002834C40100C046201C000000000000081700295845020072F0F0FE08003C730900FDF73BFF8DF745F90817002A6847020070F04BFC08000250090000F0AFFB8FF7BEFB0817002B7854020071F04CFF080014730900FFF737FA8EF7BFF80817002C0C57020071F006FE08001C730900FFF760FA8EF742FA0817002D4C58020071F06AFD080024730900FFF706FF8EF7A9FB0817002E5C46020072F072FE080044730900FDF7E6FE8DF797F90817002F34AE01007CF03EFB0800B474090002B0FFF757FF70BD081700300886
:FB0BEC006E000090F090FA08002C730900FFF7D3FB6FF7A6FD08170031B8AC02006CF016FC0800E8740900FEF790F893F71CFC08170032884B020070F03FFA08000A50090000F04FFC8FF7E9FD08170033C449020070F025FB08001250090000F06FFD8FF7DBFC08170034202E010082F0FBF808001A50090002F0D3F87DF722FF08230035BC65010081F020F81400007609000FB5201CFFF7D4FF0FBD37490B687EF7D7FF0000082B00363CBB02006BF0D8FC1C00F07409000FB4201C311CFEF7E4F8002802D00FBC94F726FB0FBC94F726FB000008170037A46301007EF029FE0800FA4F090000F0EAFE81F7DEF9081D003808F0000085F0E8FF0E00DC4FC9
:FB0CE70009000FB4201C00F0A8FD0FBC7AF718F8081F00396CE8000086F0BDFB1000EA4F09000FB4381C00F0A1FD0FBC3C1C79F743FC0817003AB47302006FF0BEFF080034730900FFF701FD90F7CDF80815003B2C6B01007EF079FA06002250090002F0F8F830BD0817003CD0ED000086F02AF908002850090002F011F979F714FF082B003D1871010080F018F91C004C7309000FB4FFF7D2FF002803D00FBC00207FF72AFF0FBC041C436B7FF7DAFE087F013EA444000093F0BEF970012478090000B528490B6826490B6024490B6822490B601E490B682D490B60434B43490B6034490B680120C00303430B6040490B78002B04D02F490B68400303430B43
:FB0DE200602D4A13685B085B0013603A4B3B4A1360B1F772FDB2F79BF9B2F7EAFCB2F790FE0D21364802F02DFA364A9068002803D099F79BFEB1F737FC2448244A11684160244A60E0C046C0B00800FFF2011A909F0900848FB002D08B0E00A0800E0090A00900148B0E0094A009006CE5050098A009008C1508000B7709003B7709001578090091770900FD7709005C000F0094830E00FF00FFFF608B0E0040230001E08A0E00E02C0800A4860E0088B2080005000080850000801C800E0014800E00848F080004830E00108B0E00C8FC0E00C42C0800CC2C0800D02C0800C82C0800D42C0800D4FF0E00BC8B0E00AD020000CC8B0E001CCD080010325476FB
:FB0EDD00D48B0E00009D0800ECCC080011684161054A11688160054A13680360044A1368044A136000BDC046D02C0800C82C0800D42C0800D4FF0E000861003F0044000093F008F952001476090010B5A448002383700423437001230370A14BA2480360A24BA24C2360A24C2368A24C2360A24C2368A24C23602C22A249A248BDF79DF9A148A14C2060A149C160A1494162A1490161A14B8361A14BC36110BD080F0040D0B80400A5F809E00000000000000817004120BA04004CF078FA0800147F0900FFF7D4FF30BD0000081700423069040051F0FCFB08002C810900FFF7C4FFAEF71CFC08190043545D040052F0EEF90A0034810900B4F794FEFFF7B2CD
:FB0FD800FF30BD08190044E0A504004DF0ADFD0A003E81090000F003F803B0F0BD000008170045E88204004FF07CFF0800E481090000F002F830BD000008170046B0B104004DF096F80800E082090000F002F830BD0000082B0047DCC004004CF062F91C00A4830900FF233D3343430448C0189F300078002800D101207047C046349D0800081B004894AC04004DF09EFB0C00D4830900201C00F003F8B2F75EFC0000081B0049ACAC04004DF0DEFB0C006C840900201C00F003F8B2F71EFC00000823004A3CC104004CF040F91400C083090029187F231B02FF339D4200D35D1EFF23B3F7B6FE0817004B981B030066F0E0FC08005C850900FFF7D2FF30BD4E
:FB10D3000000082B004C1C7B040050F03AFD1C009485090004910FB4301CFFF7E3FF012802D10FBC05B0F0BD0FBC062DAFF7B8FA081F004D18AC04004DF006FD10002886090003D1FFF7C1FFB2F7F6FAB2F7F5FA0000080F004E1C730400C046C0460000000000000817004F807A040050F0A0FE0800C48709000420AFF766FD10BD081700509882040050F098FA0800CC870900FFF7CAFF30BD0000081700516CA804004EF066F808003C890900FFF74AFFF0BD00000815005294A304004EF072FC06007C8C0900FFF7E8FF10BD080F00530CA3040000F01DF800000000000008230054489400008FF01BFC1400828C0900012B02D10020287001E070F7E825
:FB11CE00FB626870F724FC081D0055A4CC04004BF0F7FF0E00968C09002878B2F785FF201C00F001F830BD080F0056C4A904005E4A2068000000000000080F0057A4630400FE23F533000000000000081F0058D472000091F0F0FC1000B88C0900301C049900F004F8009988426EF708FB08170059989704004FF0BCFA0800148D0900FFF79FFEF0BD00000817005AE49D04004FF07CF90800E090090000F002F8F0BD00000815005BD09901007FF0D0FC060074930900FFF7B2FF00BD0815005C68E901007AF007FD06007A930900FFF7C2FF00BD0821005DA4E901007AF0ECFC1200809309000FB4301CFFF7C6FF0FBC0A22311C85F70BFB0825005EE896BB
:FB12C90004004FF053FE160092930900281C00F008F8237E002B01D0B0F7A6F9B0F7B6F900000817005F70EF00008AF070FA080054940900FFF7C2FF75F790FD081D0060645F040053F07AFA0E005C940900607D01386075FFF7C7FFACF780FD0817006114FF000089F0A9FA08006A940900FFF7E2FF76F756FD08290062D07E000091F0CFFA1A007294090009D5281C112806D0082804D0002088F71EFD6CF732FF30BD000008170063EC6B040052F090FC080010950900FFF7BCFF10BD0000087700647461030063F0D0F968001895090010B500248CF7D0FD012803D309D0022820D102E09FF71AFA01E0A4F782FD041C18E00D490B78002B14D00C4A10A4
:FB13C4006803680B4A13600B4A1378002B0BD08B784978002B03D04B00FF21013101E04B00802199400160201C10BD481B0800E40A0800AC5808003A010800080F00657C640200131C036000000000000008570066B462020073F064F948008095090000B50D490868002804D003280FD0052811D104E009480378002B0CD007E0084B1868012200219AF7ECF89CF7BEFC05490B680120186000BDB0C80800D1CA0800F40A0800E40A0800081B0067C0B903005DF002FE0C00C8950900211C00F00BF8061CA2F7FAF9081F0068B49D03005FF00EFC1000D495090002B400F015F802BC0C68E306A0F7EAFB081900697847000095F0DEF80A0038990900381CD7
:FB14BF00F9F711FA6AF71EFF0819006AAC47000095F0C9F80A0042990900281CF9F72AFA6AF737FF081B006B3CDB00008BF006FF0C004C99090081B000F003F874F758F900000827006C405B010083F07AFD180038960900002E02D00020E05504E0E35D002B01D0013BE3557CF791FA081B006D50A704004DF0FEFF0C0050870900381CFFF7E7F902B0B1F7FCFF0817006E58A704004EF000F808005C870900FFF705FAB2F709F80821006FB03C010085F0C8FE1200449A090001B4301C00F010F801BC75F739FB7AF72FF9081D00705CB503005EF07BFA0E00569A090001B400F00FF820BC6B01A1F77EFD08170071A8A003005FF0DCFC0800649A0900006E
:FB15BA00F015F8A0F73AFB082B0072CCB203005EF0F8FB1C00C09A09001378002B07D103B400F008F8012803BC01D1A1F7FEFBA1F708FC0000081B007374B403005EF03EFB0C00F49A090000232B7500F02CF8A1F7BCFC081D00741C69020073F0F0F80E00009B090003D100F027F8A2F76FFE8CF70AFF0827007530BB03005DF0EDFF18000E9B0900012D03D1002E01D100F05BF8A068A2F78AFD0021A2F708F8082700760862020073F08DFC1800269B0900201C08B4019900F01BF808BC9C4201D08CF769FB8CF773FB082500779CBC03005DF04FFF16003E9B09001B0705D400F049F8002801D1A2F7A9F8A2F7D4F800000A05002DCB080001081B00784A
:4316B50030AB03005FF05CF80C00EC9B090005B400F003F805BCA0F79EFF0817007998C803005DF0C0F908001C9C090000F002F8A2F762FE5B0900FD0344042804080803FE0000A6
:FB28E000F0B54C4C4C4B4D4803604D4B4D4803604D4B4E48036002F0FFFAFF232D334C48038000F0A9FC00F05DFA00F00DFC00234848037000F068FB00F07AFB05F0F2F8454A151CE435454B2B60454E336802263343434E33604348036880218B4303600023414E337041490B1C2333404E3360404B414E3360414B414E33600B1C1233404E3360404B414E33604148414B424E3360031C0E33414E33601223404E33700B1C11333F4E33603F4B404E3360404B404E3360404E3160404B414E3360414E3368414E3360414B414E3360414B6B67414B061C071DC8C40E36404FC8C4991C0E30061CC2C43E4BD36200233D4E336006F02EF93C4B6B65E420A0A7
:FB29DB00F743FC00233A490B703A48E8623A490B683A490B6002F0EEF8002339490B70F0BC08BC184700B537483749086037480B49C86400F09FF900BD149E0900A5320900BCC80800B9320900F0C40800A13209000CC508008002080069A10900A0190800F93309006C010F0040150800FD0708001E450000809E090020C90000849E09001CC80000889E09008C9E090038850000909E09005E04000044050000881308008C13080090130800781308000EC90000801308000AC800007C130800841308002685000074130800D8FF0E00949E090062160000989E0900AD3909004205000062190000398609007C9E09006D47090008A109002992090028FC46
:FB2AD6000E00E803080009A10900E1280900900008009945090070B500200F49104B4B6114E06B099C00EB06DB0E01259D400B592B430B5143004C69C50052195268012632432725AD03AA1A1A530130054AC3009D58922DE5D370BDC0464C1B0800F4A00900049D0900002070470020704700B5002812D0AC231A581204D20E0F290ED1012A03D0042A01D0062A02D179F717F803E0002A01D0032A01D1012000E0002008BC184700000020704710B5037814490B700620ABF745FE041E10D00E230370042343700023437101238370F723C370FC230371ABF75FFE201CABF736FE012010BC08BC18478105890D030AFC201840FC2803D1F72901D103480034
:FB2BD100E000207047C04608A10900812B090004280AD106480378002B06D0054803785B065B0E0370012000E000207047C04608A1090039C3080030B582781202437813439A05920D1B0AFC252B400C2B0CD1032A03D01A2A00D080E003E006F045FD01207CE002F078FC78E00124FC2B63D1342A49D0B52A20D0B62A21D0C22A22D0C32A23D0C62A66D32CD0C82A2DD32FD0CB2A30D9D02A1FD0E62A0BD0F52A18D0FA2A1CD0FF2302339A4227D003339A4251D126E004F086FE4EE002F0BFFACFE702F0F6FACCE702F032FBC9E702F072FBC6E702F0DBFBC3E702F09AFBC0E702F000FCBDE706F037FDBAE706F071FDB7E706F0AEFDB4E798F7B3FDB1E769
:FB2CCC0004F064FCAEE702F02AFCABE718490869C00122D5174A106920431061101C117D8B0706D5FD231940017500207FF757F813E0002103207EF7B4FF0EE0202B0FD0042B0DD1132A02D0192A06D102E002F025FC03E002F03AFC00E00024201C00E0002030BC08BC1847034804490860704754200800CC2F0800092C090018C908000020704701480249886070474D2D0900201A080030B5051C7CF7AEF9041C281C8CF73DFA8749201C2830062206F07CFF00280BD1844C2560012363717F21C943A01D072206F078FF00232371002030BD10B5041C0120A040C1437C4803680B4003608BF771F978480368A34203D1FF2303600023437110BD754876DD
:FB2DC70049C8607047F0B583B0041C012906D164300023C372251C9435AB73EB736F4803689B079B0F032B02D073F77CFAC8E00023A381E07B484000D1B6E072F717FD002803D1674803691B0101D5012100E00021271C64373E1CFB6880208343C8010343F3600C365F4A1078431006D0C3071B0E31688020814319433160594803691B0102D4381C96F7F4F9BB69002B02D03B681B063BD4338868460380E37B012B0DD0251C94356B7B002B10D02B88042B0DD3EB7C022B0AD3AB7D002B07D1A72303201855009B78208343002106E00121E974009B78208343082003431F20800283438802034300931B041B0C3F4A1360012030723B4A13691B0152D493
:FB2EC20000984006010F00231A1C012096F7D4FB45E0E07B002802D1A72301221A55012804D1E37C042B01D074F7C7FCF37A002B06D00023F372336801204002434033600121B172251C9435A97326480369DB0002D5201C89F7D7FD338824490B60B0884860381C72F7F7FC30684006030F2048C05C3072431EA381E37B002B0FD10121387F81401C4A1068084008D1E37C042B05D019480378AB7519480378EB75114803691B010FD5201C96F72DFF0BE0271C64373B727B7272F785FC636C002B02D05A231B5BA38103B0F0BC08BC184709C108009C9E090000040800CD2D090000020800188B0E0054200800DCC80800CC8A0E009EBB0500B4010800F51C
:FB2FBD00010800F601080030B50D1C041C77F7CBFE6B075B0F012B05D1E37B002B02D1A07B9EF70AFE30BC08BC184700B52C2204490548C1F7C8FC034804494161044B186000BD0CBD0500AC9E0900C52F0900E402080010B53F4C3F4B1C602C223F49201CC1F7B1FC3E48606210BDF0B5041C051C876A28353B4B42331878002866D1201C012174F725FA061E4BDD022804DB201C79F79FFA002859D1618C8B1F9E4223DA304A13689C420BD0391CAB310878013800D30870731C5910201C79F72CF830E0731C5810E37B002B05D07B6C002B02D06B7F002B25D02F89B84222D36A89002A06D1A389002B03D1201C73F733FE18E0BA4200DA3A1C904201D915
:FB30B8000C2310E04B23A27C1B5D9A420CD102280AD36B7F002B05D014480378994201D9282300E03823A374211C4D31087800280FD00238087000060BD1E37B012B02D0237D0C2B05D0321C201C0523022179F788F9F0BC08BC1847D89E09000003080074BD0500293009006C210800F402080000B52C2216491748C1F728FC1548164B18601649016100BD30B50D1C041C7AF770F8022D09D16B23185D002805D0201C89F759FB201C89F791FB30BC08BC184700B5011C6831CB78002B07D04B7A002B04D18B78002B01D089F768FB00BDC0462CBE0500049F0900300308004131090000B57EF7A6FA00BD10B5041C031C9A3313201870E3691B06DB0E0A59
:8D31B3002B03D10A21201C7DF780FA201C83F755FA201C83F780FB201C83F76CFA20687BF7C8FE10BD30B5011C2831041C7BF7D7FC051C1ED0F82043595B0703D5281C02F06CFC06E0EB699B021AD40E490B681B0403D5281CFFF7CAFF12E0E369834310200343E36199230B201855201C83F75DF906E05023044988881853201C94F7D2FB30BDC0468C070800D42008001B
:FB32580000B52C220B490C48C1F790FB0A4B0B48036000BD0A49CB6ADB0007D5094AD3885B00418C8B4201DC012100E000215A3001707047B0CB0500309F0900F4030800542008009420080000207047087B4008072801D101488860002070471D4B090030B5041C002964D0012953D140051BD421E0344D291C3448B9F7B5FF2988281C262902D104F015FF0EE0042902D17EF700FA09E00F2902D105F014FD04E089002A4A8958C8F7DBFA2748B9F7B4FF0028DFD0274B1C4020020AD57CF7DDFE0121C905244800230122B9F775FF224B1C4020042ED521490868037921490B7000230371B4F71CFF7BF7A9FE002803D11D48437D002B09D01C487CF7DB2B
:7D335300FE83F724F81321162006F056F801E07CF792FE174B1C400EE002290CD1C00308D510490878012804D10D490B681871B4F7EDFE7DF780FF201C30BC08BC18470D480D4908607047C046F4440800284508009CBE0500FFFBFFFFFC440800FFFF7FFFC04F080009A10900E44E08001C450800FF7FFFFFB9320900F0C408004D
:FB33D80000B5431E04490B6004490B78032B01D1C1F78EFF00BDC046E08A0E0038080800F0B587B0061C0491081C00210391A34C2064211C4431009100238B70A0488568002D00D16EE2AB7D002B09D0012203920023AB756361237810208343237006E06069002803D0012E01D972F7A7FE22691D27FF03002A50D0607A012803D19389002B4AD047E08F4B1B5C002B43D1BB68DB0742D4137D092B3DD204281AD1012E18D196756261237810200343237023683B6085490B687233187802282DD0002382490B608249086882490B6803600B68036022E002280AD1012E08D196756261237810200343237023683B6015E0032803D179498B78022B0FD00688
:FB34D3002801D0032805D1012E03D1BB689B0600D5C0E1122803D0102801D072F7D1FD6A4B985D029000287DD00123DB07334301936B4B6C490868986301236B490B606B490B689B0C9B040B600B6869490868034366490B6001230099CB7066490B6866490B6066490B6866490B60287C1A281DD164490B6864490B6064490B6864490B6064490B6864490B6064490B6864490B6064490B6864490B6064490B6850490B60634908686349086063492DE063490B6855490B6062490B6855490B6061490B6855490B6060490B6855490B605F490B6855490B6019280ED1FF2017302B562A3309DD5B490B683E490B605A49086851490860594908E059490B68A5
:FB35CE0039490B60584908684C4908605749086857490860A87B2318042801D3187800E0205C6F2290431870C2E0A87B225C0F218A433107090F0A43225423180428049802D38107101C01E081071878490E6022904308431870234B464908689863009AD378002B00D1A1E022490B689B0C9B040B600B684049086803431D490B600023D3703D490B681D490B603C490B681D490B603B490B681D490B603A490B6821490B6039490B681B490B6038490B681B490B6037490B681D490B6036490B6809490B6035496BE0642C08006C210800ECBB0500DC02080060000F00AC2C080044020800882B08002CFC0E0060020800E08A0E00B88A0E005C0208006CE6
:FB36C900130800D8FC0E0070130800E0FC0E00809E0900CCFC0E00889E0900DCFC0E00849E0900D0FC0E00909E0900C8FC0E008C9E0900D4FF0E002C9E0900309E090030FC0E00349E0900781308007C130800801308007413080084130800149E0900189E09001C9E0900209E0900249E0900289E0900D8FF0E00B82C080048020800BC2C0800C02C0800C42C0800C82C0800CC2C0800D02C0800D42C0800D82C0800DC2C080008689349086093490B6893490B60002101912868826A281C0021C8F793F8002810D026231A5C002A0CD08368002B09D00298002804D0802301981843019001E0012200E00022237880208343D0010343237020200499084075
:FB37C40001D00120C0037F4908600499090704D47D490B68802083430B600499880801214140A27880208243C8010243A2702868826A281C0321C8F759F874490B78012B01D078F7F9FF05A9714A13687020034018099EF746F82369002B14D0637A032B11D18AF7A7FB002806D16A480368032B02D00368062B06D12B7C122B03D101230098837058E005988007800F06D003280ED1069B60490888834209D30398012800D1656172F714FC012300994B7043E00820B860A87B786223683B603B1C1833221D03929207920F02D1039909680FE00399891A0391D2000968D140049120218A1A03994968914001B40598014301BC1960BA69331C103B042B0D28
:FB38BF00D2474B1340FF22013282401343BB61102E07D1444908684449086002E040481040B8610198002800D07861E5602672002300990B704B70281C8EF75BFC012007B0F0BC08BC1847394B3949087A185C39490B68002814D00120800303430B60364A136836480340364A117849020B43354A1360354A1368302083431020184308E0324803400B602C490B682E490B602E4908682F490860704710B5254C234B607A185C002802D072F705FF15E06069002801D072F70FFC27490868637A012B01D1254A00E0254A13680360116801600023234A136072F71AFE002322490B60E3602361637244340120207010BD002803D1034803680348036000201B
:6E39BA00704730FC0E00949E0900D8FF0E00648B0E00A4860E00D4C1080024860E001C840E00E4B60800FFF0FFFF9406080064FC0E00ECBB0500642C0800808B0E00B02C0800FFC1FFFF9013080088FC0E00B42C0800FFBFFFFFCCFD0E00AC2C0800400208004402080060000F0018800E0073
:FB3A3C0070B582B0061C65480168890602D5022074F7C5FB624C2568A3682360002D26D0002E18D1A0F79AF9002814D0C30703D52A68916900290BD1430703D52A68D169002905D1830706D52A68116A002902D0281CC7F712FFA0F79EF9011C2A685269002A04D0002802D0281CC7F703FFA0680026A84218D0002D21D02A681269002A03D0281C0521C7F7F5FEAE8123699D4200D126612B7D092B11D3281C75F78EFD281C75F713F90AE0002808D06369984205D166613B4800220121B9F7C3FE3A48C16E002904D0A368002B01D1C7F7D5FE72F75CFBA06800284BD08681037D092B20D26369984205D166612E4800220121B9F7A8FEA068A84206D10173
:FB3B3700684968002902D00523037508E0017D032901D0042905D101684968002901D0C7F7AEFEA0680223037501680A69002A02D00221C7F7A1FEA068807B1D4A136870210B401909884216D169469DF790FE72F706FC002801D0174800E01748028800998907890F04D0032905D1019B934202D33F2301201855A0688EF786F901208EF796F9A66066603C3426716671012002B070BC08BC18470948044988617047C046C4C408006C2108000C2D0800201A080024860E0066020800640208003D3A0900A248A3498865704700B5A24A9007800F01D1116808E0121AC0001368C3402021081A516881401943C90F9B4801709B4A1068002817D09A4A02603C
:FB3C32009A4A82609A4AC2600123994A13700023994A1360994A1360994A1360012902D100F007F802E04068C7F72BFE08BC1847000000B500F003F808BC1847000010B564238F48037000238F4803608F4803608F4C236000F04FF8804A9007800F01D1116808E0121AC0001368C3402021081A51688140194301204007014015D084490B68001403430B6083490B68834803400B6004390B680120800303430B607F4B80490B6003037F490B606B4A9007800F01D1116808E0121AC0001368C3402021081A516881401943C90011D5774C2368002B02D0201CB9F7ABFB7449201C00231A1CB9F786FB72480168201CB9F78CFB90F708FA10BD10B56F4C237B
:FB3D2D0068012423436D4C236001239B036C4C2360534A9007800F01D1116808E0121AC0001368C3402021081A516881401943090105D561480368022003435F480360604800218160F421C16020210161E8218161E9214161102141624021C161016205239B04036010BDF0B585B0061C0C1C554D021C002100910190031C02AF19C70F1C01235B02514C23604E4C2068000C000468602960049C242C02D0252C1FD102E008240A230AE070321278022A02D10824474A01E00124464A1178012322011B031A432A600B071B0D18436860F37B002B00D139E10122D20302436A6034E1049B5B003C481C5A3C498C4211D180239A5D3B48135C1B013A48181880
:FB3E28008388002B07D0364C1034837A012B06D1334C203403E0002C01D12C6017E1301C8EF738FB002800D0402430480368002B07D0602C01D1E024B0E0702C0BD1D024ACE00498042801D0022804D12B680120000403432B60302C51D149E0013C0900A0190800C005080030C8080044060800653C0900953D090089400900B805080034C8080038C808003CC80800D005080040C8080048C808004CC808009C800E0010800E00FFBFFFFFFF030000BC820E0010000C0068500800673D0200D405080070010F005C000F0074820E001CA109000C800E009806080090060800D8050800100100009005080024500800D4C408007023985D002802D0A74C70C6
:FB3F2300344EE0502C0BD1336FDB052B6804D50120400403432B6043E0A1480340FAE79F4B30339C420DD101992031C87A002801D1071C31E00128FBD00228F9D003282BD1F6E7964B60339C4213D1039880304278002A01D1171C02E0022A00D10127837E012B00D10227437E012B00D103273B06D0E78A4B40339C4212D1029B28335879012801D0002800D1071C02990B8D58107F2801DC43062B603B062868184328602A6822437D4B70339C4203D023097D48C15C0091302C0BD17023985D002807D1301C2830037D807A19180906090E0091009803031A432A60F37B002B04D06B680120C00303436B60F37C032B06D1708CC306180F0302686818437D
:FB401E006860402C28D169480378002B08D0301C8FF7BFFD03071A0A2B6813432B601BE00120C00410432860B07B9DF747FC400860490860604A11689DF7DBFB5F4908605F490B68984204D2301C8FF782FD002802D00123564803702B68594803606B68436005B0F0BC08BC1847F0B582B00F1C051C0022009201908EF711FA514E002844D034684A48017800291AD1A87B9DF715FC4008474A1060474A11689DF7A9FB464A1060464A1368984204D2281C8FF750FD00281BD001233D480370424B1C4015E06B6E1B0612D4012910D1281C8FF740FD00280BD1A87B9DF7F0FB4108354A11600023324A13700123DB041C432F480378002B03D001988EF77AEF
:FB411900FE0090324B1C40009803071B0A1C433460042F01D0022F05D13368012109040B43012107E02B480378002B06D0336829490B40002133602648017002B0F0BC08BC18472549C37B002B04D1FF220632805C012806D108680002000A0122920602430A600B681848036070471C480378002B18D01448C16BCB0714D581691022114381610521C26BD20708D503680822134303600368934303600139F3D18169102291438161704710010000FFFFFDFF24060800B805080038C8080034C808003CC80800CC05080070820E00FFFFF7FFFFFF0FFF45C80800FFFFFEFF1CA1090030C8080030B5041CC37C032B27D1037D0C2B24D11830437B002B20D145
:9842140021490B699C4202D18B68002B13D0418900680B1858010509A07B9DF754FB854201D3281A03E0431B01200007C01A831F1648834205D3201C75F7D4F9201C74F762FE237D022B03D0032B01D0042B07D10F480379002B16D0201C72F7ABFC12E00C480369002B02D0201C71F740FF06494123585C012804D0002804D10B689C4201D174F7CEF930BD6C210800FBFFFF07A42C0800642C08007F
:20434000A823195C002903D0011C64318B8ECB86011CC36F6431002B01D08B8E0B877047C3
:FB43680070B5041C00253848436912219B0708D5364A1068364A106050304079122800D8011C43209EF75CFF324BA360324B2361201C0830ACF7FDFD2168086063681D60ACF766FE201C1030ACF7F3FD216808600420ACF775FE6061062801DAACF758FE201C0830ACF7E5FD216808606368002018600420ACF764FEE060201C1030ACF7D8FD216808606368002018600420ACF757FE6061E368C61A301CACF7A7FE042817DD01350C2D14D0301C042E08DDACF79DFE8100081A2169081802382061CFE7ACF794FE8100081AA168081A0230A060C6E7A16820690B1AE3614018C30F18184310236270BDC046181B0800D4CC080024A10900FF03000001FCFF43
:01446300FF59
:FB447800F0B5444D2B68987B9DF72BFA46082B68996C301C9DF7C0F9041C2868011C94314A88002A10D094420ED9037D0B2B0BD00D2B09D072F78FFA2B686433197F012000037CF761FF64E00B7D002B06D0CB88F31A1B041B0C9C4200D81C1CC36F6430002B06D00B89F31A1B041B0C9C4200D81C1C8A88B31A1A04120C944200D8141C0B881F1FBA4204D3CB7C022B01D30023CB74214E33889C4204D80020BA422ED303202CE073889C4201D8042228E0B3889C420BD9007F76F7B1FD002814D0037C112B11D115494B889C4203D829689431052215E08B889C420DD82968943106224A745E2383740CE0F3889C4203D829689431062204E0296894310764
:9D4573002200E0021C4A740B7E012B04D1531F012B01D804234B74F0BDB421080034020800EC02080010B5A5F7C3FA0B494B699B070FD50A48036801200343084803600A249DF740FC013CFBD1044803685B085B00036010BC08BC1847181B0800F0FC0E0010B5094C2C220949201CC0F7D1F90849E160084B1C6010BDC27B4A4002D0838C05490B607047C04628A1090034CC0500ED45090010040800CC8A0E004D
:D0463800F0B581B0041C00210091C56D8726F600002D04D1301C9CF796FF051E03D0301C9CF791FF0090264F3B68002B08D1301C08309CF788FF3860311C0831C0F7A8FC20480368002B0DD1301C08309CF77BFF1C4A1060311C0831C0F79AFC19480368002B07D03B68002B04D0002D02D00098002817D1E02300201851E565E4210B59DB0208D46358104803430B515022206807217FF7C6F90D480368002B0DD19CF75EFF0AE0E5656060E4221359064883431351206807217FF7D5F9002001B0F0BD444408009C44080000001000600308006A
:7447100030B5E4221358012109058B431350051C7BF71AF90024002800D0EC65E86D002802D09CF74BFFEC656868002802D09CF745FF6C60074D2868002802D09CF73EFF2C60054D2868002802D09CF737FF2C6030BDC046444408009C44080000231360012805D10123DB040B6007239B03136070470000B6
:7047AC00B0B503685B011948C21880270F404906490E9068002827D00568281C041C002F06D0437B8B4201D0002300E0012306E0037B5B088B4201D0002300E00123002B0FD0A84205D1137C002B02D1D37F022B0AD0111C08319DF7ACFC201C9CF79AFE02E00068A842D9D1B0BDC0467C290800E7
:1A48380010B5002907D0041C72F788F8201C6FF7F3FF012000E0081C10BD12
:4048780000B50D48B8F7F7FC00BD30B5051C00240A49A300C818C378AB4204D1A300C8180421C0F795FB0134082CF1D330BD00B50068FFF7EAFF00BDB85208005047080027
:FB48C00030B5104D0D24281C0022111C92F710F9281C92F703F92035013CF4D130236343094818182C23195C022904D1406A002801D09CF76BFE0134022CEFD392F7B8F830BDC0467C29080080590800F0B582B0051C0E1C041CB0346946207B9CF7C3FF2C482D4A1178431AF6000198991940182A4B984201D3032005E00121284B984200D30221081C009943185808031D5808860176092188301C9CF75AFF6788391C79F7D6F9381A4308AB80831958014009A0601422291C1B4805F09CF902B0F0BD10B5041C184908680007000F01280BD80B683F2000020340190A144A906EFFF7B5FF134A9378A37410BC08BC184710B5041CB4F7A7FF0F498B780084
:3D49BB002B07D1A37C0B498878834202D0201CB5F777FD10BC08BC18470E020000389E0900A90300007102000000980E00A88B0E0038B0080074150800AC2108001C
:FB4A0C00F0B584B0061C181C01AB07C300252C1C05F052F900902F1C0199002918D0F37F022B15D1337C351C002B01D00C3500E008352A68101E00D01068002A07D01168914201D12C6001E00B6813600C6014E0357412E00A6801928A4201D1F76001E013680B6001990F60002C04D0236813602260141C01E0141C1260F1680029E9D115E01A680193111C9A4201D1B76004E0136801B40298036001BC0F60002C04D0236813602260141C01E0141C1260B368002BE6D1002D0BD02A68002A05D0136803602B681860286007E02860006004E0F37F022B01D10323F377009805F0F4F812E02068051CA04201D1002401E0036823602F600399002904D0023D
:AD4B07009900229EF721FD01E09CF716FD002CEAD104B0F0BD00B592F725FF08BC1847000070B5C369DB021AD5061C041C9034E278002A16D1002914D181F743FE051CB66C002E0BD0A0880C214843124941431248C0F750FB011C301CB8F76BFCE570012000E0002070BC08BC184700B50B48072105F0B4F80A48B8F770FC0A4A1368002B00D00123002B01D076F77EF88B230648036000BD71020000D43000002C2D080020C50800EC2F0800EC8A0E00AC
:6C4BBC0000B50121C90505480022B8F75BFE08BC184700000248034948607047FC440800BD4B09009C45080000F002F892F7CFFF10B5041C8168002917D00868002814D0037B5B08132B10D1E37F022B0DD10A688A4202D10023A36001E013680B60002313609CF78FFC0323E37710BD10
:884CAC0070B5041C0E1CEC300068002807D5E069C00104D5211C3C31201C96F79FFCE06940021AD5656C07232B70FF236B70AE70211C2831E81C0622BFF74EFE00236364E069012189058843E061EC210859400040080851281C95F7EBFE70BDC169012292051143C161EC2319585A07114319507047C169032252051143C161EC2319585A0711431950704765
:284D480010B50C1C0368002B0AD191F755FF002806D00121207F8140024803688B43036010BDC046742908002B
:184D800010B5041C04F09EFFE369012189048B43E36104F09FFF10BD39
:FB4D9C0000B5FFF7F1F908BC18470000F0B5464A464C21685368994203D000231370537051604348434DAB78022B0DD1CB7B012B0AD180235B5C5B013F4D5B19DB699B059B0F01D05B252AE065683C4E33682B4021D03B4F3B683B4F3E6833432B4003D1A5235B5C002B09D04B6E1B0606D51378082B03D201331370857810E0304F3B68304F3E6833432B4005D05378013353705378042B02D300231370537045780A1CA4325378002B03D0C35CAB4200D91D1C5379002B02D183799D4201D1042209E083789D4201D1132204E0012203799D4200D103220A741C4A13681B0700D5C57890235858013015D0887B9CF728FD40082368903319689CF7C4FC0006
:594E97002805DB236890330021C943196004E010490878854200D2051C291C206872F71BFF0C4803782B200355F0BDC04654A10900B42108002C020800882B08007C290800B4010800B8C40800742908008C070800F4010800FC010800DE
:E44EF80000231C490B701C490B70FF2341331B490B601B481B4908601B481C4908601C481C4908601C4B1D490B601D4B1D490B601D4B1E490B601E4B1E494B601E4B1F490B601F4B1F490B601F4B20490B6000231F490B700323DB021E490B800123DB021D490B805A231D490B6000231C490B707047C0466C9E09006D9E0900749E09006B59090064C808007757090068C808009750090054C808001357090070C80800C564090078C80800649D0900B0060800BD74090000020800E75A090060C80800909D0900AC0608005F6109007CC808005FA109004C9E09004E9E09005C9F09000AA109005F
:FB50300030B5041C7DF709FD011C021CE0690004C00F1073032353730C32664B186800090225800704D5F42003599B0700D5957000234B60201C92F7A4F930BD30B5041C0D1C7DF7EAFC5C494B681A7BD207D20F0273052343738573584A4260011C201C92F78FF930BD10B5041C0321FFF7E6FF201C00F028FD10BC08BC184770B5041C7DF7CBFC011CE2691204D20F027304234373F8231D59837B0126B34335402B438373F8263559AD07ED0F0226B3436D002B4383730C30002A0CD1414A537815785B199578EB18D578EB181579EB185279D31800E00023C3703A484860201C92F750F970BDF0B5041C374D00232B70C0690004314A51683DD5344842EA
:FB512B00780378D3188278D218C3789B180279D218407983181806000ECB7B834220D020686FF74AFB071C04F0B7FD061C381C70F7D2FF012120688140264803688B430360301C04F0B1FD20686FF706FB2878224A1378984218D20130287090F789F913E08B7BD807C00F9B07DB0F590001436970201CFFF785FF07E0897B8B07DA0FC907C90F201C8FF74CFCF0BD00B5406800280ED0F82319580A04520ED30708D50F4B13407F22520291435A021143F82211508FF782FB00BDC046641B0800F44408009B5A0900E8500800635B09005CA1090064000800B4C40800399E0900FEFF000010B5041CB34A1068C00702D4112323702FE00123B04A13700879A5
:FB5226000002C9780843191C79F7D2FC002810D0F82319580A04520ED30716D4012313437F22520291435A021143F8221150490701D51223DEE7A04B19684906490FF42212589207920F914201D00C23D2E7283401212170FFF7D9FE10BD70B5051C0C1C0123964A1370031C283301201870924A10684006400F02281FD101F07DFC00281BD020790002E1780843012179F790FC061E12D0F830006840070ED5002388480370FF2388480360611D87480622BFF756FB90F7E0F8002802D10C232B700AE0F82290590122920210430821884303221043F822905170BD30B50123784A13708B7B002B01D1122337E00C1C734DCB782868002B05D00121084328AE
:FB5321006000F0EFF907E00122904328607148036871490B40036070482379037063794370A3798370607A0002217A084340106B4A1060C0006880E07A0002A17A0843684A1080607B0002217B0843664A1080A37B664A1380E37B654A1370237C6548037030BD0123574A1370554A1168194081735A490B78C3734B7803748B7843745D4A1168090A8174554A11684900C174090A0175534A11884175090A8175524A1188C175090A017650490B88437650490B7883764F490B78C3760E23C370704730B5051C0C1C01233E4A1370031C28330120187001F0D3FB002818D0E01C79F789FB002801D00B2312E0FF2337480360E11C37480622BFF7B5FA314909
:FB541C0008684006400F022819D190F739F8002802D10C232B7012E0E01C79F76DFBF82319588822114303239943F8231950A17A0902627A1143324A51405E30018030BD30B5051C041C01231F4A137008790002C9780843191C79F7B0FB002802D112232B7017E05C21095AA173090AE1730834F4300068211C08318A07920F01D1086006E00870000A4870000A8870000AC8700623EB7030BD00B501230B4A1370C878002806D0174A1370022100208FF76AFA06E014490870002313490B7090F717F900BDC046641B08000AA10900BDC1080088060800B7C10800301B0800CDFEFFFFA806080090060800669E0900649E0900509E09006C9E09006D9E090D
:FB55170000940608000633000060A10900BFC10800704730B5051C041C0123234A137008790002C9780843191C79F749FB002802D112232B700BE05C21095AA173090AE173F83000684007C00F20740323EB7030BD30B5051C0C1C08790002C9780843012179F72DFB002806D0F8300068400702D50C232B7003E0211C281C96F7EBFB30BD30B5041C0D1CC81C79F7B8FA002806D0F8210A58520702D50C23237003E0291C201C96F730FC30BD0AA1090030B5041C0D1CFF20062195F7FAFA002807D016238370C470210A0171457195F77BFA30BD30B5041C0D1CFF20062195F7E8FA002807D018238370C470210A0171457195F769FA30BDF0B582B0041CFF
:FB5612000F1C00230193081C79F753FD061CC069400409D56B4601AA311C4C31301C283098F7D0FD002831D0032095F7CFFA051E2CD0381C79F736FEE8725C239F5B311C2831681D0622BFF794F92006000EA870EF703F0A2F7198218959C900C90F2973011C301C00F089FA012803D1281C9BF75EFF0BE0281C95F728FAAB78002B05D1194A506F012109048843506702B0F0BD10B5041CFF20052195F78CFA002806D039238370C470210A017195F70EFA10BD10B583B00C1C417AE0690004C00F88420DD0094B684603800723837002A84170074A6946201C83F728FE002000E0012003B010BDC046D42008000B0800009B6A0100B6480368FF2103310BC2
:FB570D00430360704710B5B34CB4490A68D00705D55006400F022801D1FFF7EDFFAF494888C310AE490B600023AE490B706378002B08D101236370AB49AC4800231A1CB7F76AFE02E0A948B7F785FE0023A848037010BC08BC1847704700B513225C300188002095F765FB00BDF0B583B00E1CA04D041C00F0E6F9F8210859C0075DD5002E55D0201C6FF7A7F8E069F822904340221043E061F821085904218843F8210851201C92F761F9206800216FF7CFF82068002101F010FA8A480378002B0AD0E069000430D48C4A90798C4A1178014001D1002826D1F821085900050CD5E069000418D4864B69460B8007238B70854A201C83F79DFD0EE0261C5C36E3
:FB580800318800231A1C181C95F771FC30880021FFF7E6FE201C00F008FA00232B70724803707748037038E001232B70201C00F0FCF932E00859400502D4201CFFF78FFF201C79F788FDE269012000068243E261E06C40004008F8210B596C4F3B40EC273D5901263607B5433D5108210B43F8273B5198273B59B3433B5103239B069843E0641204D20F301C002A01D1331500E080235F490B607AF70DFA012003B0F0BC08BC184710B5041CF830006859490840F8210851400626D5E06900040CD48EF74EFF206801218140CA4353490B6813400B606EF753FF19E050490B7850490878834210D2206801218140CA434A490B6813400B606EF742FF484803F1
:FB59030078013303708FF7C8FD2CE0002344480370E069000426D5211CF8310A6810060ED5101C0C218843F82210513F4A1168042095F7BEF9FF21201C00F062F912E0101C3A4A1040086008215C23185BFFF74AFEF822105904221043F82210510821201C80F744FD10BD70B5041C244D03685B012F48C618E069000403D4201C00218FF7A9F920687EF760F8201C00F0D1F8E0690006C00E0A2817D1012120688140254803688B430360201C76F772F8E069F821884340210843E061206885F795FB201CA030042104F08CF9E069F821884318210843E061F821085907212DE0301B08005EA10900641B0800900608006C9E0900F3450200689F09000AA131
:FB59FE0009005EA10900609F09006D9E09000B0800009B6A0100FFF5FFFFD4500800FFF7FFFFB4C408005CA10900399E090088060800FFFBFFFF7C290800E4C70800084340218843F8210851206801218140CA439F490B6813400B606EF795FE211C301C012291F746F8E069000402D42B78012B05D05C23185B0021FFF7A5FD01E000232B70F821085992490840F8210851201C83F770FD012070BC08BC184700B5011C1D207AF780F908BC1847000030B5051C89480378002B0AD0884C884A11688848BFF79DFB011C201CB7F7B8FCA56030BD002808D0F8221158490704D5C169914340221143C161704700B58FF7A7FD012008BC18470000704770B506D0
:FB5AF9001C051CFC352C68002C0DD114209BF705FD2860002810D07449321C0023B7F785FC2C68002C08D0714A11686E48BFF769FB011C201CB7F784FC70BD10B5041CFC342068002806D0B7F78FFC20689BF7FBFC0023236010BD00B560480378002B02D05F48B7F781FC00BD10B5041CC16909040CD50068002101F038F85D4908788307DA0FC107C90F201C8EF763FF10BC08BC184710B5041C002935D1F830006880218843F8221051011C0007800F15D0081C0C218843504A1040F8221051400503D4201C002195F784FAE069000405D4201C28308FF7D5F88EF7C9FDF82210590104490E8B070FD5444A0A407F214902884351020843F823185113213B
:FB5BF4005C342088FFF7F6FC012000E0002010BD10B5041C9A231954C0690006C00E0A2803D10B21201C7AF750FD201C80F753FE201C80F73FFD206879F79BF910BD10B582B0041CF83000682E490840F8210851E06900041CD48EF78CFD98210859C00020D5E06C28498843E064284B69460B8003238B705C23185BC870000A01A9087001234B70224A6946201C83F75DFB09E098210859C00003D5E06C1B498843E0648EF795FEA36B1B070AD5E069000407D418494B681B0503D5201C01218FF712F8E069012189058843C9018843E0619C340020207002B010BDB4C40800FFFDFFFF5FA10900689F09003C9E0900D4300000D3450200409E09005DA1097C
:FB5CEF0000FFF7FFFFFDFF0000FFFBFFFF0000000C13040000AB750100181B080070B5041E3CD0F83000680104490E4B0736D5000734D43448437E002B18D08069C0032DD58B070ED530480A1C0240F82319592F48814350020143195108215C23185BFFF74BFC0821201C80F74BFB17E028480A1C0240F826315925488143500201433151251C5C3529880022101C95F7BCF928880021FFF731FC201CFFF753FF70BD10B582B0041C00230193C069C00819490840042814D16B4601AA211C4C31201C283098F711FA002806D0019B002B03D0201C7CF770FE03E0211C002079F7EBFF02B010BD10B50124201C79F774F9C1690906C90E022902D3132180F752
:FB5DEA0002FB01340B2CF1D910BD2C2D0800FDFF000000FE0000FBFF00001F10000070B5041C061C037D022B36D1807B9BF760FD251C1835A74A13685900884201D2091AA548401AA54A1368618C49005918884206D90123DB06984202D23723A3741BE0201C73F7F7FB002816D170363078042812D0A07B9BF73CFD2B685900884201D2091A9448401A431F9548834204D201236B73201C70F748FF70BC08BC184730B5904A9049006843075B0D1078C407240D2343181C8D4D2B681B0418430860686800042B681B0C18434860507888600020C860012030BDB0B5041C837B844A13600123834A1360834D844A106879F76DF92860686880210843686080CC
:FB5EE500480168C94361674368A3672964A06F6904084368647C4AD07828627023185D022829D0042844D1784A1368180A4300D91C774A1160031F764A1360764A1160744A1368754A13600023754A1360606FA861A06FE86173484178CB0101781943807883030B4351070B436F4A13601021081C6FF722FE1CE04923684A13606B4A136880200343664A1360282112206FF714FE674A1368674803401360634A13685B065B0E802018430302614A106818431060614C0027E0577FF75EFF03061B0E5E4D2868000A000218432860E0577FF753FF0006010C2868564A104008432860B0BD10B5041C00290AD1FFF777FF7034207804281ED152484379012B33
:FB5FE0001AD115E002290DD1807B9BF776FC80084000324908606D23185D78F744F80023A38109E0052907D100F0B1FB002803D18EF7E0FE00F04CFE10BC08BC184700B53049086879F74EF8C2693F4B1968072399431A4011433C4A11602A490B680360C16901221205114352119143C161F822115804221143F822115000BD3348C3890360704710B5324C208A2189884203D36068884200D9081C208020882D4941431B4A1068000A0430BFF7B8F8E1690818294A1060A0F708FA011C0320BFF7CAF8638A21898B4206D9E368984203D1411C0320BFF7BFF8E06010BDC046689E090000000010749E0900FBFFFF076C9E0900B8890E0038800E0000830E2E
:FB60DB000098830E0000820E008C0608000C47080064000800940608009C060800A0060800108B0E00148B0E00A4860E00A8060800009A0E00E4500800648B0E00FF00FFFF9203080004830E00A42C0800949F0900589E0900549E0900710200009C830E0002234377C368012149020B4380210B43C3600023C37503680B430360012383777047F0B5B24CB34E301C78F7D5FCB24D002802D0C16909040AD4012078F75EFD2860FF2801D1002050E078F79DFF01E003682B60C169F822914318221143C161F822115804221143F8221150311C28300622BEF7E9FB0123A0480360A0480370FFF74EFF0123E3749E4F3968201C70F782FB2423237402236374FF
:FB61D6003523A374201C60300023037001234370002383702362286878F7E1FFA0730123E373211C6431301C8EF734FE286878F7D6FF211C643170F7D6F9201C4030FFF792FF3968201C70F768FB002000F0CFFC0120F0BC08BC184710B5037D092B0ED1834C7E4A106878F7BAFF20606068802188436060794AD0782062FFF708FF10BC08BC184700B5002902D100F045FB16E0022907D1012376490B604030407F77F707FF0CE005290AD1002371490B6000F073FA002803D18EF7A2FD00F00EFD08BC1847000030B5041C051C61352878012803D102232B7051230FE002281ED165490B680120C004186064490B68002B09D0FFF7CDFE01232B703523A3F8
:FB62D10074201C70F71DFD0BE0201C70F777FB042355490B60980679F7E8FC012000F069FC30BC08BC184710B585B0041C1422E92109036846BEF73DFB00984207520F21680723994311432160010A6170010CA170039B1B0609D4030EE37001982071010A6171000CA071062200E00222611C3B4803F097FC002801D0002000E0012005B010BD30B5041C6034A3780133A370051C6FF7CEFEA378281C032B13D90023A37037490B68002B08D170F728FB04232D490B60980679F799FC08E00123637070F7BFFC03E00223637070F715FC30BD30B5051C041C60346378022B24D1294A1168043A1068CB0719D4430317D54A0315D50722D2040A4011D1430688
:FB63CC00180F03280FD18B05D80E11280BD11F48FFF78CFF002806D00023A3700323637004E0CB0702D4281CFFF7AEFF30BC08BC184710B5041C011C6131087803283ED10949086878F758FE002821D00F4B1A68C169072399431A401143C16118E0C046A89F0900B7C1080088060800D4500800BEC10800AC06080000820E00F0FC0E00AC2C0800589E09002C8B0E00949F09000223B04A1360D80679F72AFC211C6431AD487DF721F9AD4A106878F79DFE211C643170F79DF8201C70F7A3FA0CE0A84A1388002B08D1012806D102230B705123A374201C70F737FC10BC08BC1847A049037D022B07D14868431E00D34B600888013800D30880704730B59AD7
:FB64C7004C9A4D2B68FF2B49D1002078F7B1FB2860FF2843D00123904A1360954A13700323E374944A1168201C70F7EFF925232374022363743323A374201C70300423037000234380236323848B4A13685B006384242000230355286878F748FEA0730023E373FFF778FD286878F7C8FD6C2103680B55C169E06D0722904311400843E065201C5030FFF7F6FD211C74317B488EF788FC784A1168201C70F7C6F9012030BC08BC1847F0B5021C73490D6874490B8859088D4200D8291C724F3B68C918041C7034668873438B4213D96B005384252101230B5404232370332393740023638070F7B3FB20235C480360D80579F782FB01E070F7AAFBF0BD30B5EC
:FB65C200051C041C5B49086878F77BFD002808D0C1695E4A106807229043114008435B4A10605B490868430E5B490B605848FFF74AFC7023022058554823A37453490B685B006384183401236373281C70F780FB30BD70B5444D2B68FF2B1FD04F4E4049301C062203F025FB002817D1286878F748FD041E0DD0C069C0020AD5301C78F768FA002805D0844203D0FF21201CFFF7D8FAFF232B60414870F77BF970BD10B5041C10232E4A1360180679F726FB334A13685B006384252001230355211C703104230B7000234B80201C70F79FF910BD70B5051C041C324A1368324803401360254A1378002B06D140231C490B60980579F703FB2FE04B0711D570EB
:FB66BD0023585D042829D1332600F06AFA002800D13126A674183401236373281C70F71AFB1BE08B0704D570342078022815D10DE0CB0712D57034207802280ED306D0042808D30AD1281CFFF75CFF06E0281CFFF72EFF02E0281CFFF7A4FF70BC08BC1847C046D4500800B7C1080088060800549E090014A009008C060800BEC10800B006080090060800640008005C9E090098060800949F090098830E00E4500800E8500800A89F090018800E00FFF0FFFF70479F498868002805D0007C2438012801D8012000E00020704700B51F21994803F0AAFA1B21984803F0A6FAFF23974A1360974A13600023964A13708EF714FB00F080FA00BD10B583B0041CAD
:FB67B8000C22E92109036846BEF7E0F8694600200A78013122548D4B1A5401300628F7D34B78A37103B010BD00B5002388490B70814870F72FF983490868FF2804D078F7B6FBFF237F490B600123824803607E480378012B04D18EF714FF00237A490B7000BD10B5041C70342378022B27D17A4B1968043B1A68CB0717D4530315D54B0313D50723DB040B400FD153061A0F032A0BD18B05DA0E082A01D00C2A05D16F48FFF7ABFF0323237009E0CB07638804D40133638070F751FA01E00133638010BC08BC1847664A13681802664A1060664A13681802043A11680B0E1843634A1060704710B562480368180A62490143624C216003021918614A8B186188
:FB68B3004C2360614C236861490B4023602368032189040B43236000235D4C236003040B2109045918FD221202114303242143594C21600F30584C206010BDF0B5041C574D574F404A106878F75BFC38607868802188437860534AD0783862A37B524A13602B68524AD05C0843514A1060261C606E3864A06E60361521890608437864707801281BD12C48416A002902D1836A022B09D9032904D1836AFF203630834202D2201C70F795FA301DFFF79DFF0023414A1360082113206FF718F999E0022800D096E03D4B2F4A13603C4B2C4A13600123304A1360201C002171F703F9384A106838490B1C4343591821624300581CA081E36C7820834318200343E7
:FB69AE001F2080028343032080020343E364236D2F4883436322134323654034A3892C4A1360238A5360EB23DB00234A1360FFF74EFF282101206FF7DBF8264A4DE06C21080014A00900A89F0900880608008C060800BFC10800E8500800BEC10800D45008002C8B0E00609F090038800E00B8890E003C800E00BC890E009406080000D07DC0D4890E00043E00008C800E00B88A0E00FFFFC3FF94830E0098830E00C8890E00609E090000820E00B7C1080000830E00A8060800A4860E00F8800E00447E000040C07DC098060800E2040000F81F0000CC8A0E00648B0E0013688C48034013602B688B4AD05C802101430902894A13680B431360884C00202086
:FB6AA900567FF7D7F903061B0E864E3068000A000218433060002020567FF7CBF90006010C30687B4A104008433060F0BD30B582B0041C7C490B7E002B5AD17B490B68702003401D09A37BAB4252D078490B68FE20034000D00123002B47D10020B3F737FE002842D173490B689B063ED48CF76DFD00283AD16946281C9AF7D2FF684670F759FE68469AF7FFFF00209BF75FF86948002343628362009B9B089B00416B59180B011B0943636448016819E0251F237B212B15D1281C72F74AFD00984308606918184308990149096161E08BBEF75DFBA083281C72F799FB281C72F706F907E00C1C09688442E1D102E0A07B9BF72EF802B030BD52480368002B49
:FB6BA40000D00123002B09D0007D002806D0072801D0002000E00120002800D0012070473121002800D0332147488174704700B59BF764F8430818335B089B01580900BD30B50D1C6DF7E8FD041E14D0002D0BD05C23A3743D4A1370807BFFF7E8FF011C201C6DF7C9FE06E090340021C9432160362336490B7030BD00B532486FF714FF00BD334A1368180A32490143324A11600023324A1360704710B5041C304B2E490B603048FFF71EF90723DB012B490B60E36D7F208343182003431F2080028343032080020343E365236E274883438820034323665034A38924490B60238A4B6010BD00B5C37B4B400BD07022115C022904D0042907D1FFF7C4FF04DA
:FB6C9F00E0FFF7CCFF01E08EF775FA08BC1847000018480368184803607047C046FF00FFFFA8060800648B0E009203080004830E002C2D080024860E00B4C4080008800E006C210800A8020800A89F090014A00900F40108009406080000D07DC0D4890E00F8800E0040C07DC0949F0900F81F0000CC8A0E00909F090094830E00037B0C30FF2B02D14378202B05D0F8225058400A0422104000D001207047F0B582B00C1C01D1042097E0051C4C480268002A08D0281CC4F7ADFD002803D0FF300006000E89E0F82148590007800F012821D1237B5B081ED0291C201CFFF7D0FF002818D13F490B78201C002B06D09AF7D9FB5C352888FEF786FC6DE0F822AD
:FB6D9A00515902229143F82251519AF7CCFB0821281C7FF720FBC7E72F687B0133481E18F37F012B55D0237B5B080ED1637B052B02D12E4900910DE02E490091042B09D0DB002C48C218009204E0201C0C307BF7FEFB009000990B7963770023236002F064FF01900099486840010BD4B068002805D003682360B3681C60B46011E0B46024600EE0F068002805D003682360F3681C60F46001E0F4602460211C281C90F730FF0123BB401449086818430860019802F043FFE8690006C00E0A2803D1381C74F749FE09E0082807D1381C6DF7FCFC03E0201C9AF767FB66E7002002B0F0BDC046BCC808000AA109007C290800549D09005C9D09006CCF050074FF
:FB6E950029080070B5041C0D1CF82253580122D2021343F8225350C3699343E361061C5C36308877F7FDFF20233380291C201C77F782FF291C201C90F713FE286878F748F870BD70B5FFF79FFEB04E30687CF7B3FDAF4877F714FE041C306878F7E8F8051C002C0AD0F8210B5904210B4340208343F8210B51201C8DF73AFE002D07D0002C05D0A54203D0FF21281CFEF770FEFF23336070BD30B59D4877F7F1FD9B4D041E09D0C3691B0406D4286878F7C0F8211CFFF7A7FF05E0F820035995480340F8200351286878F7B3F8041C2B682360FF232B6002F0ACFE012321688B408E4A11681943116002F0ABFE20686DF77DFB20686DF719FC9423195B6DF79B
:FB6F900019FD20680121FFF725FEE369F820834310200343E361206801216DF7D6FC201C90F712FD201CFEF778FDFFF72FFE30BDF0B581B00026FFF725FB7949086878F779F8051C774F381C77F79CFD041E3FD0C3691B06DB0E083B062B02D2FCF7D8F836E0F82003595B0732D50126235803200343F8200351E3691B0405D5211C281CFFF742FF2C1C36E05C23585B195B884201D077F748FF2F68E8690090FF221132211C281CBDF7A6FC2F60EB690720834300984007400F0343EB61381C90F7EEF8206877F788FF2C1C281C90F7BDFC12E05349086878F72EF8391C041C28300622BDF788FCF820035903208343F8200351206890F7D3F8201CFEF70F5E
:FB708B00FD201CFEF70DF802F017FE012321688B40434A11681943116002F016FE20686DF7E8FA20686DF784FB9423195B6DF784FC20680121FFF790FD002E05D1E369F820834310200343E361206801216DF73FFCFF23344A1360354A1378012B03D1022100208DF757FC01B0F0BD10B52E4877F70BFD041E17D0C369F8218B4320210B43C36100217CF7FEF9201C00217CF755FA274A1368012B06D1E3691B0403D40021081C8DF737FC10BD00B522490868042802D1FFF7CBFE2BE0022802D1FFF7EFFE26E080280BD1144877F7DEFC00281FD0C369F8218B4328210B43C36118E0202816D0102802D1FFF725FF11E0FF230133984202D1FFF7B9FF0AE0FD
:FB718600402802D18EF7BEFA05E001235B02984201D18EF74FFA012000BD88060800B7C10800FFF7FFFFB4C408008C060800E850080060A1090088C80800D450080010B5C1698B0203D500217CF7DDF91FE0041C0806C00E08281AD2F8210B591B0703D5201CFEF7D1FD12E0E3691B0409D4201C7BF7EEFDE369F820834328200343E36105E0042803D1211C002078F7C8FD10BD30B5051C3A4CF82043591B0709D4A369DB0302D4637E002B03D1617E281C93F749FFA369DB03D90F281C012282F766F9281CFEF760FD30BDF0B502232D4A1360C7690568F12301221A541A1C0E1C041CBDF78DFB1E22311CF231201CF230BDF786FB201C0023836448302549
:9372810060E36907218B437907490F1943E161F369DB135A1C0B1C0121C9038B43D107090C0B43E361F82109590B0507D4174A1188818101829423154A10881853E3693F2000028343092000020343E361EC221359072000068343012000060343135198221059400F0021002800D10121281C83F704F8F0BDF8300068430A04201840800870472C2D08004044080056030800580308007E
:FB73680070B582B0051C0024200123181B0145481E18F821885940071AD4306877F716FF6968884214D1301C78F73CF800280FD03D4B69460B8002238B705C23985BC870000A01A90870394A6946301C81F7C2FF01340B2CD8D30123354A1376686873F76AFD686874F77EFA6868B3F7ABF8696830486FF760FD69682F486FF75CFD69682E486FF758FD69682D486FF754FD6C68002C45D10C2363432A481D18A87A022831D304280ED32ED1281C83F73CFE061C288000236B72E87977F750FEA03006810C3028E0281C83F72EFE288000236B72EB7999005B189B011B495E18311CB831487100230B71C436B379002B15D073792B80B3796B8033796B72285B
:517463001C83F713FE7071301D07E0002807D0281C83F70BFE2880281C09300023037001340E2CB9D302B070BD88380800530C000043720100CC2F0800B42E0800682E08001C2E0800D037080040490800140B080040
:2C74BC0010B5041C6DF7CCFC237D072B01D0082B06D190340021C9432160362302490B7010BC08BC1847C046F401080063
:74750C0070B5061C0C1C151CF82043585B0728D5CB691B0425D4144803689B0721D513480378002B09D01104090C301C8FF7E4FC281CFEF7B0F8002014E0081C28308DF7F8FB2904090C301C8FF7D6FC0821201C7EF748FF8DF72FFA0123054A1370042000E0FF2070BDC046641B08000AA10900BFC108004D
:68759800044A137883730123C3702830022101707047C04660A1090010B5041CF8210B581804400E83071BD50E4B011C1940F82213597F204002834348020343135122215C23185BFEF704F8E369F820834340200343E361F822135904229343F822135110BDC046FDFF000074
:FB766600F0B5051C13235B049F4F3B60082105206EF792FA9D4F3B689D4803403B603B68C00703433B608B4F3B6802273B43894F3B60974C984820620123974F3B60974FB868606278686065A8692430C17880220A43934F3A60934E8378B07B002B0ED1924D0021B0F7BBFFB169081C243042781302007B18430022B1F7C8F909E00121B0F7ADFF8A4D8A4A13680120400603431360884805608848838A8848036000232360F0BD0523838183692633187801280FD10021CB4382490B6000234B607D490B68802003430B607A490B68800403430B60704700B5C369002B23D013235B04694A13605F4A13685D4A13605B4A1368594A1360554A1368644A1310
:C3776100607248724A11684160724A11684161714A11688160714A13680360704A1368704A136061486FF79BF908BC1847000030B5052383816C4A116806220A40062A02D181692A3108E08B0702D481692C3103E04B0704D481692E310B8801330B8013235B0449490B605049CB69002B12D1524C2568C37B012B0CD1236880208343236002209AF7D3FA80231D43A06899040843A060256030BC08BC184713235B043A4803604148C369002B02D1434803680360704700B5002901D1FFF724FF08BC184700000C
:FB799400F0B581B0051C0C1C08790002C978084352D00020AEF724FAFF2801D109234CE0071CAEF7DEF90023038121790902E27811438186C186051C83F727FF2E1CB03673885808E8806379252B0ED2394800900521BDF7EFFA6179C8084907490F01228A40009B195C11431954B07BFF233D334343314819180091281CB0F7DAFB2F4885662521281CFCF777FF307B0021B0F70FFE0523AB80381CB0F75AFC00999E3101200870381C002100F035F8A279E179381C00F005F801E012232B7001B0F0BDF0B50C1C171CAEF78CF9061C201DB5F76BFA051E1ED0B18D0B051B0D012040031843210408432B1CA907890F01D1186006E01870000A5870000A98CF
:FB7A8F0070000AD8703A06120E2104090C281D91F7E7FF281CB3F7D6FDF0BD30B50C1CFF233D3343430548C51802F004F9A2352C8002F008F930BDC046F44E0800349D080038B0080000B5FCF741FB00BD10B5041CC37B012B05D1A9480378002B01D101230370201CB3F7DFF8201CFFF7EBFF10BC08BC184700B52C22A149A248BCF73AFFA048A14B1860A1494160A1498161A149C16100BD30B5041CBE342178FF233D334B439D495918FF2208328B18FF2119709A493C30062202F095F800280CD1984D23782B6002236B717F21C943A81D072202F090F800232B7130BD30B5041CBE342078FF233D3343438B495D18203083F7B5FA281C6EF762FF86F7A3
:FB7B8A0084FA8848036821788B4203D1FF2303600023437130BD00B5017D032901D0042902D1B3F7E7F809E0037D062B02D100F008F803E0092B01D1B3F70DF908BC1847000070B582B0051C041C8034E37A002B08D0036DBE3319780820AFF74CFB0023A376E3726378032B28D0A87B99F770FE4008218C431A1E04360C618C00291DD08E421BD36078012806D1688CBDF719FB062803D13E2002E0042803D008202B6DAF33187003236370281C6EF7CBFE2B6DBE3319780520AFF71EFB31E06068002808D00090002301936946A87B99F792FF002363606378032B11D0FF201930285A864209D8A87B86F7B2F9002804D1281CB3F7ECFB002802D04C49C8C3
:FB7C8500780CE06378002B07D14A4BA87B185C032802D24649887801E045494878A874281CB3F7C8FA02B070BD70B5041C0E1C354D2878002802D0013828702878012804D83D4A13683D490B401360002816D0201C9830C378002B02D18188CA060ED58379002B11D0311C201CB1F716F82B78012B0AD9311C201CB0F7E2FF05E0201CB0F7A7FC201CB3F750FA70BDF0B581B0041C051C80350027AF81EF76FF230533C618F37D0133F375C37B012B13D17378002B19D1224803689B0715D5A07B99F7CAFD80084100A06981420DD099F75EFD4000686008E00123737015480378A3740123DB07B361B77015480068009083075CD514490B685B0602D40098EE
:FB7D8000430731D5A07B99F7A8FD1FE0FDCC080078E40500C4A0090078150800A17B0900117D0900DD7A0900349D080009C108009C9E090074150800E3C008001C800E00FFBFFFFFBC8B0E0040150800400828846B78012B08D102236B70236D588900016884201CB3F7CEF8F37D012B07D17EF72DF8011C201CAFF7C4FA01F0F1F92C484379022B14D1236DBE330068197888420ED17EF71BF8264B991D1A7988541879411C0720BDF726FA214B1871214B1F707EF70CF8B074009906220A40062A1ED1236DBE33187886F7F8F8201C00F0A6F8F078012804D8184980000B5C01330B54E37B0099201C002B02D1FFF720FF01E000F054F8201CB0F7EEFBAFBA
:997E7B007214E0B7758B070AD5A87A0D490B78984205D2E37B002B02D00130A87206E02B7E002B00D02F76201CB3F783F901B0F0BC08BC18479C9E090086030800ECB008001CCD0800F0B5061E20D00768002F1DD0407CADF752FF051C707C182141430C484418786891F7F1FB99F772FB381C99F729FB00233360217A01312172217A05480278A88D91F726FB00232372F0BDC046F4B008007C150800D1
:F07F1C0070B5051C0E1C041C8034A37F002B1ED0B0F7F7FE184A537C012B09D9E37E002B02D1A08BC10603D5311C281CB0F7BCFECD23585D00280AD0FF230533E818837D002B04D04378002B01D1012383700B490B681B070FD56378022B0CD1FF201630285C002807D0A0898004800E0023002800D10123237670BDECCC0800E02C0800F0B5041C051C3A4806689835A8880712F306D90FE9707307D90F0307DA0F002F04D0344803685B0300D5111CFF231533E0184378002B03D1002901D0012343708A4216D0AB79002B15D1002F08D0D0231859C168C91BC16002D48368DB1983600122AA71201CB3F711FA201CB0F704FAA8
:FB800C0001E0002383713307DA0FA8884307D90F8A4234D11C4F397C0A0702D5B304990E2DD1184A13689B0303D5B3079B0F032B25D004214840A880251C5035AE87B304980E1CD020221149BB68181D01F02CFECC342078800712D50D490B68012080030340580B0BD02B68BE331878ADF77DFEAF303D210170012028870023AB87F0BDA88B0E00E02C0800ECCC080080980E00BC8B0E0010B51F4C2068002805D08008800099F747FA0023236010BDF0B5051CC668B469002C16D0B0F7BBFF002812D1154F3A1C211C1331E01CB0F793FE381C00F00AF80023AB60EB60A008800099F729FA0023B361F0BD00B582B0262369460B800190081C77F7ADFD02D8
:25810700B000BD00B54368002B04D010220448002192F78CFF00BDC046E49C08000BA10900172000009D
:9C814800F0B583B00291FF233D3343432248C618356D01F0B3FD371C90372C1CB0348E239A5B02998A1A1204120C638853433A6FD21851014909019101F0A8FDF37B012B0ED16B8B5B000093288B4000019A101841014909181CBDF749F8A0800098E080281C83F738FBF37B002B0ED1E68870086883A188019899F727FBE288011C101CBDF734F8301A400828830298431E3B800123BB7203B0F0BD349D0800A8
:F481EC00F0B581B00090ADF7C0FD041C0027364E336BDB071FD5B4421DD0251C2C354223A97D9A5D914216D1291C1031301C3C30062201F029FD00280DD101F04DFD051CBE36307800F036F8281C01F04DFD3078B0F776F803E0C03601370F2FD8DB0098B3F7C7F9251C0123EB852C35201C81F7AFFC00980021AEF7AFFE1C4A13681021DB0603D5A971201CB4F73BF8201CB2F7F9F9BE342178FF223D325143144BC9187F23FF2023300B54A623FF2017300B5401B0F0BD10B5FF233D3343430C48C418201C80304178012907D1418C608CBCF7C7FF062803D13E2002E0042903D00820236DAF33187010BD2890080040150800349D08002E
:BC82E800F0B5061C046D2B4803689E4201D1B0F70FFF301CB0F74BFD351C8035288901380ED32881288904236B70002808D1301C6EF759FBBE3421780520AEF7ADFF38E0687800281FD1B07B99F7D3FA4008B034A16899F769FA01239B0698420CD267883B1859014909381CBCF754FF7843A168081840014009A060A06800236B700223F374B06112E0022810D1AB7E002B0DD0E889298A431A1804000C074B984205D2EB7A002B02D1301CB2F7A3FE301C6EF7BCFCF0BD6C210800FF7F00005C
:8C83E000F0B5051C1F49FF230533C418E378980000230B544318581C00230370AF692B6D1889421C267C688C5043B04063681B1858014009381A01239B06984220D2B31D20789840A368D901EB7B002B00D15143E268824200D3101CBCF7E0FE011C802800D980219F352970074803789E4202D2701C207404E000230434191C381C0BC4F0BDC046ECB008006F1508000B
:E4847800F0B5061C071C9C373888102101401D490BD01D4BF518EB7898000A5C9301AA68D218AA604318597811E0174BF518EB7898004118487800280DD08C78097861438901BCF79FFEA9680918A960211C8B01E868C018E8602B7C002B11D1E86800280ED0AB68D901F37B002B03D1336D1A8901325143BCF786FE802800D98020F870F0BDC046ECB0080004010000F0B50D1C114C20600B68DB0701D599F77CF90F4E0020706637680E483840306099F788FC99F786FC2868E0606868A0600220706699F77EFC99F77CFC99F77AFC37600020E060A060F0BDC04600820E001C800E00FFFFFFFDFB
:3085640000B54068084A13681979002909D1074A13681B0605D4002801D098F7DFFF012000E0002000BDC046C04F0800E02C0800ED
:7885B00030B5041C80304378002B1BD10323E374252101230B55837E002B07D0236DD98B09014184A36903840123C372618CA06975F796FB238C984204D02084216DB03188800880FF230133E158E518A06999F707F9216DB2310A88011C101CBCF7F6FD011C201CB2F74AFEA3692B60201CB0F758FD00236B7130BDC4
:FB863800F0B581B0344806683448056834480378002B5CD133480368AB4209D132480368B34205D131490B683149086883424ED0304C314FFE20284007D1002D03D02F480368DB0301D5002E1CD063681B071B0F022B02D0022099F757FC29480078606328480078A06367F7D5FD01F027FB822141432068642250436430BCF7A3FD431C3B6018E063681B0702D0002099F73CFC00206063A0631C4A136800931B4A1088392109014143181CBCF78CFD386018490098BCF787FD174908603868A06109490D6009490E600A490B6808490B6001B0F0BC08BC1847C04614CD0800B4C4080008C30800B8CA08007C9E09005C9F09008C0608000C000F00DC5E08A6
:9187330000FC0A080009C308000AC30800C02D0800E80A080020CF01009C000F00381CFFF7E7F902B0B1F7FCFFFFF705FAB2F709F830B5041C13490B685D78B1F769FD022C01D0042C16D1281C203082F7B5FC042C07D10D4800231A1C191C92F751FC022102E0022C03D10821281CAEF711FC281CADF78EFB05490B689879012801D1ADF7F0FB30BDC49C08000E200000C89C080028
:FB87D400F0B5041C00216EF758FE002803DA01234E4843716FE0061C251C7835687A00280DD1A07B99F76FF84008236DB833196899F70BF8002804DC687A002805D0002E03DD201CB2F7C9FC55E0E37B012B03D1002801D101236B72A878802101433C4A1160082105206DF7B0F9384A5379002B41D1B0F767FC374F381C052101F048FA03233B74201C00F037F8B0F718FCEB8A002B0AD1FF201630205C002805D1B0F751FC3B7C082003433B740023AB74FF230533E6180023F375201CB2F794FD264A13780021002B00D101211170F078FF2806D16B7A022B03D1081CF070A3697360012805D8F1708B001C48C0187B7C8370201CAFF7B9FDF0BD30B58442
:6D88CF007C18490B788374051C012200216EF775FCAC742C6DB223195B0239884200DB081C11494143E5208000BCF780FCFF210531695C884200D3081C32342178490701D5012801D8002800D101200349487430BDA42C0800A4860E00ECCC08006C150800ECB008007415080071020000FF
:FB894400F0B583B0012100910027C0237B431A481C18206BC00729D5251CBC356B78002B24D1261CE38D2C36002B1FD0B379002B02D00021009119E0211C0C310F48052201F076F9002811D00223B371201CB3F736FC01A9201CB3F71EFC01A9A878B2F7B8FC082201A9A878B3F73AFD01370F2FCBD3009803B0F0BD28900800004F080010B5002912D140498B79002B0BD03F490B69834207D13E4C2368DB0603D54631012008700EE0B0F75DFD0BE0022909D1011C48318A880B7E9B18013383814B889B1A4B8010BC08BC184730B5314A11680B06D90F884218D12F4D2C68ADF7A4FAC1780B02817819430279130419434279130619438C4208D12A1F1392
:FB8A3F00681A0C41780B0200781843824201D0002000E0012030BDF0B583B0051C00910026041C58342379002B2CD0012601A8B1F72FF8071C6379002B13D0E378012B07D13023585DFFF7C3FF002801D1061C19E02835AB79012B04D101A9381CB0F7CDFE061C0F480378002B0CD0012F0AD1029B03208003034001208003834202D1012300980360301C03B0F0BDC046AC210800642C080008800E00A88B0E0088980E006C9C0800F0B50D1C041C002D14D14B488379002B0CD04A480369A34208D1494A1368DB0604D5031C46330120187036E0201CB1F7C1FB32E0FFF754FF022D2ED1414A131C5421085B0004271C52373988084318644433251C56359F
:FB8B3A00A807800F01D12E6808E02D1AC0002968C1402026301A6E6886400E431E60A36B002B0CD1A06EC16B91603C30457908212D0200792843D06013680B431360A06E806A9064F0BC08BC1847F0B582B0041C051CB0F767FE58352B79002B31D0EB78012B10D1201C28308379012B0BD16B79002B08D1007AFFF72DFF002803D1201C6DF7A2FA1DE0EB78012B1AD8A66E6846B0F781FF6B79002B0CD1071C6946301C3C300622BBF7D1FE423637706C340120207012E02E231B5D012B02D16946B0F71FFEA37C0B498878834202D1201CB1F774FC201C0121B0F71EFD02B0F0BC08BC1847AC210800642C080008800E00808B0E0074150800034B0448039E
:478C350060044B044803607047C046BC9D090050150800E89D09006415080010B5041C6DF755FA201C6DF7B8FE4A23002018536523195D0220AEF709FBA36EBC3318780021AFF7E5FC10BD4B
:148CA40000B5011C32310B78FB2213400B70AEF7F1FE00BDC8
:4C8CC800F0B5061C0F1C104D2C68A07B98F701FE80084300991C608CA26983185801400998F792FD041C002F0BD0B17B2B68987B6EF7C7FD002804D1032C01D8002400E0033C201CF0BDC0466C21080011
:FB8D1C00F0B586B0061C4568039581780A07120F0092C07802908F0943191A79059200200490C74A13681879002804D1C5490B681B0600D4BCE10098062800D9BDE10598002808D0122806D0301CAFF78FF8002800D1ADE1B1E1BC4C2378BC490879834202D3201CAEF77EF8B8484188002923D00378002B10D06378002B04D0B44899F769F9002818D000236370A370AF4A508850214143AE4805E02378AD48002B04D15022514399F70BF906E099F753F9002802D0201CAEF756F820782923191C41430191E11C8807800F01D10A6808E0091AC0000B68C3402022101A4A6882401A4301989C4B0099C95C815480180099032901D0052957D1934A13681BE6
:FB8E17000600D441E1477002998B1F0372291C09300622BBF7ABFD0635E11C8807800F01D10A6808E0091AC0000B68C3402022101A4A6882401A43019880180230291C0622BBF794FD0098052817D10635E11C8807800F01D10B6808E0091AC0000A68C2402023181A4B68834013430199C8180F30029A0C3A291CBBF779FDE11C8807800F01D10B6808E0091AC0000A68C2402023181A4B68834013430199C8182830F17872688918C9780170F1E0FF07FF0F0098042806D0634A1368F07871684018C078587260490868C379012B18D1391C281CAEF7FCFA009A042A05D1AEF719FB002800D1D7E03BE0FF2803D1391C281CAEF742FBAEF722FB002800D17D
:FB8F1200CBE02FE057490B78002B2BD0009A042A18D1291C54481030062200F0A2FE002800D0BAE05049887D03071B0FBB4200D0B3E08023034000D1AFE04006400E494988750FE00922835601200856834200DAA3E0291C45480622BBF70BFD80233B434148837501210491E11C8807800F01D10A6808E0091AC0000B68C3402022101A4A6882401A43019880184770291C02300622BBF7EEFC2F480378002B19D0E11C8807800F01D10A6808E0091AC0000B68C3402022101A4A6882401A4301998818F17872688918AEF7F4FB0006000EFF2863D106350298FA300006000E02900098E11C012812D18807800F01D10B6808E0091AC0000A68C240202318C2
:D3900D001A4B68834013430199C8180021017215E08807800F01D10B6808E0091AC0000A68C2402023181A4B68834013430199C818029A0272291C0930BBF79DFCE11C8807800F01D10B681CE0091A12E0C046C04F0800E02C08005DC30800BC9C080093C3080014E3050068C30800B8AF0800C8AF0800C0000A68C2402023181A4B68834013430199C8182830F17872688918C97801700498002802D023780133237023780B490879834202D3201CADF7E2FE0598122804D1AEF79AFFAEF7CFFF04E00398002801D098F735FA06B0F0BDC046BC9C0800D1
