:020000040009F1
:282000000108006999994204204EB1FD0400FFFFFFFF400600CDABA0027020020A002820090000000000000065
:FB202800413C0042434D323037303242302047656E657269632055534220446574756E656420436C61737320312040203230204D487A202D204244524F49442D5456006902002D029801000368040012000C006A3600030012000000B1000000A0000000420000005310020180000000900000006310040273100402C0000000D000000022000000320000003E2400000700550000000000020000100000000000000000000000000000000000000000000000A301000F5C010001C05C0100C40F0000100000000000006C000F00000700000005000088000F000000F000000080002C010F00000000FF000000036C000F000000FF000000000088000F00009F
:FB21230000000F0000000868000F00FFFF00000301000010010F0000FF00000005000094FC0E00FFFF00005E02000094FC0E00FFFF00006602000030FC0E00FFFF0F006304000000FD0E00FFFF0F006802000088FC0E00FFFF0000000400002CFC0E00FFFF00004904000070FC0E00FFFF00000B09000074FC0E00FFFF00002E010000D8FF0E00FFFF000062190000D0FC0E00FFFF000020C90000C8FC0E00FFFF000038850000DCFC0E00FFFF00001CC80000CCFD0E00FFFF0000048000005CFC0E00FFFF00000200000020FC0E00FFFF000019210000E0FC0E000080000000000000C0FC0E00FFFF00002200000034A60800FFFFFFFF0012001238A60800C0
:FB221E00FFFF0000001200003CA6080000FFFFFF00090909CCFC0E00FFFF00002B450000720600030000080001040800005C0ABE220000006E06000300042000009C010002990100009A010002870C000A00500014141A660A1500005A2000001B7823FFFF3F0005031F0CC2015050AE38BA0A0500FFFF07E33200BDA8C6FF5D0C000A64E6B000008898425A33435F09003C280100040004F70C0A6F0088190800C600F3025D0066033000C900E10268005C033600C300E2026A0053033C00C200E1026C004E034100C500D60272004A034300C300CE02790042034800C500C00283003A034E00C800BF0282003B034E00C900BC02840037035200080807072C
:FB23190007070707060606060505050502D07B0001040A08FC0E00FFFF00002E3600000CFC0E00FFFF00002CAE000010FC0E00FFFF00002AAC000014FC0E00FFFF0000A222000018FC0E00FFFF00001D2000001CFC0E00FFFF00000D15000020FC0E00FFFF0000858D000024FC0E00FFFF00008311000028FC0E00FFFF00000001000098FF0E00FFFF00003E410000C3160012691419310870007836042430607180764A3108290ACF0900100F0C6EF0B009F060D10900010403036B1420206B1A2400FF0108080A130611020FFE0DFA0BF609F207EE050A130611020FFE0DFA0BF609F207EE050301000182D600040602020A233C5A6E7D80008000800080F8
:FB241400008000800080028002800280028002800214FF20880AFF610000000000000000000000000014FF20820AFF610000000000000000000000000014FF20000AFF610000000000000000000000000014FF20080AFF610000000000000000000000000014FF200B0AFF610000000000000000000000000014FF20100AFF610000000000000000000000000040FFFF68027B0000000040FFFF68027B0000000040FFFF68027B0000000040FFFF68027B0000000040FFFF69027B0000000040FFFF69027B0000000082D600FF0602020A233C5A6E7D80008000800080008000800080028002800280028002800214FF19880AFF20000000000000000000001A
:FB250F0000000014FF19820AFF430000000000000000000000000014FF19000AFF660000000000000000000000000014FF19080AFF660000000000000000000000000014FF190B0AFF430000000000000000000000000014FF19100AFF200000000000000000000000000041000000007B0000000041000000007B0000000041000000007B0000000041000000007B0000000041000000007B0000000041000000007B000000008612000413004008000040130001000180FF000113C15E0044041422A244041422A23B04B104B204B304B404B504B604B704B804B904BA04BB04BC04BD04BE04BF04C004C104C204C304C404C504C604C704C804C904CA0425
:FB260A00CB04CC04CD04CE04CF04D004D104D204D304D404D504D604D704D8280C000A950058FF0900280000002B900900350000002985090068000000F1BF0900940000000000000000000000000000002825CC200000F71000F712000B0400000000000000000004080600000000000509076F0A700A900091009200CC1E94009500960000000000000000000000000000000000000000000000080008000200040000010002001000200800100000040008004000800005000AA100ECFF0900C47A02003C000000001800003C0000180008000000000000010000004001000000000000F9A809000000000000000000F9A2090015A2090081A30900E7A3D6
:FB270500090000000000B9A009004B6B02000000000093A80900000000009BA70900E1AA0900F3A6090091A609000000000000000000AD9F09000B6F02007BAD090004000104FFFFFFFFFFFFFFFFFF00000080000000800000008000000080000000FF080F0000585A000000B50368000000000000080F00015C5A000092F07DFD00005A850900080F0002809F00000123A376000000000000080F000394FC00008CF008FE0000A8C80900080F00043078040055F006FA000040CC0900080F0005307E040055F0C2F80000B8CF0900080F0006500401008DF03AFB0000C8DA0900080F0007C0FB02006DF045FF00004EDA0900080F0008ECE2010081F06CFB3B
:FB2800000000C8F90900080F0009B8E4010081F09DFB0000F6FB0900080F000A70E8010081F007FA000082FC0900080F000BF8E7010081F05BFA0000B2FC0900080F000C946A040005210529000000000000080F000DE06A040002210221000000000000080F000E1090020076F089FE000026FD0900080F000F2C20040070200021000000000000080F0010542004000A217620000000000000080F0011447F030067F042FF0000CCFD0900080F0012685204005AF0DDFD000026FE0900080F0013C08D040057F06BF800009AFE09000B0400728409000B0400D4840900080F00144829010085F06CFE000024860900080F0015C84C010083F0DCFC000084B6
:FB28FB008609000B0400B2880900080F0016844D000093F056FE0000348A0900080F00177C71000091F080FC0000808A0900080F0018C89D02006EF0D6FE0000788B0900080F001950AA02006EF014F900007C8C0900080F001AB8AA02006EF0E7F800008A8C0900080F001B78CE00008CF028F80000CC8E0900080F001C0C64000092F0D6FD0000BC8F0900080F001D489000008FF0BAFF0000C08F0900080F001E209902006FF052FB0000C88F0900080F001F9C78010081F010FC0000C0900900080F0020ACE10000002332E0000000000000080F0021B843010084F0ACFF000014930900080F00224044010084F06CFF00001C930900080F002350450130
:FB29F6000084F0E8FE000024930900080F00242C9402006FF0E8FF000000940900920600A30080001419080F0025E057020073F0F2FE0000C8950900080F00263C5A020073F0C7FD0000CE950900080F0027505A020073F0BFFD0000D2950900080F0028105B020073F062FD0000D8950900080F0029F85D020073F0F1FB0000DE950900080F002A405E020073F0D0FB0000E4950900080F002B6072010082F0AEF90000C0950900080F002C386C020073F0B0F900009C9F0900080F002D2872020072F0BBFE0000A29F0900080F002E2473020072F03EFE0000A49F0900080F002F583E010087F034FD0000C4B80900080F003058BC01007FF054FB00000424
:FB2AF100B30900080F0031645F000095F0F0F9000048B30900080F003250D602006DF082FE000058B30900080F00334474010084F076FA000034B90900080F00344485030063F02CF90000A0B70900080F0035A079010083F094FF0000CCB80900080F00363CFE00008BF049FD0000D2B80900080F0037A47F010083F099FC0000DAB80900080F0038609A04000022FFF7000000000000080F0039080706003BF01CF9000044B90900080F003A20ED05003CF0DEFE0000E0BA0900080F003B58FA05003CF0D6F8000008BC0900080F003C1075060034F088FB000024BC0900080F003D5C0306003BF0BEFC0000DCBC0900080F003E0C0406003BF06DFC000060
:FB2BEC00EABC0900080F003FFCA6040051F02CFB000058BD0900080F00403441040057F028FF000088BF0900080F00410843040057F041FE00008EBF0900080F00424C66040020F046FF000000000000080F0043206E040004207047000000000000080F0044285B040056F05AFA0000E0BF0900080F0045708B0400BDFF3022000000000000080F004694F003005DF037F9000006C30900080F0047E8E103005EF0D4F8000094C30900080F0048641B030009D12234000000000000080F0049FC1B030022222978000000000000080F004AC050030067F048FA000054C50900080F004B1477030064F059FF0000CAC50900080F004CD842010088F0FFFA005B
:212CE70000DAC8090090040040810000080F004D680C02007FF027F90000BAFE0900FE0000A4
:FB84000010B5214B21480360214B2248036001F015F800242048046007F0AFFA05F04CFF06F023F906F029FD06F02FFCA9F7DFFD1A4B1B4803601B4B1B4803600F231B4803601B4B1B4803671B4A632001216AF70CF8002801D118490870012317490B7600F098F800F018F915490C6010BC08BC184700B513491448C5F77CFA134B144A136000F0C7FA00BDDD880900F0D7080005890900D4D7080098000A00641900008C000A00D1C7090020E0080090000A0071850900101D08006B040A00C8E8080064040A00E10300008C000A00018409009000080070B500200F49104B4B6114E0E306DB0E01259D4063099C0063582B43635043004C69C500521952B2
:FB84FB006801263243A1252D03AA1A1A530130054AC3009C58942CE5D370BDC046D01E0800A8030A0058FF0900002070470020704710B50B4C2368002B01D16368002B0AD108480378002B08D107488368002B04D091F7A0F92060012000E0002010BD05E0802F08009BD70800D42F0800FFF7E0FF00BD704710B5094C002323606CF713F8074B236005F030FE06F0C3F806F064F8012010BC08BC18477047C046801D08007185090000B541681C4A0A4002D006F0EDFF01E07AF7F3F800BD30B5011C2831051C77F718FB041C1FD0F0300068400703D5201C8DF744FF06E0E06980021BD40F490B681B0403D5201C00F031F813E0E869F821884310210843E3
:FB85F600E86199230B205855281C7EF7BCFE06E05023054988885853281C91F7EDFA30BDC04600803BE0B807080088240800201CFFF7C6FF7AF79FF900000020704710B5041C406805F086FA606806F03AF8201C83F7FDFA10BD10B5041C031C9A3313201870E0690006C00E0A2803D10A21201C79F781F8201C7EF745FF201C7FF766F8201C7EF750FF206877F7A8FC10BDFFF7D4FF002804D1301CC57887787CF71BFBF0BD7047000010B58278120243781A439405A40D130AFC22134000220C2B2ED1032C0FD01A2C13D03F2C25D0742C00D2F0E011D0762C13D315D0782C19D300D0E8E013E00F237748036077480260E1E002F00CFB0022DDE004F0864E
:FB86F100FD0122D9E004F0C7FDFAE704F0EEFDF7E704F065FEF4E704F0C7FEF1E704F0EEFEEEE7FC2B00D083E0342C67D04C2C4DD0B52C00D2C0E031D0B72C38D355D0C22C2FD0C32C30D0D02C34D0D62C41D0E92C00D1B0E0F52C1ED0FA2C2ED0FE2C17D0FF2302339C422BD003339C422BD0FF2312339C4230D001339C4230D0FF2315339C422FD0FF2326339C4200D094E032E000F05BF9B4E702F000FAB1E702F044FEAEE702F085FEABE702F0D4FEA8E702F0FFFEA5E702F078FFA2E702F0C4FF9FE702F016FA9CE702F034FA99E703F0F3FD96E703F066FF93E704F0B8FE90E704F024FF8DE704F066FF8AE70123394803703948037060E005F042F94E
:FB87EC0081E737490869C00158D5364A1069FF21013108431061101C517D8B0706D5FD220A40427500207AF7F2FA47E0002103207AF751FA42E0202B41D0042B36D1092C17D0132C0FD0192C10D01C2C2AD03F2C34D311D0412C12D314D0432C16D319D0442C2BD11AE002F006FA4CE702F03FFA49E700F01BFA46E704F0E2FB43E704F0EDFB40E704F002FC012218E004F060FC012214E004F087FC012210E004F099FC01220CE000F04CFD012208E0102B06D1042C03D105F0AAF8012200E00022101C10BC08BC1847084B084803607047C04690000A0064040A0068040A0069040A0008240800DC3308009D8609005CDC080000B5084A51680A7B5208000B
:FB88E700217F2A04D0272A02D100F0EAFB0121081C08BC18470000C0462049080030B5041C00293FD0012939D140053BD52EE01F4D291C1F48BCF741FE2988022903D1281C00F0D4FA22E0282903D1281C06F0D7FD1CE0232903D1FF231648037016E0222914D0281C202902D106F050FE0EE0062902D1FFF76BFE09E0042902D1FFF71CFE04E089000C4A8958D2F7BBFE0848BCF72CFE0028CBD0094B1C4003E0022901D179F7E2FC201C30BC08BC1847204908003449080074000A0008BD0600FFFBFFFF1C4A1068402101408809012250407047184A1068402101408809704710B5041C002101206DF70EFA9E23185D0121AAF70BFAE37B002B0AD1E37C31
:FB89E200042B07D0201C00216CF713F9217C201C8BF75EFE10BD00B509490868002803D0084B8362084BC3628BF7CDFD08BC18470000054B064883657047B0820E00A8050800A9890900B9890900F9890900101D0800FFF7C6FF10BD000000B5CA78012A04D0022A05D01223037004E000F004F801E002F0D1F800BD10B5041C012383730822C27310300449C4F76FFC0A23E37028340220207010BD7047C8D7080000F002F830BD000030B582B03248037E002B5FD131490B68702003401C0959D02F490B68FE20034000D00123002B4ED10020B8F710FA002849D12A490B68002B00D00123002B42D12749086880063ED426480368002B3AD16946201C9BDA
:FB8ADD00F702FD68466FF7A2F8201C9BF789FD00209BF796FD1F48002343628362009B9B089B00416B59180B011B0943631A49086819E0251F237B1E2B15D1281C71F7C4F800984308606918184308990149096161E08BC5F73AF8A083281C70F756FF281C70F755FC07E0041C20688C42E1D102E000209BF765FD02B030BD3C31080024860E0088D7080060BD080008800E0064040A00EC2C08008402080000F002F891F73DF910B5041C8168002917D00868002814D0037B5B08132B10D1E37F022B0DD10A688A4202D10023A36001E013680B60002313609BF7C6F90323E37710BD30B582B0041C0D1C68469BF773FB68469BF77DFC2368C11A20606B0023
:FB8BD800994201D9002003E04319581A2060481B02B030BD00B51C4A11681C4B4B431C4A1168C91811601B4A1368994208D9AAF75DFD184A11681848FFF7D4FF144A106000BD30B5124C104A1168104B4B432168C918216028235843104BC518104BC0184168002901D0D2F754FD236809490868834208D9281CAAF739FD064A11680648FFF7B0FF206030BD14070800710200009C000A008C000A00A0000A003C1F0800B41F08000FB4081CFFF7B4FF0FBC91F7F2FE0FB4301CFFF7C4FF0FBC91F727FF70B586B0051C0C1CC81C76F763FF061E11D0637A012B0ED8C0690006C00E04280CD0F069800209D5311C2831301C76F794FF061C02D112232B707B82
:FB8CD300E0F0690006C00E082827D30922211C6846C4F732FB02AB402058701F2098700020D870187103AB402058701F2098700020D8701871042304A94B7088702F498B8A04A9CB701B0A05A90B7048702C4B4B806946281C96F746F84EE0A878000269780843002194F76FFE283500202870306805217BF7A5FEF022905900070AD5F069000407D4637A012B04D19059FF21013108439051F0690004C00F617A884228D0301C0122111C7FF712F9002803D0F021885900071DD5134B03A90B8007238B70637A05A94B70F021885900070BD5F0690004C00F617A884205D0F02290590121C90408439051084A03A9301C81F71EFA02E0301C7AF794FE06B057
:FB8DCE0070BD48240800C70300000B0800000D790100F0B5041C051C866A2835807B9BF781FA071CA97E002911D1696849009BF72BFA00285EDD8023985D77F760F9011C0A2077F7D8FF0221A9766B68EB822B7F002B0CD1301CF36F6430002B07D1254A12680123007F8340181C134003D0201C74F789F83EE002293CD11F490B681343184037D17808EB8AC01A0004000CAB8A98422FD30123AB76638C1834688A834228D02B686433187F77F729F9B030C17B037C99421CD22668207B830702D501239B065E40EB890F1C5F43298A381CC4F784FE011C301C9BF7C0F9391C75F780FC381A698A4318D81B801975F779FC288201236373F0BD342D08008C3B
:FB8EC900D70800FFF788FFF0BD0000F0B54768381C74F747F9381C77F7F4F8041C81F7B4FE00280FD1E269D00B21210840202809D11006C00E072805D8201C82F742F8201C7AF7EFFF164D0126BE40F743A8883840A88013490B78002B05D0002803D11049087081F78FFF0F49088843070DD5E88906400AD03840E881E069C00205D5FF201130215C201C7EF7ADF907490B68DB0403D55C34208881F7F5FEF0BDC046FC4A080018D80800C8D70800B807080000B50B4B0B49087A185C0B490B68002804D0012080030343012002E00748034000200B60A9F795FA04230549CB7700BD44BA060054300800808B0E00FFBFFFFF0C2D08006DF736FAFFF7DAFFD1
:FB8FC40010BD0000F0B5061C0F1C93300078002803D00B795B08072B24D17AF754FD041C0C301422391D051CC4F7AEF97268002A03D0291C301CD2F773FB3368E3770023A37726490868002804D00368236004600C6001E00C6024600121890420480022BCF7DAFDF0BD70B5061CC069C0021AD5341C9034E078002817D1002915D1301C7EF704FB051CB66C002E0BD0A0880C214843144941431448C4F788FD011C301CBCF797FBE570012000E0002070BC08BC184700B50D48072106F034FF0C48BCF79CFB0C4A1368002B00D00123002B01D072F7E5FA8B230848036000BDD0D70800181F080071020000D43000003C31080004D8080014340800EC8A0E72
:FB90BF0000FFF7D9FF00BD000070B5041C7AF7DDFC061C051C15494868037BDB07DB0F5021194329730C3508220D30011C201C3430C4F72CF9201C90F7CBFCE0690121C9050843E0610006C00E082802D2201C7DF774FE08220649681CC4F718F9311C201C90F77DFA201C7BF78CFA70BD20490800981E0800F0B5041C7AF7A7FC061C051C704F39680B7BFE201843287304236B738B7BAB730223EB730C358A7B0C31002A0DD108220431201C3430C4F7EFF8E0690121C9050843E0610822634919E0012A19D108220431201C3C30C4F7DFF83868C27BE82319590720000681435007400901431951E069012109060843E06108225649281D16E0281D022AE6
:FB91BA0016D1FF221232A3180A791A70C9784907490F08230B43E8252A590F2109068A4319060A432A5108224B49C4F7B2F802E00821C4F7C2FB311C201C90F713FAF0BD70B581B0041C404D2968887B0C31012817D108220431201C3C30C4F79AF82968CB7B0C31E82632590720000682435807400902433251E069012212061043E06113E0022811D1FF201230231808791870C8784007400F08230343E8252A590F2000068243180602432A51E0690006C00E082808D30B1D0093CB788A78201C002194F72DFD13E08B78012B0DD1E8210859000109D460584001400F022804D3201C02217BF756F902E0201C7AF7D6FD01B070BD70B5061C0C1C7AF7EAA9
:FB92B500FB051CF1690904C90FFE22114301730323437384730223C3731030002C04D108220C49C4F738F80CE0012C02D108220949F7E7022C02D108220849F2E70821C4F73EFB291C301C90F78FF970BDC04624490800981E0800A01E080090000A00FFF70EFF7BF78FF8FFF76DFF7BF7BBF8FFF7C2FF7BF73BF970B583B0051C0C1C08790002C9780843012176F77AFC061C2D4A03CA0190029102D033680B2B01D9122303E0B36B002B02D41A232B7048E0A878000269780843297894F754FB2835002028706179002913D1F269100210D5D00103D4E822905900010AD5E82188594001331C34330093430F301C0022111C21E001290CD1F069C00109D5BE
:FB93B000E82188594001331C3C330093430F301C012211E0022913D1321CE832106800010ED5FF201230305C01901068400101AB0093430F301C0222002194F775FC02E0301C7BF7ABF803B070BDC04678FF0900002801D090F714F8281C211C00F002F890F727F810B50C1C0368002B0AD18FF71BFD002806D00121207F8140024803688B43036010BDC046342D080000B501F08FFF244B24490B60244B25490B60254B25490B60254B26490B60264B26490B60264B27490B60274B27490B60274B28490B60284B28490B60284B29490B60294B29490B60294B2A490B602A4B2A490B602A4B2B490B602B4B2B490B602B4B2C490B602C4B2C490B602C4B2D71
:FB94AB00490B602D4B2D490B602D4B2E490B602E4B2E490B602E4B2F490B602F4B2F490B602F4B30494B6000BDED95090054DB08008B96090048DB0800739709007CDB0800F39709004CDB0800079A09006CDB0800119B090084DB08008F9B090064DB0800359C090068DB080011AD090028DB080039AD09002CDB080055AD09001CDB080007AB0900BCDB0800A3B20900F8D708006BAD090034DB08000C000A003C06080038000A004006080025A90900A8DB0800C7B00900D8DB080017AA0900B4DB0800739C090074DB0800BB9E090044DB0800EB9E090090DB0800CD9C090070DB080095950900F801080010B5041C6BF757FD237D072B01D0082B06D124
:FB95A60090340021C94321603A2302490B7010BC08BC1847C046EC01080000F082FC7DF759FE00F05EF800BD8CF737FA00F0CDF800BD00F0F0F830BD00F084FA70BD00F08FFA00BD000030B5AA4C002503E0281C8CF793FE0135A74801788D42F7D3A64A1068002803D006225143C4F7B0F98EF762F9A24A1368D80713D5191C5806400F02280ED19F4D286802231843FF2331331843402398432860490702D5802101432960002398490B7098490B705088C0109749086097490B702378002B08D1012323709449954800231A1CBCF786F802E09248BCF7A1F800239148037030BC08BC1847704730B503685B018D49CD18041C00F019FBE069000403D42061
:FB96A1001C00218CF721FC20687BF7CBF9201C00F080F8E0690006C00E0A2817D1012120688140814803688B430360201C72F7CEFEE069F821884340210843E061206882F7E0FB201CA030042106F0FDFBE069F821884318210843E061F02108590721084340218843F0210851206801218140CA436F490B6813400B606BF704F9211C281C002301228FF7E4FAE069000403D468480378012B05D05C23185B002101F0A8FA01E000230370201C80F774FE60490B68002B08D160480368002B00D00123002B01D06DF773FA012030BC08BC1847704770B5061C051CF4352C68002C0DD114209AF7C8FB2860002810D0321C53490023BBF7F5FF2C68002C08D080
:FB979C00504A11685048C4F7E5F9011C201CBBF7F4FF70BC08BC184700B58CF794F900BD10B5041CC16909040CD50068002101F06DF9464908788307DA0FC107C90F201C8CF7C7F910BD00B513225C300188002093F7F7FF00BD70B583B00D1C041C00F0C3FB201C8CF71CFBF0210859C00700D4B2E0002D00D1A9E0E069000413D53449087800070FD5CA79002A0CD0F0210859C003000E031C134005D1002803D05C23185B94F79CFC201C6BF73CF9E069F822904340221043E061F023185904239843F0231851201C90F716FA206800216BF764F9E0690004C00F40D110490B78002B3CD01C490D781C49CA79131C2B4035D1002A33D0002D62D130E0C0C1
:FB989700462F040A00040608003CDB0800E81E0800B01E080040DB080041DB08001C060800A1DB080065550200A4000A00B0030A00E02D0800C8DA080088D7080042DB080080380800D7540200ECFF0900D430000030040A001FD40800A2DB080010D40800F0210A5912030BD5002818D1BC4B69460B8007238B70BB4A201C80F775FC0EE0251C5C35298800231A1C181C94F7B7F82888002101F0C3F9201C00F013FA0023B1490B70E069000406D5F0210859FF225202904308513EE0AC480370AC48037039E00123A8480370201C00F0FBF932E00859400302D4201CFFF737FF201C76F7F1FCE269012000068243E261E06C40004008F026335908210B43E0
:FB9992000D04AB438D03AB433351E42633594D06AB43335198263359AB43335103239B069843E0641204D20F281C002A01D12B1500E0802391490B6077F7C1F9012003B070BC08BC184710B5041C9A231954C0690006C00E0A2803D10B21201C77F7BDFE201C7DF7A5FE201C7DF78FFD206876F7E7FA10BD10B5041CF03000680121C9048843F022105100237D4A137040062ED5E069000414D48BF7D8FE206801218140CA4377490B6813400B606AF773FFF0210859C0071ED4FF21201CFFF7C4FF19E071490B7871490878834210D2206801218140CA436B490B6813400B606AF75AFF69480378591C01708DF7E0FA31E0002365480370E069000403D4F01E
:FB9A8D00210859400327D5F0210A5910060ED5101C0C218843F02210515E4A1168042093F7CFFDFF21201CFFF790FF14E0101C012189048843F022105108215C23185B01F0F3F8F022105904221043F02210510821201C7DF7E5FB10BC08BC184730B5051C4D4C4D4A11684D48C4F73BF8011C201CBBF74AFEA56030BD00B54648BBF758FE00BD10B5041C00233E480370002933D1F0221059802188431051031C0007800F19D00C218B430121C9048B431351201C8CF77DF9F0210859400303D4201C002193F78CFFE069000405D4201C28308CF73CFA8BF73CFEF0210A5950030CD5101C012189048843F022105113215C34208801F09AF8012000E00020A8
:FB9B880010BC08BC184730B5041C0D1CF0300068400629D4002927D0F02108590007800F012821D12B7B5B081ED01F490B78281C002B06D09AF7C1F95C34208801F0CCFD10E08CF7D0FB00280ED0F022105902229043F0221051281C9AF7AFF90821201C7DF761FB012000E0002030BC08BC18470B0800000D79010042DB0800A1DB0800A2DB0800F066080040DB080088D7080018DB0800FC05080014060800A4000A0010060800D4300000B0030A00F0B5151C0C1E15D0F0310968490711D5B14A16782904090C8FF78AFA0127002E03D0281C01F082FD05E00821201C7DF724FB00E00027381CF0BC08BC184710B5041C081C8CF736FC002821DBA3490BA6
:FB9C83007898421DDA211C5C310C880C225043A04B1A6882185078000212780243944206D09C480123A340DC4303682340036099480123934004681C4304600A80012000E0002010BC08BC184770B590490D78041C28308CF707FC002812DA00200CE00C2141438B4B1A688A18517809021278114301D1051C04E0013084490B789842EEDB824803789D4224DA0C235D43211C28317F4E3068281802300622C3F715FB306829185C20005B0870000A4870081C08308107890F01D1006808E0401AC9000268CA402023591A406888401043211C8CF771F970BC08BC184710B582B0F02319580122920491431950041C28308BF728FDE06900041CD48BF72FFD81
:FB9D7E0098210859C00020D5E06C64498843E064644B69460B8003238B705C23185BC870000A01A9087001234B705E4A6946201C80F727FA09E098210859C00003D5E06C57498843E0648BF743FE002357490B70A36B1B070AD5E069000407D454494B681B0503D5201C01218CF780F8E069012189058843C9018843E0619C340020207002B010BD30B5041E35D0021CF0321068C00847490840013988422CD14648437E002B15D08069C00325D5116848030AD5081C012189048843F022105108215C23185B00F039FF0821201C7DF731FA12E010680121C90488431060251C5C3529880022101C93F718FE2888002100F024FF201CFFF774FF30BD10B5827A
:FB9E7900B0041C00230193C069C0082C490840042814D16B4601AA211C4C31201C283096F7FCFE002806D0019B002B03D0201C79F724FE03E0211C002076F787FF02B010BD00B58DF7B7F9012008BC1847000010B50124201C76F7FDF8C1690906C90E022902D313217DF7E6F901340B2CF1D910BD00B59A23082119540023114A13608CF70FFB104B0F4A1360012008BC18470000C046B0030A000406080038DB0800842408000000000C130400004D84010040DB0800981E0800010001003C3108001F10000090DB0800EB9E0900F0B5061C0F1C134C0025B44210D0E169C8020DD50806C00E022809D3391C201C2830062205F0C6FF002801D1201C06E0F3
:FB9F7400FF231533E41801350B2DE6D30020F0BD00B5011C2831FFF7DBFF002801D07DF706FA00BD383D080000F05EFAF0BD00BD041C8DF7C6F90000F0B5051C061C037D022B39D1807B9AF79AF9041C2F1C1837A6490B685800844201D3201A02E0031BA348C01AA34A1368698C49005918884207D90123DB06984203D2012000F04AFD1AE0281C6FF781FE002815D170363078042811D03B685800844201D3201A02E0031B9348C01A431F9348834204D201237B73281C6DF717F8F0BC08BC18478F48C3880360704710B58D4CA0892189884203D36068884200D9081C2080208889494143894A1068000A0430C3F787FD874A11680818864A10609EF71237
:FBA06F00FC011C0320C3F798FD638921898B4207D981490B68984203D1411C0320C3F78CFD7D49086010BD02234377C368012149020B4380210B43C3600023C37503680B4303600123837770476E49037D022B07D14868431E00D34B600888431E00D30B807047F0B5041C6D4D6D4A106876F76CF8286068688021884368606A4AD0782862A37B694A1360694B634A1068185C0843674A1060261C606E2864A06E603615218906084368647078012819D16148416A002902D1836A022B09D9032904D1836AFF203630834202D2201C6DF796F8301D8CF7F6FA0023584A13601320082147E0022847D1686C0121C90608436864534B534A1360534B544A13606A
:FBA16A000123534A13608CF746FC002805D050480368042003434E480360201C00216DF717FF4C4A10684C490B1C4343591821624300581CA081E36C78208343182003431F2080028343032080020343E364236D434883436322134323654034A389404A1360238A5360EB23DB00344A13608CF712FB012028216BF704FE3A4C0027E0577CF7C7FD03061B0E384D2868000A000218432860E0577CF7BCFD0006010C2868334A104008432860F0BD30B5041C051C61352878012803D102232B7055230FE0022861D12B490B680120C00418600D490B68002B09D0FFF7FBFE01232B703223A374201C6CF704FF4EE0201C6CF7B5FC0423204941E000000A0000C8
:FBA2650000001008000A00FBFFFF07F4FF0900F0FF09007102000024060800340608009C830E009CDB080000820E001406080019D4080000830E0038060800A4860E00EC2C0800F8800E00447E00008C800E0040C07DC0D4890E0098830E0020060800E2040000F81F0000CC8A0E009603080004830E00FF00FFFFEC300800F06608000B60980676F732FD012000F0CBFB30BC08BC184700B5002902D1FFF7E8FE14E0022907D10123A9490B604030407F74F7FCFB0AE0052908D10023A4490B608DF72BF9002801D18CF743F908BC1847000030B5041C6034A378591CA170051C6BF779FFA378281C032B13D90023A37098490B68002B08D16CF733FC042302
:FBA3600095490B60980676F7F3FC08E0012363706CF773FE03E0022363706CF78CFD30BDF0B5071C051C60356B78022B28D18B48046804380668E3071DD473031BD5600319D50720C004204015D18CF729FB002807D17306180F03280FD1A305D80E11280BD17F488DF76DF8002806D00023AB7003236B7004E0E30702D4381CFFF7AAFFF0BC08BC184710B5041C011C61310878032823D17349086875F768FE002808D06F4B1A785207520FC169072399431143C1610223684A1360D80676F799FC606EC3436366674A106875F7C6FE211C64316CF7C4F8201C6CF7C5FB0CE0624A1388002B08D1012806D102230B705523A374201C6CF702FE10BC08BC18E3
:FBA45B004770B5041C837B5A490B60012359490B6059490868400705D5564803680420034354480360554D564A106875F797FE2860686880210843686052480168C94361674368A3672964A06F6904084368647023185D022829D0042850D14B4A1368180A4300D91C494A1160031F494A1360494A1160474A1368484A13600023474A1360606FA861A06FE86145484178CB0101781943807883030B4351070B43414A13601021081C6BF774FC28E0686C4900084368644923384E33603B4E336880200343364E3360282112206BF762FC374C002020567CF725FC03061B0E354E3068000A000218433060002020567CF719FC0006010C30682F4A1040084342
:FBA55600306070BDF0B5021C2D490D682D490B8859088D4200D8291C2B4F3B68C918041C7034667873438B4213D96B005384252101230B540423237034239374002363706CF760FD202306480360D80576F7D5FB01E06CF757FDF0BDC046F0FC0E00F4FF0900F06608002C8B0E001FD4080014060800F0FF090000830E0098830E00E81E080000820E0008060800544B0800240608002C06080030060800108B0E00148B0E00A4860E0038060800009A0E007C6708009603080004830E00FF00FFFF1C060800F8FF09002006080030B5051C041C9E49086875F74FFD002809D0C1694907490F9A4A1078072290430843984A1070984A1068430E974A13609479
:FBA65100488CF753F87023022058554C23A374934A13685B006384183401236373A87B99F73FFE80084300981C4101490921606089C3F791FA2081281C6CF704FC30BD10B5041C70342378022B27D1854B1968043B1A68CB0717D4530315D54B0313D50723DB040B400FD153061A0F032A0BD18B05DA0E082A01D00C2A05D17A488BF79AFF0323237009E0CB07637804D4591C61706CF7BAFC01E0591C617010BC08BC184730B5041C051C704A1368704803401360704A1378002B06D140236E490B60980576F71DFB3DE04B071FD57023185D042837D100F09DF9002800D0012000F0ABF966490A78664B1888431E201C9A4204DA531C0B706CF7A6FB23E0A9
:FBA74C0000230B70183501236B736CF780FC1BE08B0704D570352878022815D10DE0CB0712D57035287802280ED306D0042808D30AD1201CFFF74EFF06E0201CFFF7E7FE02E0201C00F066F830BC08BC184700B5021CC37B4B400BD070321178022904D0042909D18CF7FEF906E000F008F803E0503200231372537208BC1847000010B5041C414B41490B6033488BF791FF0723DB013F490B60E36D7F208343182003431F2080028343032080020343E365236E384883438820034323665034A38936490B60238A4B6010BD70B5344D2B68FF2B1FD0264E3249301C062205F067FB002817D1286875F74CFC041E0DD0C069C0020AD5301C75F794F900280578
:FBA84700D0844203D0FF21201CFFF7C2F8FF232B6025486CF75AF970BD10B5041C1023184A1360180676F770FA204A13685B006384252001230355211C703104230B7000234B70201C6CF79AF910BD00B58CF740FB08BC18470000C046080608001FD4080098830E007C670800200608002C8B0E0010D4080018800E00FFF0FFFF33D40800F0660800B1030A0004000A0040C07DC0D4890E00F8800E00F81F0000CC8A0E001406080019D40800806708001C06080010B5037D0A2B0ED1874C884A106875F757FC20606068802188436060844AD0782062FFF78EFB10BC08BC1847F0B5814C7F4E301C75F71EF97C4D002802D0C16909041BD4012075F7A8F964
:FBA942002860FF2801D1002061E075F7BEFB5C230122195A8A407549CB6F1343CB672B680360C16901221205114352111143C16101E003682B60C169F822914318221143C161F022115804221143F0221150311C28300622C2F7D9FC01236548036065480370FFF745FB0123E374634F3968201C6BF7F4FF21232374022363743223A374201C60300023037001234370002383702362286875F7EFFBA0730123E373211C6431301C8BF79BFE286875F7E4FB211C64316BF7E2FD201C4030FFF74BFB3968201C6BF7F5FF002000F03DF80120F0BC08BC18470023494A136049494A4848674A4A13600B68494803400B600023484A13605360484A1368484A139F
:FBAA3D0060484A1368484A1360484B484A13604923484A1360484A1068400702D5354A10688862704732480368002B00D00123002B09D0007D002806D0072801D0002000E00120002800D0012070473121002800D0342139488174704700B599F71AFE430818335B089801400900BD30B50D1C69F75DFF041E14D0002D0BD06023A3742F4A1370807BFFF7E8FF011C201C6AF755F806E090340021C94321603A2328490B7030BD30B5041C0D1C022D06D1807B99F701FC8308580022490860291C201C8CF7ECF830BC08BC184700B500231E490B608CF7E0FB1D4B1B490B6008BC18470000C04600820E001406080019D408008067080008240800F0660800DA
:FBAB380033D408003C060800F8800E0018800E00447E000098830E00FFF0FFFF40820E0060140800D08B0E005C14080094830E0040C07DC0D4890E00148B0E00E81E0800F4660800EC01080000000A00BCDB080007AB090030B5051C041C01235B4A137008790002C9780843191C75F748F8002802D112232B7017E05C21095AA173090AE1730834EC300068211C08318A07920F01D1086006E00870000A4870000A8870000AC8700623EB7030BD0123474A1370474A137883730123C370283002210170704710B581B0041C42498B690093022383730422C27310306946C2F79BFB0623E37028340220207001B010BD30B5051C041C0123354A13700879006A
:FBAC330002C9780843191C74F7FCFF002802D112232B700BE05C21095AA173090AE173F03000684007C00F20740323EB7030BD30B5051C0C1C08790002C9780843012174F7E0FF002806D0F0300068400702D50C232B7003E0211C281C93F798FD30BD30B5041C0D1CFF20062192F760FC002807D016238370C470210A0171457192F7DAFB30BD30B5041C0D1CFF20062192F74EFC002807D018238370C470210A0171457192F7C8FB30BD30B5041C0D1CC81C74F743FF002806D0F0210A58520702D50C23237003E0291C201C93F7BBFD30BD7047B0030A00B2030A00981E080000B54068F0221358990305D5191C012252049143F0231950FEF7AFFC002384
:FBAD2E0024490B7008BC1847000000B54068002806D0F02319584022114319508BF70BF808BC1847000010B5041C03218AF709FB201C8AF78FFE10BC08BC184741781548042902D0CB001448C018704700B5F0221158490719D5002311490B7011494A68C1690904917B0AD5CB07DB0F8907C90F490019430C4A11708AF72EFB05E08B07DA0FC907C90F8AF7DBFE08BC18470000C04640DB080064000A005CCB060018DB08002049080030040A0070B5041C0D1CF02250580121C90408435051E069F8218843E061261C5C36308875F793F820233380291C201C75F719F8291C201C8EF79CFF286875F7DEF870BD70B58CF700FAB74E306879F70FFEB6487460
:FBAE2900F7A0FE041C306875F74CF9051C002C0AD0F02210590422104340218843F0221051201C8AF78AFF002D07D0002C05D0A54203D0FF21281CFEF7BAFDFF23336070BD70B5A44E301C74F77CFEA14D041E09D0C069000406D4286875F723F9211CFFF7A6FF05E0F02210590121C90488431051286875F716F92B680360FF232B60311C041C8AF7FDFCF022105940210843105105F025F8012321688B408F4A11681943116005F024F8206869F78EFC206869F747FD9423195B69F765FE20680121FFF7DEFDE069F821884310210843E0612068012169F71BFE201C8EF774FE201C8AF775FF8CF787F970BDF0B582B00026FFF77CFC01237A490B707A49CD
:FBAF2400086875F7D1F8051C784874F71DFE041E54D0C069800251D4E0690006C00E032803D0201C7CF72BFA48E00126F021085903210843F0210851E069000405D5211C281CFFF737FF2C1C4BE02F1C5C3738885C23195B884201D074F7D1FF29680191E9694807400F0090201C8AF750FF201C8AF7A5FD201C00F09EF9FF221532211C281CC2F7D1F9019B2B60E8690722904300990843E861181C8EF773FA206875F706F83888331C83405148C06F18435049C8672C1C281C8EF708FE12E04A4B186875F772F84949041C28300622C2F7ACF9F023185903239843F023185120688EF750FA4249201C8AF74EFCF0221059402108431051201C8AF7ECFE2069
:FBB01F001C8AF7F1F904F070FF012321688B40354A11681943116004F06FFF206869F7D9FB206869F792FC9423195B69F7B0FD20680121FFF729FD002E05D1E069F821884310210843E0612068012169F764FDFF23264A1360284A1378012B03D027480368012B01D18AF7D1FC02B0F0BD10B5204874F76CFD041E15D0C169F822914320221143C161002179F73FFA201C002179F796FA1A480368012B04D1E069000401D48AF7B3FC10BD00B515490868042802D1FFF7A2FE42E0022802D1FFF7C6FE3DE080281FD1064874F741FD002836D0C169F822914328221143C1612FE01406080019D4080088D7080040DB08000806080010D4080008240800B20374
:FBB11A000A00D4DB0800F0660800202819D0102802D1FFF7F1FE14E0FF230133984202D1FFF7A7FF0DE0402802D18CF7C5F808E001235B02984204D05B00984201D18CF74FFB012008BC1847000010B5041CC069800204D5201C002179F717FA1FE0E0690006C00E08281AD2F0221159090703D5201CFEF773FE12E0E169090409D4201C78F737FEE069F821884328210843E06105E0042803D1211C002075F706FE10BD30B5051C4D4CF0300068000709D4A069C00302D4607E002803D1617E281C92F747FCA069C003C10F281C01227FF7F6F8281CFEF709FE30BDF0B50223404A1360C5696D076D0F0668E92301221A541A1C0F1C041CC2F79DF82A223976
:FBB215001CEA31201CEA30C2F796F8211C00238B6448312660E069072290432843E061FA69D213531C0122D2039043DA07120C1043E061F0200059000307D42A4A1088888108829423294A10881853E0693F2109028843092109020843E061E4221059072109068843012109060843105198221059400F0021002800D10121301C7FF737FFF0BDF03000680003C00F704730B5041C0C2813D2081C78F7CAF9051C4068C0010CD5201C79F725FC002801D0002006E06868C00102D5201C79F7AFFB012030BC08BC184710B5041C806C002806D0BAF76BFAA06C98F72AFE0023A36410BD3C3108001C4908005A0308005C0308000FB4201C291C00F009F80028CE
:FBB3100002D00FBC80F7A5FC0FBC80F7B4FC000070B5051C0E1C0024006874F745FF7168884207D1E869C00204D5F02148594007C017441C201C70BD002803D1102E01D06AF715FE6AF708FE00F014F8F0BD00000023B34803702023B24803600023B2480370B2480370B2480370FF234133B14803607047F0B582B0041C0F1C00230193081C74F79BFE061CC069400409D56B4601AA311C4C31301C283095F773FC002831D0032092F7E0F8051E2CD0381C74F779FFE8725C239F5B311C2831681D0622C1F7BCFF2006000EA870EF703F0A2F7198218959C900C90F2973011C301C8AF737FD012803D1281C98F7A3FD0BE0281C92F732F8AB78002B05D18FBF
:FBB40B004A506F012109048843506702B0F0BD10B5041C8B4A1068C00702D41123237039E00123834A137008790002C9780843191C74F7FBFB002803D0F0221158490701D51223EBE7C169090403D4EC210B589B0612D57B4B19684906490FEC2212589207920F914208D177490B78002B04D1021CF0321168890301D50C23CFE7012371490B702834237011685A041143F022115089F78BFF10BD70B50123654A13708A7B002A01D1122346E0654CCB7825680120002B0CD00543256063480668FF2333331E4306606D0709D58023334305E0854325605D4803685D4D2B4003605C480B7903704B7943708B7983705A48CB79202B02D1594B186002E05848EB
:FBB50600402BF9D0487A00020B7A18434010474B1860C0006080C87A00028B7A1843514B1880487B00020B7B18434F4B18804F480280CB7B4F4803700B7C4E48037070BD01233C4A13703F4A11681940817341490B78C3734B7803748B784374404A1168090A8174324A11684900C174090A01753D4A11884175090A81753B4A1188C175090A01763A490B88437639490B78837639490B78C3760E23C370704730B5051C0C1C0123244A1370031C283301201870254A10684006400F022810D1FFF74EFA00280CD020790002E1780843012174F72FFB002803D0F0300068400702D40C232B7056E0002324480370FF2324480360611D23480622C1F7A6FE8B55
:FBB60100F71DFD002805D10C232B7000231048037041E001230E490B70601D74F7A6FA002839D0F02319580122920411432DE02F040A001C060800B2030A00B0030A00B1030A0008000A0088240800E81E080040DB0800B01E08004DFEFFFF380608001E200000240608003A400000FAFF0900FCFF090004000A00A1DB0800A2DB080032D408001406080019D408000822914303231943F023195030BD70B5051C0C1C0123374A1370031C283301201870FFF7D8F9002801D10C2305E0E01C74F756FA002802D00B232B7035E0FF232D4803602D4EE11C301C0622C1F738FEE11C301C0622C1F733FE294908684006400F022821D18BF7A4FC002805D10C23DA
:FBB6FC002B7000232348037017E0012321490B70E01C74F72DFA00280FD0F02319588822114303239943F0231950A17A0902627A1143194A51405E30018070BD00B50123104A1370C878002804D014490B708AF76EF906E011490870002311490B708BF7BAFD00BD10B5041CFF20052191F7FAFE002806D039238370C470210A017191F775FE10BDB0030A001406080019D40800E81E080040DB080006330000B2030A0018D40800F0B581B0374805683748066837480378002B64D136480368AB420DD135480368B34209D134480368DB0305D533490B6833490868834252D0324C334FFE2028400BD1002D03D02C480368DB0305D5002E20D029480368DB20
:FBB7F700031CD463681B071B0F022B02D0022099F7B7F828480078606327480078A06364F719FD04F085FB822141432068642250436430C2F7A1F9431C3B6018E063681B0702D0002099F79CF800206063A0631B4A136800931A4A1088392109014143181CC2F78AF9386017490098C2F785F9164908603868A06108490D6008490E600A490B6808490B6001B0F0BDC04688D708007CE0080084D50800B8DD0800CCDD0800D40A080098000A00080608000C000F00C877080085D5080086D50800D0310800BC0A080020CF01009C000F00FFF74EFC78F7E8FAFFF775FC30BDFFF78EFC74F7F6FA0FB4FFF7DCFC002803D00FBC00207CF7A8FB0FBC041C436BF9
:FBB8F2007CF759FB000010B5041CF0300268500316D5101C012189048843F022105122215C23185BFFF7CEF9E069F821884340210843E061F022105904229043F022105110BD0FB4FFF7DFFF0FBC041C011C7BF782FD022B05D0C6F72CFC00F01DF800F030F800F008F8024900220A70C4F7DDFEC0461CF2080000B51A490868002806D11948ADF70FFB16490860002803D01549C1F7F7FF012000BD10B5134C2068002805D11048ADF7FEFA2060002808D00D49C1F7E7FF2068753001210170C8F789FD10BD00B50A490868002806D18C20ADF7E9FA06490860002802D08C21C1F7D1FF00BD040109009C010000FC0009000001090010B5AEF7F6FE041C0442
:FBB9ED00D103490C620020AEF7CDFF201C10BDC8E80800F0B582B001900091171C0020051C254E3468002C12D0246863689B68002B04D03A1C00990198CFF75EFE33689C4202D00028F0D001E0002800D0251C281C02B0F0BD70B582B0FF230193002401A9061CAFF772F9051E21D0006800280BD043689B68002B07D0019A291D1631301CCFF73AFE041E0AD101A80278291D1631301CFFF7BEFF002809D02860012400230093291D1631301C1A1C00F006F8201C02B070BDC046C8E8080030B50C1C051CC3F7CDFD002805D1281CC3F77AFD00280CD004E0064A116C4B1C13648160211C03D01E300322C1F73AFC012030BD7CEB0800311C201C00F002F876
:FBBAE800C3F73BF970B50E1C041CFFF7A6FF002809D10220CBF73BFD00281CD00F22211CC4F7ADFE17E00C4D211C9120000128180622C1F717FC201CC3F794FD002801D0061C1E36311C054828180322C1F70AFC201CC5F70FF970BDFCE8080016090000F0B581B0071C0C1C151C00210091012802D0002803D021E0A5F793FE01E0A5F7A6FE2548031CEC3347331B78032B01D20C203EE0002C00D11224002D01D10125ED02012F0ED1231C123B1C498B4205D22B1C123B8B4201D2AC4201D9052028E002220092FF233D33C618B3889C4202D1F3889D420AD00220CBF7D9FC002817D0B480F580221C291CC4F76EFF0220CBF7CEFC00280CD03388002B03AB
:FBBBE300D0009901221143009177800099C4F758FF002000E0032001B0F0BDC046FCE80800EF0F0000FFF79EFFC3F783FF03488181C28170470148018242827047C8E80800291C221C00F002F8CBF7A2FCF0B50C1C4F235B01D518AB799C4204D11EA12448CBF73AFE36E0071C161CCBF73EFC2CE028198078012383402988194022D11D4973180001C1180B89BB421BD388894B89984217D20C6822680A60002A00D14A60013088818889CB89984200D9C881CBF71BFC01236371A37100232360E371201C083008E001342406240EAB799C42CFD3CBF70AFC0020F0BD6765746275663A2053697A6520697320746F6F2062696700F7FF000078090000012183
:FBBCDE00CBF732FE00F007F8C4F73CFB00F00CF8C4F79AFB000000B51348036C002B02D11248A5F774FB00BD70B5041C0D1C161C0F480378022B03D10E4803689C4211D00A480368002B02D11421A5F75CFB211C0948CBF762FEA582B300E360211C0548CBF729FE70BDA4F2080020F208006CD7080000E60800E4F20800041E04D000F008F8024DAEF7D1FCAEF7D7FCC046C8E8080010B5041C1148C4F7F1FC1149201C98F716FF201C10BD10B5041E01D5ADF7A8FB07200007204002D0201CAEF7E4FA07204006204006D0AEF7D9FD002802D0201CAFF703F910BC08BC1847C04687BD0900CCE8080000B5ACF79BFE00BDF0B585B00D1C0B1C08338988CE94
:FBBDD90018242141435D4800684018FC30071DB87F4306DC0F002301930322584902A8C1F7A8FA0322574902A80330C1F7A2FA01AA2237397854480068AEF762FD00283FD10198C17D0B02817D1943007E03041943081C02AF79780B0239781943BA781304194303AF3A78130202AFFA781A4303AF7B781B041A4310401140884220D103224249B81CC1F775FA0322404904A80130C1F76FFA3F480378022B11D1311CB81C032204F03CF8002807D0311C04A80130032204F034F8002856D103F0AAFF53E0354A5088C10403D43078431E012B4BD8002C22D00120A5F7AFFB002819D12E4C2F49087883001859002809D02D4B19780022032900D04A1C2A493D
:FBBED4000A70CBF776FB274A107883001D510021032830D0411C2EE0281CA9F712F926E0224843786A46033269460231144C20686830002B0AD10136AEF709F86B469978D878814213D2301C03210EE0ADF7FFFF6B469978D878814209D2154A1178301C4B0701D5A97800E00421A8F7E4F8281CCBF73FFB01E00B48017005B0F0BDC04600E6080080FF090083FF090040E6080086FF090089FF09006CD70800101608002CE608002AE608001CE60800941708000CE60800FFF720FFF0BD00F003F8A8F7CBF9000030B5051CAAF7DAFDFF281AD0242444430C490B68FC3318190430C37F022B0DD121300078CAF7E0FD064A1368FC331819031D987F41060155
:FBBFCF00D500F03AF8281CAAF7D8FD30BD00E6080002490868FFF7FEFCA9F7A0FD40E6080020B581B0151C00232B600178172913D00E2917D10E4B6A461978117059785170C11C901C0222C1F799F96946881C022203F06AFF002805D1064A5088810401D501232B60002001B020BC08BC1847C0468CFF09001016080010B582B0082216496846C1F77BF9154C154803796946A01C002B09D1082203F047FF002819D008212170002060700DE02278013A03F03CFF2378002802D06078191C03E0092B08D001200921A8F725F808226946A01CC1F755F902B010BDC0468EFF090010E6080094170800F0B583B002900F1C161C099D6B8812331804000CCBF756
:FBC0CA0008FA041E1CD00A2383806A8842802B1C0833A988C9181230C1F733F9019408990091321C391C2423029843437A480468E418FC34231D213318780023CAF799FD03B0F0BDF0B582B00C1C0B88012B04D1097A60220A40202A01D00320D8E0667AA57AE77AA3880833A3806388083B6380211C0831ACF747F82080032814D12B1C7D3B032B10D2092E07D1231C0833A088C118281CA9F747FAB6E0012E00D0B3E0281CA9F780FAAFE00B2E00D9ACE05A4B9E5D012808D30DD003282BD34FD0052859D300D0A0E07FE0ACF77DFCFF2800D19AE048E06388002B3BD050494318DD70012D03D14F48A5F71CF903E04E4A5088410502D5A5F71CFA01E0A57E
:FBC1C500F715FAA8F719F8ACF760FCFF287ED0474A11780A077AD548E06388002B1BD0404D4319DF704048A5F7FEF8ACF74EFCFF286CD02979012952D0002967D1002F65D07D21490179433A48C1F7AFFC011C3548A5F7E5F85AE032494318D91C0122002052E0ACF749FCFF2850D0019400953A1C311C0023FFF73BFF48E06388002B23D028484570012D03D0284A5088010502D5A5F7D8F901E0A5F7D1F9ACF72DFCFF2834D0224A11784B0730D50023019300933A1C311C194D2D68FC3504352426704340192130007819E01B491BE06388002B17D013498F70ACF70FFCFF2816D00023019300933B1C311C0C4A1268FC3204322425684380182130007830
:FBC2C0000022CAF7BBFC04E00D490122101CA7F7A7FE201CA5F7ABF8012002B0F0BDC04600E6080096FF09009417080044E60800101608000CE60800D43000009517080096170800704700F001F810BD10B51B4908680B2801D103202FE0032803D0052801D0012029E016490B681868002813D014480378002B0FD1A0F7FBF902280DD111490868800007D410490868002803D00F490B68984201D1032400E0012407480368052B06D19CF741F8032802D104439BF7BEFF9CF70EF8204310BDF4DB0800C00A0800D5DD0800C41E080088D70800C8DA08004B1E05D323700FB402208CF7D7FA0FBCA1F723FFF0B5051C0E1C8B781F1F3F063F0ECC78087903F0
:FBC3BB00021C43487903041C43887903061C43230E1B06FF20000683422AD15A4A10787021031C0B4004D19AF72DFA00283ED002E00140402905D1F21D391C201C9AF72DFB34E051480368514803404F490B6050490B681B0A1B020B600B68112003430B60A023F21D391C2004000CA3F70FFF1DE0230C1B044000834213D12404240C7F2C06D83B19802B03D8A30701D1BB0701D0122004E0BA08A108F01D00F011F8287004E03A1C0731201CC0F772FF2978394800231A1C91F7B0FA283500202870F0BDF0B589B0041C0F1C161C900097F745FDB100051CC1F770FAB200211C281CC0F757FF04A8052103F021FD2B68039300240DE0E3190493A300585961
:FBC4B600059004A89BF701F800282BD0A300069858510134B442EFD30398030E1C1D211C0920C1F74AFB002901D0411C00E0011C0291611A03910026341C1BE0685C9BF7CBF9009008270398864208D0A85D9BF7C3F90099091800910136013FF3D10098012804D9281C97F711FD03200AE001340198411C019102988442DFD3281C97F705FD002009B0F0BDC0464400080074000F00FFFFFEFE8C000F004CFC000030B54A480168CB7F1C31DB0726D5484ACB78D806040F13787F20834323431370CD78A806C50F50787F24A04328435070CC786406E40F8025A843E40120435070CC78E4090120A04094780F25AC4305072D0F2C4394708020834313708AC8
:FBC5B10079D30708D53448930843708B799B07DB0F83700123037030BDF0B586B0071C00260378112B0DD1861C4578002405E07178307898F752FF02360134AC42F7D36B009E1CBB5D222B15D1F319981C5D7800240AE003789B002049591882781202437813430B6003300134AC42F2D3A800411B8819861CBB5D332B27D1F319981C00901222164901A8C0F788FEF3195D78002419E00020009B597809021A781143430001AA9A5A914202D001300928F2D3092805D10123DB04C818009A937803700098033000900134AC42E3D306B0F0BD54D906006F0A0800CC1E080000FC0E00A2FF0900F0B584B001900F1C0E1C0D1C03F032FC0090444C231C2833D2
:FBC6AC001A78012A02D01A78032A5ED3B9780C2939D1697909022A791143A182E9790902AA791143E182697A09022A7A11432183E97A0902AA7A11436183A97BCA07D20F4E2002558B07DA0F314802704B07DA0F304802700B07DA0F2F4802708B112F480370E9784F2001552D480368002B00D00123002B04D02A4A2C324F20015DD176697B2A7B17E00A292DD131790902F2781143A182B179090272791143E182317A0902F27911432183B17A0902727A11436183317BF27A0802104302A997F78FFE029BE362039B23631AE01978022917D1B9780C2902D1697B2A7B08E00A2902D1317BF27A03E012230198037008E00802104302A997F773FE029B631D
:FBC7A70063039BA363009803F0B3FB04B0F0BDC046D4310800C9030A00CA030A00CB030A00CC030A002C3208007047000070B50024061E1BD1334A10780721002800D10120314B4343314A9D18EA69D20208D501300006000E072800D1002001340139ECD12106090E07291FD0441C20E02748264B63431918264BCD18E969C90202D50134042CF3D32406240E042C0FD121490B7E002B09D10124051C1F4A1368FE210B4002D1C069C00202D5FF2028E008341649281CC1F78BF8E8690121090508432C607100F207D20F0A430321890388439107090C0843E861FF200F302B1800201870281C73F7B9FD201C00217EF737FC002E04D16007400F08210843BF
:FBC8A2002877201C70BD0CE0C0467FD3080014010000383D08008C0700003C31080088D70800FFF786FF70BD704700B5C37B052B01D388F737FD00BDFFF7F7FF77F7FDFC0000F0B584B0C74D02A897F7E0FCC64C206861680090019102AB69460522101C97F707FD684697F7DFFDAB78012B2BD12B78002B28D1BD4B984225D26868C207D20F6A701ED1BA4E311C3C2097F7ACFD20686168B84B18605960311C0522101C97F75BFD23689B07D80E6368DB051B0C034303CE8007400E1843CB05DB091843AE4F386001232B7004B0F0BDF0B599B0AB4A03CA11901291FFF7B3FFA94A947BA14A138AA84A908B834204D19E498B7C907F834209D0A348838B03D9
:FBC99D0080837F83704379062003439F4843719E48838B954803829C48837F934883749B4A9A4E308A0004F189084340001060738A984D718AAB4202D9491B0130106051600F901091914D686BA96B1190129111AB221C0FA9201C97F702FDE86B296C1790189117AB221C0FA9201C97F784FC1098099000260A960F9AD30709D5011C844BC018814201D8002100E0012109900A9100235008311C7F4A03F07FFA099A82180998904201D8002000E001200A9BCB18C31809920A936C48018A837C08020021C01805904E41069615A897F722FC159A1392169E14960027D30707D56D4BF0180021B04200D20121061C0F1C500869494843002380191A1CB04219
:FBCA980000D20122D119061C0F1C099A0A9B904299411DD206984100059DEB0F19436800151CFF2201320023C0F79CFF00242A1A00D201240A9D6B1A1B1B09920A930BA997F7D7FC0BAB0FA90522101C97F716FC0FAB13A90522101C97F710FC13A897F7E8FC04020025059840080699CA07024303924B080493201C291CC0F773FF041C0D1C601C0022A04200D201225519041C374A5060956005980699EB07E20709D562081A436B0803F0FBF9039A8018049A514104E062081A436B0803F0F1F9020A0B061A430B0A0998801807900A9858410890079A901B0899B941FF229132002390429941CDD32D4A07980899C0F73AFF041C2A4948430799081A642F
:FBCB930000264B984201D90134C01AFF233833984200D9181C011C1F480462416215A897F77DFB1C4A106A516A0D900E9115AB0DA90522101C97F7A4FB0DA897F77CFC0D49C860184B984202D90020087000E00120084A907015A897F761FB094915A897F743FB012802D1104B07480360FFF770FE19B0F0BD34040A00F4310800E2040000CC000A00D4000A00A8800E00B4FF0900C4320800D43108006C000A003801000071020000350C000080FFFF01FFF795FE014B9F467047C046EE7A0400F0B589B0B74DB84A03CA07900891002704970397B54C2379012B0DD127712F616F612F76381C81C50123AB74B0490B68B04803430B6051E13A1CE378012BF4
:FBCC8E0000D04CE1AB490B689B0500D447E10E1F31687068C005C00DA74B03437360089007916164A06401234C263355A34E3788062F02D10426282301E01026402302932B7EB34200D024E101952B68994201D3CE1A03E0CB1A012636079E19984B5E43019B5B68984203D3C31ADB00F61802E01B1ADB00F61A01230193062F16D1904BF31A02B490498B4202BC0ED38F4BF31A02B48E498B4202BC07D38D4BF31A02B48D498B4202BC00D3019215E08B4BF31A02B48A498B4202BC0ED3894BF31A02B489498B4202BC07D3884BF31A02B487498B4202BC00D30192019B002B6BD06B699B1B03B4D9174B405B1ADB100498834203BC5ADD2869002802D12E99
:FBCD890061022350E0831BD9174B405B1AD910029B99424ADC697E052944D13318580868612A61062F03D1C306190E052203E04306D90EC9000722A170D04020802388A383A378A377A38A6B48834223D2062F02D0052F1BD107E05027042098F79CFE012800D1642727650023A382208843102383208840100138216D41436420C0F7B3FEE082E08A218B4318638303E0092F01D1AAF7C5FF079BAB60089BEB600121049103910BE04B1C6B7608E02E6106E02A6102236B76A960E86000E02B61A87E012815D14D2108553D490B88062B03D1F306180E052103E07306D80EC0000721A070CE4026800120049003900023AB7600232B7666796371AA68EB68B2
:FBCE8400E06A216B05AD0FC53D4F3B68702003401A0907AB05A9101C97F7AEFA069BA3810598C30704D5A389FF2139315B18A3814308A3602821085D012802D0605C042803D163790120034363714E20015D8907A06808432B490A78D20710432A490A781207104329490A7852071043E081000C2082A38963820498012801D0B30703D563790220034363710398012801D073070AD5637904200343637105E0002B01D12960686001332B76194801788B0731E048040A00BCFF0900D43108004C830E0000020000E8DF0800C4090000FA9209009AD000002E0108007745000054B006003D300000EC4B260061420300B9042000DC15010050C11A00F2C000DB
:FBCF7F0000FFFF000024860E00C9030A00CA030A00CB030A00CC030A0008D5A37FFC200340A3770220CB0702D5012000E00320A37F0343A37709B0F0BDFFF74AFE014DAF467047C0468281040000B541784318991C04230B704178023100228BF74CFB00BD70B5051C0E1C0921532090F7B9FA041E08D08570311C03300622C0F7A7F9201CFFF7E2FF70BD70B5051C0E1C0921522090F7A6FA041E08D0291C02300622C0F795F92672201CFFF7CFFF70BD10B5041CC81C497A01F0E9FF011CB94890F7EDFC28340020207010BD70B5051C0C1CC81C01F087FF061CE31C011C11208001062290F7B8FC283500202870002E03D1E11C0220FFF7B5FF70BDF0B576
:FBD07A0084B0071C0C1C061C0836031C283302201870087973F71DF8051CC069C00203D5E4214859002801D4412319E002F0C1F82868002101F080FF2379B371E078002838D0607A0002227A02430292E07A0002A17A014303918A4201D80A4302D112233B702CE0286863799049002B04D0012383400A681A4304E001228240D3430A681A400A60E2791202A3791343884A5340A3711A0AE271039A0192029900910022111C00F099FD2868012101F045FF286800F000FDF071000A30720323FB7004B0F0BD70B5051C0C1C061C0836031C283302201870CB78897A201D002B0FD002F01CF8A07E0002617E0843704948406076000AA076201C002101F0980F
:FBD17500FF01E002F00CF82870A37A3373211DB01D0622C0F7E0F80723EB7070BD10B5041C00F03BFD28340028634807D0002190F739FC0020207002F027F804E0422190F731FC0020207010BD30B5051C0C1C01F09FFD002801D00C210FE0207B0002E17A084355494843554A1060A07A0002617A0143E01C01F042FF011C514890F712FC28350020287030BDF0B5051C0C1CC878431E072B01D3122132E0002772F75BFFC169C90201D5402729E0061CFF211531C0F7A5FBE4229059510708439051F169012000050143F161E07830600722914310400143032080038143F161301C73F782F8306800217DF752FF5C36202030800123E078834033490868F9
:FBD2700018430860391CE31C3148012290F7AAFB283500202870F0BD70B5041C0D1CC878431E072B01D3122117E0002672F716FFC169C9020FD5E422115800290BD5FF211531C0F75FFB0121E87881401F4803688B43036000E01226311CEB1C1D48012290F780FB28340020207070BD70B583B0051C0C1CC87872F7F1FEC169C90203D5E4300068002801D441215FE0124E2821885D032851D1E07B0002A17B084301A997F7BBF8207C83110C490B7018E0C0463F040000C8DA0800063300004304000071020000B80208004404000064040A00740C0000750C0000D4310800CC030A00C107C90F4E2291558307D90FBF4A11704307D90FBE4A11700307D888
:FBD36B000FBD49087002F0CAFDE1790902A2791143B182617A0902227A1143F182E17A0902A27A11433183617B0902227B11437183019BF362029B336302F0B8FD07E0A31D00936379E0780322002101F046FF0021E31CAA48012290F707FB28350020287003B070BDF0B584B0071C041C282308340222DA55A24D8B78092B1DD108790002CA7810432860887900024A7910439D4A1060CB1D9807800F01D11B6808E01B1AC0001A68C2402026301A5B6883401343954A1360C87A12E0081C09790902C2781143296081790902427911438D4B1960017A0902C27911438B4B1960407A8B49C87602F05BFD0090894E3068002800D00120002810D0FF2302A907
:FBD46600CB7081480268296801A801237EF7A1FF01A84088708418360123737300E02868A071000AE071009802F043FD0223FB7004B0F0BD30B5021C083228230221195475490B68002B00D00123002B01D0498C01E06C4B19689171090AD1716C4D2968131C08339C07A40F01D1196006E01970090A5970090A9970090AD970654DEB7E13730723C37030BD30B583B0051C0C1C0A2203316846BFF726FF207B010604D468467DF7D6FD142802D212232B7011E00A22E11C594802F0ECFC00280AD0E01C72F78DFF00F071FB002801D000F0BDFC7DF783FC03B030BDF0B585B0061C0C1C071C0837031C283302201870087972F7BAFD051CC069C00203D5E425
:FBD56100214859002801D4412322E02868002101F01FFDE378002B08D1012328688340404908681843086000203CE06079049000280DD0E07A0002A27A02430292607B0002217B014303918A4201D80A4302D11223337030E02868E3793249002B04D0012383400A681A4304E001228240D3430A681A400A60627A1202237A13432A4A534023721A0A6272039A019202990091A279049900F02DFBE178286801F0D9FC286800F094FAF871000A38722379BB71002333700323F37005B0F0BD70B5051C0C1C061C0836031C283302201870CB78897A201D002B29D001F0ACFDA07E0002617E0843104948406076000AA0762523195D201C01F027FD1AE0C046D3
:FBD65C00C9030A00CA030A00CB030A00760C000080000A0084000A00B0020800CD030A002C3208000C240800C8DA08000633000001F082FD2870A37A3373211DB01D0622BFF756FE0723EB7070BD10B50C1C283000210170E31CBD48012290F78DF9E07801F08FFC10BDF0B5071C0E1C141C1D1C0921FF208FF746FF00280BD04C238370C770067144718571059AC271069A02728FF7BCFEF0BDF0B583B00090029101921F1C099EF3009D1B1A35291CFF208FF729FF041E37D0A91E0230C0F72DF94D23A370009DE5700299201D0622BFF710FE6676002D24D10A220199201C0E30BFF707FE231C0A339D07AD0F01D11F6006E01F703F0A5F703F0A9F703F3B
:FBD757000ADF700899217600250AE0271C1A37EA00531B0A981918D819072202F0E9FB0135B542F2D3201C8FF773FE03B0F0BDF0B583B00090029101921F1C089EF5001935291CFF208FF7E0FE041E34D0A91E0230C0F7E4F84D23A370009DE5700299201D0622BFF7C7FD2676002D21D10A220199201C0E30BFF7BEFD231C0A339D07AD0F01D11F6006E01F703F0A5F703F0A9F703F0ADF70002509E0EA0009988118231C1933D018082202F0A3FB0135B542F3D3201C8FF72DFE03B0F0BDF0B581B0071C0E1C00921D1C1F2150208FF79DFE041E2FD00330002F20D1311C0622BFF78AFD0A220099201C0D30BFF784FD201C09308107890F01D1056006E027
:FBD8520005702D0A45702D0A85702D0AC5700698E075201C18300722079902F06CFB07E01C21C0F77EF8311CE01C0622BFF765FDA770201CFFF79FFB01B0F0BDF0B581B0071C0D1C00921E1C1F2150208FF75FFE041E2DD00330002F1ED1291C0622BFF74CFD0A220099201C0D30BFF746FD201C09308107890F01D1066006E00670360A4670360A8670360AC670201C17300822069902F030FB07E01C21C0F742F8291CE01C0622BFF729FDA770201CFFF763FB01B0F0BDF0B582B001900091171C1E1C099D291C143151208FF721FE041E3FD0019902300622BFF710FD009A2272221C093293079B0F01D1176006E017703F0A57703F0A97703F0AD77022C0
:FBD94D001C0D3293079B0F01D1166006E01670360A5670360A9670360AD670079860740899A174EB22EB2D01D22A06120EE274111C201C1430BFF7F7FF0A9B002B07D0E27C002A04D00A99201C1430BFF7D8FC201CFFF713FB02B0F0BDC04614FD000000B581B00322274968460130BFF7C8FC4F2369464B7001238B700023CB70481CA3F756FD01B000BD00B581B01E4B6846197881705978C170023054236A4693700023D370A3F744FD01B000BD70B5051C0C1C061C0836C8781449002805D10822301C0830BFF79CFC05E008310128F6D00F490228F3D0E378B3710223F3710A23EB7070BD00B5C0238377FF23C377202301211954031C40220648002198
:FBDA48008FF7C4FF00BD09E0C4FF0900C8FF0900981E080090000A0002100000181CFFF7E3FF92F7AEF8704730B5051C0C1CCB78012B0ED10C4A6320012164F7F2FC002807D1E21C6320012164F709FD012306480370064800231A1C191C8FF797FF28350020287030BDC0466B040A0025FD000000B500F0A9F8002801D001F043FA00BDFFF7F6FF00BD704730B50C1C96F77BFA02F016FA051C201C0122111C8DF743FF281C02F015FA30BD00224C235343914959180B68002B00D00123002B05D047235B5C834201D1081C03E00132032AECD30020704700B5FFF7E7FF002800D0806900BD8548704700B5FFF7DEFF002800D0408C00BD00B5FFF7D7FF0083
:FBDB43002800D0012000BD30B5051C0024291C4C2363437948181869F793FB0134032CF5D330BDF0B5071CFFF7C1FF061E23D00024002502F0C7F9E1008919CA6A2C31002A06D0CB79032B03D2151C00230B60CB7102F0C0F9281C0BD069490B78002B05D07B1E1904090CFFF791FF01E096F70DFA0134022CDCD3F0BDF0B582B000910192FFF794FF041C1FD000252E1C2F1C02F099F92A1C211C2C31D3005B58002B01D1013507E0D300CB18DB79012B01D1FF1800E001360132022AECD300990E6001990F6002F087F9281C02B0F0BD00204C2343434949CB58002B00D00123002B01D0012003E001300328F1D30020704700B5FFF75CFF002801D048300A
:FBDC3E00007800BD10B50C1CFFF753FF002800D0846210BDF0B5071C1C1C00254C206843374E83598019002B00D00123002B02D00135032DF2D3032D0ED0031C3C33DF7219731A725C80059999800699D9800323C3742D4968F784FEF0BDF0B581B00E1C0090FFF726FF071C0CD02C37051C46352B78DB00F9180B68002B03D00C1CCB79042B01D2224820E002F01FF92B78DB00F9188F79CB793370266800232360E3712B78012253402B7002F017F9164A1378301C002B06D0009A531E1904090CFFF7E8FE01E096F764F9381C01B0F0BDF0B584B00D1C029203930B490B78002B0CD1FFF7E7FE041E08D0836A002B05D1808F074B98420ED085420BD10485
:FBDD3900488BE0DC000A00A032080068040A00C0010A00FFFF0000A38702F0D9F846231A5D01265640211C2C31D30001B4C858CF180290002801BC0BD0BB790093AB4206D0FB79012B01D10523FB71009BAB4208D0F3005F58002F2ED0CB189B79AB422AD1321C029B012B0CD0032B0AD0D300CE18F379012B05D1B788039BFB18B14FBB4205D9A587D300C9180523CB712EE002F0A6F8039A0999B0883368C018BFF7B9FAB38803981B18B38002F091F80299022930D1F1712EE0029B002B16D0022B14D0131C019A002A02D0331C002F0DD1DB00CE18B5710123F37102F081F8994896F7B2F83060002808D103E0A58702F077F885E7A5870023F37181E727
:FBDE3400039A0999BFF788FA0398B08002F062F8029B032B01D10223F37102F063F8281C04B0F0BD70B50C1C151C88490B78002B18D0FFF743FE061E14D0836A002B11D102F048F8321C2C3246363178CB009B58002B09D001235940CB009B58002B03D002F040F8002008E0CB00D450D1180223CB718D8002F036F8012070BD30B502F029F8051C724C0A227249201CBFF744FA71487DF79AF8A072201C7DF7F3F8A2687F2109068A43410649080A43A260281C02F018F830BD00B5011C2C318B7EDB00C818C379032B02D00120400702E00423C3711807C97E74F79BFA00BD00B5132101F0E8FF08BC1847000010B5041C002169F7BDFC002803DA01235896
:FBDF2F004843710FE0A37B574A136053688020034353600221012067F751FF4A3420780121A4F74EFF10BD00B50168C969CDF7C5FB08BC18470000F0B589B0051CC07B484000D1C6E0002304AA138005AA13802E1C2836F37F0498072290435907490F084304902A1C4932009201231370306800280DD00024CDF7A0FB0790002800D199E0059B3948834388200343059321E0B07FC000841962680434002A02D0E379022B02D0E379032B11D1079229480378002B01D004320792A388059F2B498F439905C90C0F430597002A74D002E00021079170E0F78A254838400026002811D0244A730024495B5A3B4007D0F300D118059BDB049B0D4988994215D207
:FBE02A000136082EEFD34FE01D4A73001D495B5A3B4007D0F300D118059BDB049B0D4988994203D20136062EEFD33DE0F300D61873780498782188431907490E0843049073791F2189028843D906490C08431AE0C046FD03000068040A00A03208000C240800640008009430080000820E00F81F00000633000098060800CAFF0900D8060800DAFF09000490059B0320834302200343059301A867F74CFD307800990870431EAB81032002E0002207920520002C00D0E071079B002B06D1049B782083431F2080028343049304A803887948036005A803887848036009B0F0BC08BC184710B5041C75484023195C012916D103689C4213D0201C012169F7BE70
:FBE12500FB704A137898420BDD4A23A374201C68F791FF4823185D002802D0201CFFF7D2FE10BC08BC184700B5002902D002290CD102E0FFF7E1FE08E0C08F6249014001D0012000E0022070F7CFFC08BC184700000020032900D15C48704730B5041C5B490B68DB07D817013001D067F7E0FC251C44352B78002B14D0201C022169F77EFB69794B1C2978594388420ADA514908680368002B00D00123002B0DD01E23A3740AE04A23A374201C68F744FF2B79002B02D0201CFFF786FE30BC08BC184710B5454C3921454801F07CFE00232370637010BD30B5051CFFF778FC041E0ED00368002B00D00123002B08D0281CFFF7A8FC201C68F719FD281C7DF747
:FBE2200041FE30BD30B583B0FFF762FC041E41D00323C37428230374022343744A2383740023C3738373051C2E4BAB87C18F3C350F200003084001D0062005E002200F2212020A4000D00420297A4B1C58431E4908700106201C1830031C0A330293021C0C320192083000900B0EEA88A988E87A00F01AFEFFF70CFE1B4A106B0121C90708431063002078F7B9FBA8731749201C68F79FFB03B030BDF0B5FF2314490B70124814490022171C134B144C144D3E1CFEC01449144C154D36C0F0BDCC8A0E00D08A0E00EC2C0800FA030A0006330000A0320800188B0E00D802080068040A00DC000A00FFFF000078320800C0010A0074000A0057DF090011DF0938
:FBE31B000067DF09004DE1090081E109000BE1090077E1090010B5041C9AF7AEFA011CB648BFF718FC7D21C9004143B448BFF712FC0223E374618C431858084000A3691B1858014009A061252001230355201C68F776FE10BD30B588B0041CC07B48403BD0002303A8038004A80380039B78208343502003431F20800283430520800203430393049803218843022108439C4D2B789C498843D90008430490A07B95F79BFF99498A07920F01D1086006E00870000A4870000A8870000AC870934B069303AD2B88924D2B6004AD2B88914D2B60684667F7B6FB0223A38108B030BC08BC184770B5041C037D0A2B05D1807B95F773FF4008A06251E0032B01D0E7
:FBE41600042B4DD1807B95F769FF4008A16A95F700FF814A1368984208D3201C68F7C7FBFF210120C00374F702F839E0784CA07EFFF769FB211D8A07920F01D1606006E00870000A4870000A8870000AC870FFF761FB0A22011C201C0830BEF76CFF6F49201C12300622BEF766FF002515E0261C1D36EB00985DFFF746FBE900711804318A07920F01D1086006E00870000A4870000A8870000AC8700135237F9D42E6D370BC08BC184710B5041C5D490B68DB07D817013001D067F742FB201C67F7B1FE237D0E2B12D00D2B10D0201C483001780131032900D3002101700178201C002902D1FFF71AFF01E068F7CAFC10BC08BC1847F0B585B04B4C206800AC
:FBE511002800D00120002802D0201C68F797FB0223E37427232374022363744923A3740023E381FF2303A9CB7041490A684148016802A801237DF737FF02A8408860843D49088001F0D8FC051CA07B95F7C9FE80084300A361281C01F0D6FC002078F755FA492108552B4E2E49301C12300622BEF7E4FE002501950327FF2100224C2353432E4818180368002B00D00123002B07D047300078019B984202D9884200D2011C0132032AEAD3FF291DD00191081C002D07D1B176FFF7B2FA164A1076000A50760CE0321C15320092EB009954FFF7A6FAE900009A51188870000AC87001352D062D0E013FC8D16B1E3377EB001D33064A1370124A1168201C68F7F5
:FBE60C00F2F905B0F0BDC04675D1451771020000FB030A00F81F0000CD030A00CC8A0E00D08A0E00B002080064000800188B0E002C32080084000A0080000A00AC020800DC000A00B40208000E480F4B0F490B608023191C0AC000230D49CB76704700B52C220C490C48BEF76BFE0B480B4BC3610B4BC3600B4B43600B490860FFF7E4FF00BDC04680000A00FEFF0000B0020800CD030A006CBA0600EC010A00BDE4090071E30900FDE30900B402080030B5051C0024291C68236343A948181868F7DCFD0134022CF5D330BD30B500F0B8F8041E0AD001F013FC051C206D67F7C4F900232365281C01F012FC30BD10B50C1C00F0A6F8002804D05823195A21A8
:FBE7070080006D043010BD00B53421964801F0E8FB00BDF0B588B0171C03AA0BC2002468236343904D5D192B68002B00D00123002B02D00134022CF2D3022C01D1002072E00323EB742A232B7402236B744A23AB740123EB73039871F72BFDA873049969840D98A861039871F7ADFC06A9061C283075F7AAFF06A9A87B67F71CFF2C1C54340399A172321CD6697607760FE67204992181A7732832D37823740E99E180059921600F98E073109A531C6373012E02D16D480399017002266C4B1198034000D0012626730F2212031198024001D0062605E002260F231B02034000D004267B1C5E433606360E019624235B5D00932B8C049AA97B039800F089FBA5
:FBE80200A77B781C311CBFF7DAF97843A0741299039800F036F857498A680124E40722438A605549281C68F7E3F8012008B0F0BD10B5041C00F008F8002804D068F706FA201C7DF72EFB10BD002268235343464959180B68002B00D00123002B05D05E235B5C834201D1081C03E00132022AECD30020704700B5FFF7E7FF002800D0012000BDF0B50F1C71F720FC061C01F03BFB041C384D0A22391C281CBEF756FD301C28307CF7ABFBA872281C7CF704FCAB687F2212069343420652081343AB60201C01F029FBF0BD10B5041C006D002801D067F7CEF81A21201C01F005FB10BC08BC184770B5061C002168F7DAFF051C341C6034A078002802D1002D13EE
:FBE8FD00D007E0A179BFF75DF9291CBFF76EF900280AD0A3799D4203DB301C68F79FFB11E00123174843710DE01748B37B03604168802291434160031C207918620121081C67F755FA70BD10B5041CC07B48400AD16523185567F7B2F8236B002B03D04623185B431EA38110BC08BC1847C04618020A006A040A0006330000E8020A00F4020A009430080000820E00011C24235B5C0020002B03D18B695B0100D501207047F0B584B0041C037D0A2B59D1807B95F737FE002302930393251C636D009300230193A07B6B46021C02A995F7A4FCB84F38884108B848BFF7CCF84000009000230193A07B6B46021C02A995F708FD02A9A07B95F7D5FD6323195D97
:FBE9F800201C69F7DEFA3B882B63A07B95F775FC400868632835A07B95F76FFC4608311CA069183495F70BFC00280FDA2168301C95F7FEFBAE8E011C301CBFF79DF8013046432068801943015B09236021684B0104D501208006022323734140A88EBFF7A7F820812BE0032B01D0042B14D1807B95F743FC4008616B95F7DAFB5A23195B88421CD3201C68F7A1F85E3421780120400573F7DBFC12E0037D062B0FD1FFF777FF00280BD0628C1834217B208902237EF7ACF92081022323730123637304B0F0BC08BC184700B5002902D0022907D102E0FFF70BFF03E06030007870F71BF808BC18470000002903D0032903D0002002E0283000E072487047F0DF
:FBEAF300B58BB0061C00220092B28105A90A7003A86FF729FD341C356D503466F7C9FF002D55D12060002851D005A80378022B4DD1039B5B075B0FE07B834247D16249087A022808D1B07B01A995F7D2FC019802995E4AD063116401210091039B5B061B0F032B33D35A4A1568AB0804AA1380237C0AAA5370291C03A86FF7DAFF680325D50720C004284021D1049BDB049B0D238103984006030F4F48C05C012800D160754D480378A17B002B0BD00AAA1170022305AA5370216803A88BF7ACF90023236016E00120C00773F743FC11E0206866F756FF00232360351CA789738C1835BB421CD001236B732989381CBFF703F813E0351CA789738C1835BB424B
:FBEBEE000FD1637C5F4301236B73287B2968830702D501239B065940381CBEF7CEFF28816F81301C022168F745FE009A002A07D1831CA07D834203DC301C68F735F902E0301C68F713FA0BB0F0BC08BC184710B588B0041C002302A90B7068466FF786FC02A90B78022B15D1009B5B075B0F5F20005D83420ED1201C69F780F9A07B95F741FB4008606300984006030F1348C05C0138A08108B010BC08BC184710B5104C0B21201C01F029F904340E480F490F4A104B0FC4104B6360104BE360104B636110BDC802080071020000E8020A00F4310800D43108002C8B0E00F6B9060068040A00F4020A009FE90900C9E8090045E90900BFEA0900F3EA09003D63
:FBECE900EC0900DFEA09006949086870476948704700B5684A10706BF75FFA00BD67490868002800D00120704770B588B0041C0023A38102A90B7068466FF71AFC02A90B78022B76D1009B5B061B0F0A2B71D15B4A1568AB0801AA1380291C68466FF7EDFE680366D50720C004284062D1019BD804800D18285DD32D2806D9019B51488343FF206930034301934A4D019BDB04990D281C6FF7D7FD211C4031281C1230062201F0B5F8002844D1201C69F7E9F8201C67F74DFA002095F7A7FAA907890F01D12A6808E06A1AC9001368CB402026711A52688A401A4390420ED3AA07920F01D129681AE0A91AD2000B68D3402025AA1A49689140194310E0AA0797
:FBEDE400910F01D12A6808E06D1AC90048CDCB402022511A321C8A401A43111A01200007401A244A1060201C67F7DAFEFF210120000573F715FB05E0201C67F70BFA201C68F737F808B070BC08BC184730B5041C1E490B78002B1BD1051C4435AB88002B16D0807B95F753FA40086B88C01A0004000C831CA88883420AD3201C67F7EAF9201C67F7ADFEFF210120000473F7E8FA30BC08BC184700B52C220D490D48BEF763FA0C480C4B83610C4B43620C49086000BDC04620030A00FC030A0029040A00C43208002C8B0E00F81F00002C2D08009CBA060024030A0013ED090031EE0900BC02080030B583B01C1C092302ADAB700123EB7001ADE8700023020D
:FBEEDF00AD2B70684601237DF767FA6D466B88089D2B8001AD2C800023AB7068467DF7B3FC6D462B88069D2B8002AD6B78079D2B7003B030BD30B583B01C1C092302ADAB700123EB7001ADE87002AD29706D466A802C8002AD0698687001AD079828800023AB7068467DF7B5FC03B030BD0020AE4AAE4B115C1B5C1940115401300A28F6D3704710B570F702FE041E06D0A8490B68002B00D00123002B01D1022007E08DF7C2F9206871F731F80020A249887410BD30B50D1C041C71F799F8011C2831281CFEF71EF8201C71F720F80023994A937430BD10B500290CD0041CFFF7C7FF201C71F784F85C30611E0180201CFFF72AF904E0FFF711F920235C2142
:FBEFDA000B8010BD10B584B0041CFEF7BFFD03AA02A9201CFEF7E5FD039B019302990091031C201C00220321FEF75EFB04B010BDF0B5051C0C1C814F3B78002B06D1012070F73AFE0606360EFF2E01D11F2022E0301C71F74EF8291C051C28300622BEF788F9DC214A59032109048A43A107890B0A43DC214A51E969F822914308221143E9616F490E706F48018A301C8DF743F903233B700020F0BD70B5051C0E1C012070F70AFE0406240EFF2C01D11F200CE0201C71F71EF8291C28300622BEF759F9311C201CFFF72CFE002070BDF0B589B00891041C012070F7EFFD07063F0EFF2F62D0381C71F705F8051CA27AC069072188430A401043E8612E1C2810
