:020000040009F1
:280000000108006999994204204EB1FD0400FFFFFFFF4006009376A0027020020A002800090000000000000014
:FB002800411A0042726F6164636F6D20426C7565746F6F74682044657669636500980100035C0100017206000300000800019304002400000068040012000C006A3600030111000000B1000000A1000000431008045310080483100804931008046310080473100804C1000000D000000022000000320000007C04000100000209080068000F00030000006F210002331F05CF000000AA147F8C00AA00800A9200000000140000000000006C584E6CA1040000000080690200E2065D0C000A64E6B000008898425A33435F09003C280100040004F70C0A6F0098160800C600F3025D0066033000C900E10268005C033600C300E2026A0053033C00C200E10295
:FB0123006C004E034100C500D60272004A034300C300CE02790042034800C500C00283003A034E00C800BF0282003B034E00C900BC028400370352000808070707070707060606060505050502C05C0194FC0E00FFFF00005E02000030FC0E00FFFF0F006304000000FD0E00FFFF0F006802000088FC0E00FFFF0000000200002CFC0E00FFFF00004904000070FC0E00FFFF00000B09000074FC0E00FFFF00002E010000D8FF0E00FFFF000062190000D0FC0E00FFFF000020C90000C8FC0E00FFFF000038850000DCFC0E00FFFF00001CC80000CCFD0E00FFFF0000048000005CFC0E00FFFF00000200000020FC0E00FFFF000019210000E0FC0E00008000EE
:FB021E000000000000C0FC0E00FFFF000022000000948F0800FFFFFFFF00100010988F0800FFFF0000001000009C8F080000FFFFFF00040404CCFC0E00FFFF00002B45000078000F00FF0000FF0500000030010F00FF000000050000008C000F0000F0FF0F0000800034010F000F000000070000001C010F000000FF000000250074000F00000000FF000000300C010F00000000FF00000030B0010800FF0000000500000068000F00FFFF000003000000D07B0001040A08FC0E00FFFF00002E3600000CFC0E00FFFF00002CAE000010FC0E00FFFF00002AAC000014FC0E00FFFF0000A222000018FC0E00FFFF00001D2000001CFC0E00FFFF00000D15000007
:FB03190020FC0E00FFFF0000858D000024FC0E00FFFF00008311000028FC0E00FFFF00000001000098FF0E00FFFF00003E410000C3180012691418310870047836047430607180764A3108290B7E07CF0900100F0C6EF0B009F060D10900010403036B1420206B1A2400FF0108080410000EFC0CF80AF408F006EC04E8020410000EFC0CF80AF408F006EC04E8020301000182D600040602020A233C5A6E7D80008000800080008000800080028002800280028002800214FF18880AFF610000000000000000000000000014FF18820AFF610000000000000000000000000014FF18000AFF610000000000000000000000000014FF18080AFF610000000000D2
:FB041400000000000000000014FF180B0AFF610000000000000000000000000014FF18100AFF610000000000000000000000000040FFFF68027B0000000040FFFF68027B0000000040FFFF68027B0000000040FFFF68027B0000000040FFFF69027B0000000040FFFF69027B0000000082D600FF0602020A233C5A6E7D80008000800080008000800080028002800280028002800214FF18880AFF200000000000000000000000000014FF18820AFF430000000000000000000000000014FF18000AFF660000000000000000000000000014FF18080AFF660000000000000000000000000014FF180B0AFF430000000000000000000000000014FF18100AFFE2
:FB050F00200000000000000000000000000041000000007B0000000041000000007B0000000041000000007B0000000041000000007B0000000041000000007B0000000041000000007B000000008612000413004008000040130001000180FF000113C15E0044041422A244041422A23B04B104B204B304B404B504B604B704B804B904BA04BB04BC04BD04BE04BF04C004C104C204C304C404C504C604C704C804C904CA04CB04CC04CD04CE04CF04D004D104D204D304D404D504D604D704D8280C000B0400363A09000B0400343B09000B04005E3D0900081D00005018010082F014FD0E007C42090030B4201CFFF7CCFF30BC7DF7F2FA08190001086504
:FB060A0001007DF0BFFE0A008A420900FFF7ABFF82F755F9000008250002B0DB010077F028FD160004560900281CFEF74FFE281C5F3000210170391C321D88F7CDFA080F000384E0000030BD00B50000000000000817000488E0000086F0C4F908001444090000F002F800BD0000081D0005C46200008EF0D5FB0E00724A090001B4FFF769FF01BC71F72DFC000008150006586600008EF008FA06006C4A0900FFF796FF30BD0B0400124C0900081F00074848000090F06CFD100024530900A56498231D53201C00F002F86FF78DFA0B04003C4C090008150008C08400008CF0EEFE0600A0520900FFF7A6FF30BD08350009B47702006DF077FD2600A6520938
:FB0705000002B421684907002905D061684907C90F301C92F703FC02BC002902D0F06992F778FA92F77AFA080F000A24B500000FE0C046000000000000080F000BC44F000010E0C0460000000000000867000C1CF0030056F056F95800CC52090070B5061C0C1C151C002B21D104A8008840281DD105A80088202819D15A2917D8081C15D005F0F0FA002811D1032D0FD02204121408210748002305F0EDFA002806D1221C291C301CA9F741FF012000E0002070BD18650800080F000D988000005808042B0000000000000817000E680C040054F074FB08005453090000F002F870BD00000819000F64D4000087F0F8FF0A0058540900281CFEF7A7FE78F7AC
:FB08000016F80813001008D6000087F02BFF04006254090078F7D4F8080F001180DA0000C046C046000000000000081500122452000090F01FF906006654090000F001F8F0BD0B0400C855090008190013845C02006FF0C9FC0A001A5609009B005859EF1890F732FB0817001464F8000085F0DEFE08002456090000F002F8F0BD0000081700153CF5000086F0DEF80800FC56090000F002F830BD0000082F0016C4F6010076F058F8200078570900054B30B4054CE57949190C06211630BC195489F79DFFC046903408008C03080008170017487C02006DF0A6FD08009857090000F002F870BD0000082B0018D4BA000089F09CFE1C00105809000AB4201C8F
:FB08FB00311C00F009F80ABC012803D0042B01D176F758F976F759F908250019E4A203005BF0AFFA160046580900002803D000F007F8002802D10120A4F772FDA4F748FD0817001AC06A02006EF0E8FE08009458090000F002F830BD00000823001BC47202006EF086FB1400D459090008B4301C0122012300F004F808BC91F773FC00000817001C2C6A01007FF0B0F80800905B0900FFF7DDFF00BD00000815001D98AE02006AF092FE0600C05B090000F00AF870BD0817001E0C13010084F05BFC0800C65B090000F035F87BF7A2FB0819001FFCBE020069F067FE0A00CE5B0900281C00F03BF896F797F9087B00200C7702006EF0A8FA6C00605C0900F088
:FB09F600B5061C0F1C93300078002803D00B795B08072B24D17CF7E8FE041C0C301422391D051CBEF77EFE7268002A03D0291C301CC5F70DFE3368E3770023A37709490868002804D00368236004600C6001E00C6024600121890403480022B7F7E0FDF0BDC046ECC40800FC440800080F0021587B02006EF0B8F80000CC5C090008230022B47102006EF0ACFD1400105D090002D0E86991F750FA281C211C00F002F891F762FA081F00239C6E02006EF056FF10004C5D09000FB4201C00F004F80FBC91F7A5F80000081F002408F0000086F0B4FE1000745D09000FB4201C00F004F80FBC79F757F90000081B0025B86A01007FF07EF90C00B85D090029611A
:FB0AF100EC6079F726FB80F77DFE08210026F0D0020068F090FE1200145E09000870684610B4FFF7EAFF10BC6B4697F767F9080F002728EA0000F0BD00B5000000000000081500282CEA000087F0FBF90600265E0900FFF7CDFF00BD58010037081B0029DC8302006DF044FD0C00685E090092F733FDFFF7DEFF92F7B6FA081D002AD83C010083F0C5F80E00666E090001D17CF755FF281CFFF7EFFFF0BD0817002BBC65040050F0DAFD080074710900FFF7ADFE01B0F0BD0815002C7466040050F082FD06007C710900FFF7D7FEF0BD081D002D105D040051F037FA0E00827109000FB400F00EF80FBC2068AEF7C4FD0819002E785F040051F00AF90A009003
:FB0BEC007109000FB400F00FF80FBC10BD0819002F985F040051F0FFF80A009A71090000F021F8AEF717FF000008150030D873040050F03EF906005876090000F01FF830BD081500318C7E04004FF0E7FB06005E76090000F045F870BD08150032507F04004FF088FB06006476090000F0BDF830BD08170033A07F04004FF063FB08006A76090000F0EAF802B010BD08150034788104004FF07BFA06007276090000F050F910BD08150035188004004FF02EFB06007876090000F06AF900BD08150036FC7E04004FF0BFFB06007E76090000F06FF8F0BD08150037B08704004FF004F90600BC79090000F004F830BD08150038348904004FF045F80600C2799E
:FB0CE700090000F0CFF870BD087F0139A444000093F0E8FC7001787E090000B528490B6826490B6024490B6822490B601E490B682D490B60434B43490B6034490B680120C00303430B6040490B78002B04D02F490B68400303430B602D4A13685B085B0013603A4B3B4A1360B1F748FAB1F771FEB2F7C0F9B2F766FB0D21364802F023FD364A9068002803D099F771FBB1F70DF92448244A11684160244A60E0C046C0B00800FFF2011AD4B30900848FB002D08B0E00A0800E00D8B30900148B0E00DCB309006CE50500E0B309008C1508005F7D09008F7D0900697E0900E57D0900517E09005C000F0094830E00FF00FFFF608B0E0040230001E08A0E00E0EA
:FB0DE2002C0800A4860E0088B2080005000080850000801C800E0014800E00848F080004830E00108B0E00C8FC0E00C42C0800CC2C0800D02C0800C82C0800D42C0800D4FF0E00BC8B0E00AD020000CC8B0E001CCD080010325476D48B0E00009D0800ECCC080011684161054A11688160054A13680360044A1368044A136000BDC046D02C0800C82C0800D42C0800D4FF0E000861003A0044000093F032FC5200687C090010B5A448002383700423437001230370A14BA2480360A24BA24C2360A24C2368A24C2360A24C2368A24C23602C22A249A248BCF773FEA148A14C2060A149C160A1494162A1490161A14B8361A14BC36110BD080F003BD0B80400A1
:FB0EDD00A5F809E00000000000000817003C20BA04004CF098FE080054870900FFF7D4FF30BD00000817003D3069040052F01CF808006C890900FFF7C4FFADF7FCFF0819003E545D040052F00EFE0A0074890900B4F774FAFFF7B2FF30BD0819003FE0A504004EF0CDF90A007E89090000F003F803B0F0BD000008170040E882040050F09CFB0800248A090000F002F830BD000008170041B0B104004DF0B6FC0800208B090000F002F830BD0000082B0042DCC004004CF0A4FD1C00288C0900FF233D3343430448C0189F300078002800D101207047C046349D0800081B004394AC04004DF0E0FF0C00588C0900201C00F003F8B2F71CF80000081B0044AC94
:FB0FD800AC04004EF020F80C00F08C0900201C00F003F8B1F7DCFF0000082300453CC104004CF082FD1400448C090029187F231B02FF339D4200D35D1EFF23B3F774FA08170046981B030067F022F90800E08D0900FFF7D2FF30BD0000081F004718AC04004EF022F91000608E090003D1FFF7C1FFB1F7DAFEB1F7D9FE0000080F00481C730400C046C04600000000000008150049807A040051F0C4FA06000C900900FFF7B8FF10BD0815004A9882040050F0BBFE060012900900FFF7C9FF30BD0817004B6CA804004EF088FC080080910900FFF74AFFF0BD00000815004C94A304004FF0C1F906001A970900FFF7E5FF10BD080F004D0CA3040000F01DF87B
:FB10D3000000000000000823004E4894000090F06AF9140020970900012B02D10020287001E06FF799FE62686FF7D5FE081F004FA4CC04004CF046FD1000349709002878B2F736FA201C00F002F830BD0000080F0050C4A904005E4A2068000000000000080F0051A4630400FE23F533000000000000081F0052D472000092F040FA100058970900301C049900F004F8009988426DF7B8FD081700539897040050F00CF80800B4970900FFF705FEF0BD000008150054D099010080F0B0F90600349D0900FFF7B2FF00BD0815005568E901007BF0E7F906003A9D0900FFF7C2FF00BD08230056A4E901007BF0CCF91400409D09000FB4301CFFF7C6FF0FBC0AA9
:FB11CE0022311C84F72BFE00000817005770EF00008AF02CFF0800CC9D0900FFF7C2FF75F7D4F8081D0058645F040053F036FF0E00D49D0900607D01386075FFF7C7FFACF7C4F808170059E85E040053F07BFF0800E29D090075F7C0F8ACF789F80819005A14FF000089F069FF0A00EA9D0900FFF7DEFF76F796F80000080F005B6C5F040000B5001C0000000000000815005C705F040053F06EFF0600509E0900FFF7EBFF00BD0829005DD07E000091F0C1FF1A00569E090009D5281C112806D0082804D0002088F72CF86CF740FA30BD00000817005EEC6B040053F082F90800F49E0900FFF7BCFF10BD00000877005F7461030063F07CFF680070A009009E
:FB12C90010B500248CF724F8012803D309D0022820D102E09EF76EFC01E0A3F7D6FF041C18E00D490B78002B14D00C4A106803680B4A13600B4A1378002B0BD08B784978002B03D04B00FF21013101E04B00802199400160201C10BD481B0800E40A0800AC5808003A010800080F00607C640200131C036000000000000008570061B462020073F010FF4800D8A0090000B50D490868002804D003280FD0052811D104E009480378002B0CD007E0084B18680122002199F740FB9BF712FF05490B680120186000BDB0C80800D1CA0800F40A0800E40A0800081B0062C0B903005EF0AEFB0C0020A10900211C00F00BF8061CA1F74EFC081F0063B49D03006051
:FB13C400F0BAF910002CA1090002B400F015F802BC0C68E3069FF73EFE081900647847000095F08AFE0A0090A40900381CF9F77BFC6AF772F908190065AC47000095F075FE0A009AA40900281CF9F794FC6AF78BF9081B00663CDB00008CF0B2FC0C00A4A4090081B000F003F873F7ACFB000008270067405B010084F026FB180090A10900002E02D00020E05504E0E35D002B01D0013BE3557BF7E5FC081B006850A704004EF00CFC0C006C8F0900381CFFF788F902B0B1F7EEFB0817006958A704004EF00EFC0800788F0900FFF7A9F9B1F7FBFB0821006AB03C010086F0BAFC120028A6090001B4301C00F010F801BC74F747FD79F73DFB081D006B5CB584
:FB14BF0003005FF06DF80E003AA6090001B400F00FF820BC6B01A0F78CFF0817006CA8A0030060F0CEFA080048A6090000F015F89FF748FD082B006DCCB203005FF0EAF91C00A4A609001378002B07D103B400F008F8012803BC01D1A0F70CFEA0F716FE0000081B006E74B403005FF030F90C00D8A6090000232B7500F02CF8A0F7CAFE081D006F1C69020073F0E2FE0E00E4A6090003D100F027F8A2F77DF88CF718F90827007030BB03005EF0DFFD1800F2A60900012D03D1002E01D100F05BF8A068A1F798FF0021A1F716FA082700710862020074F07FFA18000AA70900201C08B4019900F01BF808BC9C4201D08BF777FD8BF781FD082500729CBC03C3
:8E15BA00005EF041FD160022A709001B0705D400F049F8002801D1A1F7B7FAA1F7E2FA00000A05002DCB080001081B007330AB03005FF04EFE0C00D0A7090005B400F003F805BCA0F7ACF90817007498C803005DF0B2FF080000A8090000F002F8A2F770F8081B00754CD303005DF094FA0C0078A80900800D00F00AF8A2F768FD00005B0900FD0344042804080803FE000038
:FB38E000F0B55A4C5A4B5B4803605B4B5B4803605B4B5C480360FF232D335B48038000F0C9FC00F07EFA00F031FC00235748037000F08CFB00F09EFB04F09FFC06F0EEFA534A151CE435534B2B60534E336802263343514E33605148036880218B43036000234F4E33704F490B1C23334E4E33604E4B4F4E33604F4B4F4E33600B1C12334E4E33604E4B4F4E33604F484F4B504E3360031C0E334F4E336012234E4E33700B1C11334D4E33604D4B4E4E33604E4B4E4E33604E4E31604E4B4F4E33604F4E33684F4E33604F4B4F4E33604F4B6B674F4B061C071DC8C40E364E4FC8C4991C0E30061CC2C44C4BD36200234B4E336005F07AFE4A4B6B65E4209F64
:5B39DB00F743FC0007000F042805D13F20C043464A5073000A9073002344490B6044490B704448E86244490B6844490B6002F0D0F8002343490B70A02342490B70002342490B703A48036801210B43036002F026FD02F066FEF0BC08BC1847C0
:FB3A360000B53B483C4908603C480B49C86400F09AF900BDC046F8AA0900E1420900BCC80800F5420900F0C40800DD4209000CC5080080020800F5B40900A01908003D4409006C010F0040150800FD0708001E45000034AB090020C9000038AB09001CC800003CAB090040AB09003885000044AB09005E04000044050000881308008C13080090130800781308000EC90000801308000AC800007C130800841308002685000074130800D8FF0E0048AB0900621600004CAB0900F14909004205000062190000718E090030AB090061570900B813080050AB09007CB40900E99B090028FC0E00E80308007DB409005415080020AB0900E1380900900008008D43
:033B310055090033
:50A9440023000000893B090024000000853B0900250000008D3B090028000000055B09002E000000AD5D090035000000C53B090088000000053C09008D000000293C09009100000087A309009200000000000000BD
:503B340070B500200F49104B4B6114E06B099C00EB06DB0E01259D400B592B430B5143004C69C50052195268012632432725AD03AA1A1A530130054AC3009D58922DE5D370BDC0464C1B080068B4090044A9090077
:043B84000020704766
:043B88000020704762
:383B8C0000B5002812D0AC231A581204D20E0F290ED1012A03D0042A01D0062A02D177F7F3FF03E0002A01D0032A01D1012000E0002008BC1847000073
:043BC4000020704726
:243C04008105890D030AFC201840FC2803D1F72901D1034800E000207047C0467CB40900C93B0900C7
:283C280004280AD106480378002B06D0054803785B065B0E0370012000E000207047C0467CB4090039C3080083
:3C3BC80010B5037814490B700620AAF721FE041E10D00E230370042343700023437101238370F723C370FC230371AAF73BFE201CAAF712FE012010BC08BC18479E
:FB3C500070B5051C0E1C80780002697808438205920D030AFC2018400C280BD1032A72D102F008FC02F04CFD311C281C06F0C9FA012069E00124FC285ED1342A35D0C62A5ED319D0C82A1CD320D0CB2A23D9E62A0DD0E92A24D0FF20313082423DD0013082423FD0FF207930824249D13FE0311C281C04F091F944E0311C281C06F0D7FAD6E7311C281C06F00FFBD1E7311C281C06F04AFBCCE7311C281C97F7A1FDC7E7311C281C03F0BEF8C2E71B490869C00126D51A4A106920431061101C117D8B0706D5FD231940017500207EF746F817E0002103207DF7A3FF12E0311C281C06F061F8A5E7311C281C06F06DF8A0E7311C281C02F097F804E020280435
:133D4B00D0042802D10024201C00E0002070BC08BC1847E7
:1A3D5E000448044908607047C04654200800CC2F0800513C090018C908008F
:043D78000020704770
:103D7C000148024988607047793D0900201A080003
:083E020077487749C86070475A
:FB3E0A00F0B583B0041C012906D164300023C372251C9435AB73EB73714803689B079B0F032B02D072F75DFAC8E00023A381E07B484000D1B6E071F7F8FC002803D1684803691B0101D5012100E00021271C64373E1CFB6880208343C8010343F3600C36614A1078431006D0C3071B0E316880208143194331605A4803691B0102D4381C95F7D5F9BB69002B02D03B681B063BD4338868460380E37B012B0DD0251C94356B7B002B10D02B88042B0DD3EB7C022B0AD3AB7D002B07D1A72303201855009B78208343002106E00121E974009B78208343082003431F20800283438802034300931B041B0C404A1360012030723C4A13691B0152D40098400601E1
:FB3F05000F00231A1C012095F7B5FB45E0E07B002802D1A72301221A55012804D1E37C042B01D073F7A8FCF37A002B06D00023F372336801204002434033600121B172251C9435A97328480369DB0002D5201C88F7B8FD338826490B60B0884860381C71F7D8FC30684006030F2248C05C3072431EA381E37B002B0FD10121387F81401D4A1068084008D1E37C042B05D01B480378AB751A480378EB75134803691B010FD5201C95F70EFF0BE0271C64373B727B7271F766FC636C002B02D05A231B5BA38103B0F0BC08BC1847C04609C1080054AB09000004080064AB09000B3E090000020800188B0E0054200800DCC80800CC8A0E009EBB0500B40108001E
:08400000F5010800F6010800BB
:023E0000704709
:28402C0000B52C2204490548C0F7A6FC034804494161044B186000BD0CBD0500E4AB090009400900E402080012
:2440080030B50D1C041C76F7A9FE6B075B0F012B05D1E37B002B02D1A07B9DF7E8FD30BC08BC184775
:1840540010B53F4C3F4B1C602C223F49201CC0F78FFC3E48606210BD95
:FB406C00F0B5041C051C876A28353B4B42331878002866D1201C012173F703FA061E4BDD022804DB201C78F77DFA002859D1618C8B1F9E4223DA304A13689C420BD0391CAB310878013800D30870731C5910201C78F70AF830E0731C5810E37B002B05D07B6C002B02D06B7F002B25D02F89B84222D36A89002A06D1A389002B03D1201C72F711FE18E0BA4200DA3A1C904201D90C2310E04B23A27C1B5D9A420CD102280AD36B7F002B05D014480378994201D9282300E03823A374211C4D31087800280FD00238087000060BD1E37B012B02D0237D0C2B05D0321C201C0523022178F766F9F0BC08BC184710AC09000003080074BD05006D4009006C21087D
:0541670000F402080055
:18416C0000B52C2216491748C0F706FC1548164B18601649016100BD0D
:2841840030B50D1C041C79F74EF8022D09D16B23185D002805D0201C88F737FB201C88F76FFB30BC08BC184705
:0841DC0000B57DF784FA00BD77
:54421C0010B5011C2831041C7AF7B5FC002819D0F8210B585B0706D4C3699B0219D40E4A13681B0402D5FFF7CFFF12E0E3698B4310200343E36199230B201855201C82F740F906E05023054988881853201C93F7B5FB10BD58
:3841E40010B5041C031C9A3313201870E3691B06DB0E0A2B03D10A21201C7CF75EFA201C82F733FA201C82F75EFB201C82F74AFA20687AF7A6FE10BD33
:0C4270007047C0468C070800D4200800EE
:1442940000B52C220B490C48C0F772FB0A4B0B48036000BD7F
:3442A8000A49CB6ADB0007D5094AD3885B00418C8B4201DC012100E000215A3001707047B0CB050068AC0900F403080054200800942008007A
:0442DC000020704707
:1442E000087B4008072801D10148886000207047F95A09009A
:3C43D8000C480D4908607047F4440800284508009CBE0500FFFBFFFFFC440800FFFF7FFFC04F08007DB40900E44E08001C450800FF7FFFFFF5420900F0C40800A4
:E442F40030B5041C002969D0012958D1400520D426E0364D291C3648B8F797FF2988281C262902D104F017FB13E0042902D17DF7E2F90EE00F2902D105F046FA09E0272902D103F0A5F904E089002A4A8958C7F7B8FA2748B8F791FF0028DAD0264B1C4020020AD57BF7BAFE0121C905234800230122B8F752FF224B1C4020042ED521490868037920490B7000230371B3F7F9FE7AF786FE002803D11C48437D002B09D01B487BF7B8FE82F701F81321162005F0EFFC01E07BF76FFE164B1C400EE002290CD1C00308D510490878012804D10D490B681871B3F7CAFE7CF75DFF201C30BC08BC184763
:20441C0000B5431E04490B6004490B78032B01D1C0F76CFF00BDC046E08A0E00380808003D
:FB443C00F0B587B0061C0491081C00210391A34C2064211C4431009100238B70A0488568002D00D16EE2AB7D002B09D0012203920023AB756361237810208343237006E06069002803D0012E01D971F785FE22691D27FF03002A50D0607A012803D19389002B4AD047E08F4B1B5C002B43D1BB68DB0742D4137D092B3DD204281AD1012E18D196756261237810200343237023683B6085490B687233187802282DD0002382490B608249086882490B6803600B68036022E002280AD1012E08D196756261237810200343237023683B6015E0032803D179498B78022B0FD0062801D0032805D1012E03D1BB689B0600D5C0E1122803D0102801D071F7AFFD6AD1
:FB4537004B985D029000287DD00123DB07334301936B4B6C490868986301236B490B606B490B689B0C9B040B600B6869490868034366490B6001230099CB7066490B6866490B6066490B6866490B60287C1A281DD164490B6864490B6064490B6864490B6064490B6864490B6064490B6864490B6064490B6864490B6064490B6850490B60634908686349086063492DE063490B6855490B6062490B6855490B6061490B6855490B6060490B6855490B605F490B6855490B6019280ED1FF2017302B562A3309DD5B490B683E490B605A49086851490860594908E059490B6839490B60584908684C4908605749086857490860A87B2318042801D3187800E03D
:FB463200205C6F2290431870C2E0A87B225C0F218A433107090F0A43225423180428049802D38107101C01E081071878490E6022904308431870234B464908689863009AD378002B00D1A1E022490B689B0C9B040B600B684049086803431D490B600023D3703D490B681D490B603C490B681D490B603B490B681D490B603A490B6821490B6039490B681B490B6038490B681B490B6037490B681D490B6036490B6809490B6035496BE0642C08006C210800ECBB0500DC02080060000F00AC2C080044020800882B08002CFC0E0060020800E08A0E00B88A0E005C0208006C130800D8FC0E0070130800E0FC0E0034AB0900CCFC0E003CAB0900DCFC0E003814
:FB472D00AB0900D0FC0E0044AB0900C8FC0E0040AB0900D4FF0E0010AB090014AB090030FC0E0018AB0900781308007C130800801308007413080084130800F8AA0900FCAA090000AB090004AB090008AB09000CAB0900D8FF0E00B82C080048020800BC2C0800C02C0800C42C0800C82C0800CC2C0800D02C0800D42C0800D82C0800DC2C080008689349086093490B6893490B60002101912868826A281C0021C7F771F8002810D026231A5C002A0CD08368002B09D00298002804D0802301981843019001E0012200E00022237880208343D0010343237020200499084001D00120C0037F4908600499090704D47D490B68802083430B6004998808012162
:FB4828004140A27880208243C8010243A2702868826A281C0321C7F737F874490B78012B01D077F7D7FF05A9714A13687020034018099DF724F82369002B14D0637A032B11D189F785FB002806D16A480368032B02D00368062B06D12B7C122B03D101230098837058E005988007800F06D003280ED1069B60490888834209D30398012800D1656171F7F2FB012300994B7043E00820B860A87B786223683B603B1C1833221D03929207920F02D1039909680FE00399891A0391D2000968D140049120218A1A03994968914001B40598014301BC1960BA69331C103B042B0DD2474B1340FF22013282401343BB61102E07D1444908684449086002E040481065
:2749230040B8610198002800D07861E5602672002300990B704B70281C8DF739FC012007B0F0BC08BC184737
:54499C0010B5254C234B607A185C002802D071F7E3FE15E06069002801D071F7EDFB27490868637A012B01D1254A00E0254A13680360116801600023234A136071F7F8FD002322490B60E3602361637244340120207010BD6F
:52494A00394B3949087A185C39490B68002814D00120800303430B60364A136836480340364A117849020B43354A1360354A1368302083431020184308E0324803400B602C490B682E490B602E4908682F490860704786
:7C49F000002803D103480368034803600020704730FC0E0048AB0900D8FF0E00648B0E00A4860E00D4C1080024860E001C840E00E4B60800FFF0FFFF9406080064FC0E00ECBB0500642C0800808B0E00B02C0800FFC1FFFF9013080088FC0E00B42C0800FFBFFFFFCCFD0E00AC2C0800400208004402080060000F0018800E00DE
:2A4C12000948044988617047C046C4C408006C2108000C2D0800201A080024860E006602080064020800814A090022
:FB4A800070B582B0061C65480168890602D5022073F7A3FB624C2568A3682360002D26D0002E18D19FF778F9002814D0C30703D52A68916900290BD1430703D52A68D169002905D1830706D52A68116A002902D0281CC6F7F0FE9FF77CF9011C2A685269002A04D0002802D0281CC6F7E1FEA0680026A84218D0002D21D02A681269002A03D0281C0521C6F7D3FEAE8123699D4200D126612B7D092B11D3281C74F76CFD281C74F7F1F80AE0002808D06369984205D166613B4800220121B8F7A1FE3A48C16E002904D0A368002B01D1C6F7B3FE71F73AFBA06800284BD08681037D092B20D26369984205D166612E4800220121B8F786FEA068A84206D101C6
:974B7B00684968002902D00523037508E0017D032901D0042905D101684968002901D0C6F78CFEA0680223037501680A69002A02D00221C6F77FFEA068807B1D4A136870210B401909884216D169469CF76EFE71F7E4FB002801D0174800E01748028800998907890F04D0032905D1019B934202D33F2301201855A0688DF764F901208DF774F9A66066603C3426716671012002B070BC08BC184716
:20533400A823195C002903D0011C64318B8ECB86011CC36F6431002B01D08B8E0B877047BF
:084C3C009E489F4988657047FE
:644C440000B59E4A9007800F01D1116808E0121AC0001368C3402021081A516881401943C90F97480170974A1068002817D0964A0260964A8260964AC2600123954A13700023954A1360954A1360954A1360012902D100F007F802E04068C6F709FE08BC18470000E1
:0C4CA80000B500F003F808BC184700003D
:FB4DD800F0B585B0071C0B1C0A1C514D002600960190011C02AC0BC401235B024D490B604A490868030C1B046B602E6053004A481C5A4A498C4211D18023D85D484A835C1B01484818188388002B07D0434C1034837A012B06D1414C203403E0002C01D12C6018E1381C8DF73DFB002800D040243D480368002B07D0602C01D1E024ADE0702C0BD1D024A9E00498042801D0022804D12B680120000403432B60302C06D17023D85D002802D02C4C703496E0502C0BD13B6FDB052B6804D50120400403432B608BE029480340FAE7244B30339C4255D101992031C87A002849D1061C79E0454C0900A0190800C005080030C8080044060800A94C0900D94D0946
:FB4ED3000081500900B805080034C8080038C808003CC80800D005080040C8080048C808004CC808009C800E0010800E00FFBFFFFFFF030000BC820E0010000C0068500800673D0200D405080070010F005C000F0074820E00B0B409000C800E00D8050800100100009005080024500800D4C40800FFFFFDFF0128B3D00228B1D003282BD1AEE7984B60339C4213D1039880304278002A01D1161C02E0022A00D10126837E012B00D10226437E012B00D10326330688E78C4B40339C4212D1029B28335879012801D0002800D1061C02990B8D58107F2801DC43062B603306286818432860286820437F4B70339C4203D023097E4AD15C0091302C0BD17023E9
:B24FCE00DA5D002A07D13A1C2832137D927A99180906090E009100990B0318432860FB7B002B04D06B680122D20313436B60FB7C032B0AD13F2212027B8C5B103F2B01DA9B069A0C6B6813436B60402C28D168490B78002B08D0381C8EF7C3FD03071A0A2B6813432B601BE00122D20402432A60B87B9CF74BFC40085F4908605F4A11689CF7DFFB5E4908605E490B68984204D2381C8EF786FD002802D00123554803702B68584803606B68436005B0F0BC08BC1847F1
:D4508000F0B582B00F1C051C0022009201908DF715FA504E002844D034684948017800291AD1A87B9CF719FC4008464A1060464A11689CF7ADFB454A1060454A1368984204D2281C8EF754FD00281BD001233C480370414B1C4015E06B6E1B0612D4012910D1281C8EF744FD00280BD1A87B9CF7F4FB4108344A11600023314A13700123DB041C432E480378002B03D001988DF77EFE0090314B1C40009803071B0A1C433460042F01D0022F05D13368012109040B43012107E02A480378002B06D0336828490B40002133602548017002B0F0BC08BC184711
:B84CB40010B564238B48037000238B4803608B4803608B4C236000F04FF87C4A9007800F01D1116808E0121AC0001368C3402021081A51688140194301204007014015D080490B68001403430B607F490B687F4803400B6004390B680120800303430B607B4B7C490B6003037B490B60674A9007800F01D1116808E0121AC0001368C3402021081A516881401943C90011D5734C2368002B02D0201CB8F789FB7049201C00231A1CB8F764FB6E480168201CB8F76AFB8FF7E6F910BD56
:6C4D6C0010B56B4C236801242343694C236001239B03684C23604F4A9007800F01D1116808E0121AC0001368C3402021081A516881401943090105D55D480368022003435B4803605C4800218160F421C16020210161E8218161E9214161102141624021C161016205239B04036010BD5A
:B051F00030B5041CC37C032B27D1037D0C2B24D11830437B002B20D121490B699C4202D18B68002B13D0418900680B1858010509A07B9CF75AFB854201D3281A03E0431B01200007C01A831F1648834205D3201C74F7DAF9201C73F768FE237D022B03D0032B01D0042B07D10F480379002B16D0201C71F7B1FC12E00C480369002B02D0201C70F746FF06494123585C012804D0002804D10B689C4201D173F7D4F930BD6C210800FBFFFF07A42C0800642C080026
:FB535C0070B5041C00253848436912219B0708D5364A1068364A106050304079122800D8011C43209DF762FF324BA360324B2361201C0830ABF703FE2168086063681D60ABF76CFE201C1030ABF7F9FD216808600420ABF77BFE6061062801DAABF75EFE201C0830ABF7EBFD216808606368002018600420ABF76AFEE060201C1030ABF7DEFD216808606368002018600420ABF75DFE6061E368C61A301CABF7ADFE042817DD01350C2D14D0301C042E08DDABF7A3FE8100081A2169081802382061CFE7ABF79AFE8100081AA168081A0230A060C6E7A16820690B1AE3614018C30F18184310236270BDC046181B0800D4CC0800B8B40900FF03000001FCFF56
:01545700FF55
:3041AC0000B5011C6831CB78002B07D04B7A002B04D18B78002B01D088F746FB00BDC0462CBE05003CAC0900300308008541090002
:3C558C0010B5A4F7C9FA0B494B699B070FD50A48036801200343084803600A249CF746FC013CFBD1044803685B085B00036010BC08BC1847181B0800F0FC0E0053
:FB546C00F0B5444D2B68987B9CF731FA46082B68996C301C9CF7C6F9041C2868011C94314A88002A10D094420ED9037D0B2B0BD00D2B09D071F795FA2B686433197F012000037BF767FF64E00B7D002B06D0CB88F31A1B041B0C9C4200D81C1CC36F6430002B06D00B89F31A1B041B0C9C4200D81C1C8A88B31A1A04120C944200D8141C0B881F1FBA4204D3CB7C022B01D30023CB74214E33889C4204D80020BA422ED303202CE073889C4201D8042228E0B3889C420BD9007F75F7B7FD002814D0037C112B11D115494B889C4203D829689431052215E08B889C420DD82968943106224A745E2383740CE0F3889C4203D829689431062204E0296894310747
:255567002200E0021C4A740B7E012B04D1531F012B01D804234B74F0BDB421080034020800EC0208009C
:1855C80010B5094C2C220949201CBFF7D7F90849E160084B1C6010BD21
:2455E000C27B4A4002D0838C05490B607047C046BCB4090034CC0500E155090010040800CC8A0E004C
:D0562C00F0B581B0041C00210091C56D8726F600002D04D1301C9BF79CFF051E03D0301C9BF797FF0090264F3B68002B08D1301C08309BF78EFF3860311C0831BFF7AEFC20480368002B0DD1301C08309BF781FF1C4A1060311C0831BFF7A0FC19480368002B07D03B68002B04D0002D02D00098002817D1E02300201851E565E4210B59DB0208D46358104803430B515022206807217EF7CCF90D480368002B0DD19BF764FF0AE0E5656060E4221359064883431351206807217EF7DBF9002001B0F0BD444408009C440800000010006003080039
:5C57040030B5E4221358012109058B431350051C7AF720F90024002800D0EC65E86D002802D09BF751FFEC656868002802D09BF74BFF6C60074D2868002802D09BF744FF2C60054D2868002802D09BF73DFF2C6030BDC046444408009C440800A6
:1857600000231360012805D10123DB040B6007239B031360704700003C
:7057A000B0B503685B011948C21880270F404906490E9068002827D00568281C041C002F06D0437B8B4201D0002300E0012306E0037B5B088B4201D0002300E00123002B0FD0A84205D1137C002B02D1D37F022B0AD0111C08319CF7B2FC201C9BF7A0FE02E00068A842D9D1B0BDC0467C290800D9
:1A582C0010B5002907D0041C71F78EF8201C6EF7F9FF012000E0081C10BD04
:0A585C0000B50B48B7F705FD00BDCD
:2E58660030B5051C00240849A300C818C378AB4204D1A300C8180421BFF7A3FB0134082CF1D330BDC046B8520800504708004C
:4C589C0030B5104D0D24281C0022111C91F722F9281C91F715F92035013CF4D130236343094818182C23195C022904D1406A002801D09BF77DFE0134022CEFD391F7CAF830BDC0467C2908008059080008
:FB59E800F0B584B0061C181C01AB07C300252C1C04F084FF00902F1C0199002918D0F37F022B15D1337C351C002B01D00C3500E008352A68101E00D01068002A07D01168914201D12C6001E00B6813600C6014E0357412E00A6801928A4201D1F76001E013680B6001990F60002C04D0236813602260141C01E0141C1260F1680029E9D115E01A680193111C9A4201D1B76004E0136801B40298036001BC0F60002C04D0236813602260141C01E0141C1260B368002BE6D1002D0BD02A68002A05D0136803602B681860286007E02860006004E0F37F022B01D10323F377009804F026FF12E02068051CA04201D1002401E0036823602F600399002904D002E3
:155AE3009900229DF733FD01E09BF728FD002CEAD104B0F0BD4F
:01AB1C000A2E
:2E595C0010B5041C184908680007000F01280BD80B683F2000020340190A144A906EFFF7B5FF134A9378A37410BC08BC184797
:4A598A0010B5041CB3F7B9FF0F498B78002B07D1A37C0B498878834202D0201CB4F789FD10BC08BC18470E0200001CAB0900A90300007102000000980E00A88B0E0038B0080074150800AC2108008C
:7458E800F0B582B0051C0E1C041CB0346946207B9BF7D5FF2C482D4A1178431AF6000198991940182A4B984201D3032005E00121284B984200D30221081C009943185808031D5808860176092188301C9BF76CFF6788391C78F7E8F9381A4308AB80831958014009A0601422291C1B4804F0CEFF02B0F0BDF4
:0C5AF80000B591F737FF08BC184700000C
:4A5B040070B5C369DB021AD5061C041C9034E278002A16D1002914D180F755FE051CB66C002E0BD0A0880C214843124941431248BFF762FB011C301CB7F77DFCE570012000E0002070BC08BC184724
:425B4E0000B50B48072104F0E6FE0A48B7F782FC0A4A1368002B00D00123002B01D075F790F88B230648036000BD71020000D43000002C2D080020C50800EC2F0800EC8A0E0029
:145B980000B50121C90505480022B7F76DFE08BC18470000A9
:145BAC000248034948607047FC440800995B09009C450800C2
:5C5BD80070B5041C0E1CEC300068002807D5E069C00104D5211C3C31201C95F709FDE06940021AD5656C07232B70FF236B70AE70211C2831E81C0622BEF7B8FE00236364E069012189058843E061EC210859400040080851281C94F755FF70BD39
:165C3400C169012292051143C161EC2319585A07114319507047AB
:165C4A00C169032252051143C161EC2319585A07114319507047D3
:085CCC0000F002F891F75BFF04
:3C5CD40010B5041C8168002917D00868002814D0037B5B08132B10D1E37F022B0DD10A688A4202D10023A36001E013680B60002313609BF71BFC0323E37710BD43
:285D240010B50C1C0368002B0AD190F767FF002806D00121207F8140024803688B43036010BDC046742908002E
:185D5C0010B5041C04F0D0FDE369012189048B43E36104F0D1FD10BDED
:285D840030B5051C041CFC342068002804D0B7F766FB20689BF7D2FB281C84F78AF82868FFF75FFD30BD000017
:0C5DAC0000B5FFF7E5F908BC184700003F
:74517C001B480378002B18D01348C16BCB0714D581691022114381610521C26BD20708D503680822134303600368934303600139F3D1816910229143816170471001000024060800B805080038C8080034C808003CC80800CC05080070820E00FFFFF7FFFFFF0FFF45C80800FFFFFEFFB0B4090030C8080042
:2E5DC400124A1178880601D507200FE0C80601D506200BE08B0701D5052007E04B0701D5042003E00220CB0700D50320704757
:225DF2000021064B1A78530700D504218175002141778177C177143001734173704754030800B6
:3C5E2C0010B50B4C2368002B06D10A489BF7A1FB20600849BFF7C2F8074C2368002B06D104489BF796FB20600249BFF7B7F810BD44440800400400009C440800C8
:166E500000B5102802D1FFF721FB03E0112801D1FFF78CFC00BD31
:785E740010B5021C00231370031C2833022018700123D370C878907306282AD80C1C01A1095C8F4406101A242E384200211C101C00F022F81FE0211C101C00F040F81AE0211C101C00F0C5F815E0211C101C00F0E9F810E0211C101C00F015FA0BE0211C101C00F06CFA06E0211C101C00F089FA01E01223137010BDC5
:465EEC00011C0831CA1D93079B0F02D10F23136005E00F231370002353709370D3700A1C0B3293079B0F02D10023136004E00023137053709370D3700123CB736B230B740B23C370704787
:FB5F3200F0B584B0071C0C1C04260123029348790002097908430190AFF7A4FF00280ED06079000221790843AFF731FF002801D102233B7000230293BE30027808E00198072178F72FFE002801D102233B7002683978081C5AD1BB4D2B7B03930123834001B40498034001BC0BD003B41C2141434B19DB8B0398834203BC05D10C21397005E0042E00D1061C01300428E3D300293CD1042E02D107233B7037E0281D0299002900D0281C012393400168194301601C20704340190199C1831030A3798374E379C374237A0A214B430382637A03750024002B02D0FF2B00D0012484760299417642750023191C1A1CC3760EC0038083720398002804D1A86010E6
:19602D002101227DF713FD0123B340287B184328730123FB7004B0F0BDF2
:5260460070B5041C0125487900020E790643301CAFF71EFF002808D0301CAFF7AEFE002809D00025BE30017809E0301C072178F7AFFD002802D10223237000E001682378002B03D1281C00F06EFA20700123E37070BDF2
:C8609800F0B581B0071C0E1C0024C47308300090744D0123A3402868184002D00134082CF6D3082C01D107233B703B78002B47D1087A01282AD305D003280CD314D0042824D11AE02B1D1C206043C1180831301C00F03AF81BE02B1D1C206043C1180831301C00F086F812E02B1D1C206043C1180831301C00F090F809E02B1D1C206043C1180831301C00F0DFF800E012203870000615D131791C2060434019017173794371B1790A224A438271F379C371337A03720123A3402868184328600098C4710223FB7001B0F0BDCF
:AA616000F0B584B003910024251C0190221C0A300090261C3BE001352D062D0E3F490120A8400290E4235A58024001D0042DF2D3042D01D1072036E0601C0206120E0098035D9F1EE8316C016754031C60183F043F0C541C2106090E9B5C43704C1C2406240E009A535C8370111C3A1C61180330BEF7D8FBE4192406240E03990A680298024301352D062D0E01363606360E039802600198437A9E42C0D32048E430036813430360002004B0F0BDAE
:26620A0010B50C1C011C407A032801D8002801D1122007E0184A825C22700A31601CBEF7ACFB002010BDC1
:1A62E00030B5041C0D1C081C211C0A310622BEF749FB637AAB71002030BDB3
:B0623000F0B581B00F1C0090FF25002419E01D2040013058E040C0070DD5FF20813031182001401810220099093104F02BFB002804D13C7037E0FF2D00D1251C01342406240E044908E0C04664AB090094AC090093A909001DAB09000878784E8442D6D3854222D2291C0098093001F018F9301C8030A900081800210160680081530720C00130180122AA40416A914311434162036A13430362FF2343557520C000335C013333543D70002000E0072001B0F0BDBA
:B862FA00F0B581B0071C0C791220082C01D3387006E00C200123A340574A11681940F6D03B78002B44D1534E0120A040326882433260311D1C20604345182B79032B1BD1002001238340134008D01C2343435B1801B4287A1B7A984201BC0BD001300828EFD304F0D2FA0090287A00F0EBFF009804F0D3FAFF232B722B79012B04D1E4363368A8688343336000253B480123AB400168194009D0031C44206843C018407FA04202D1281C00F01EFB0135082DECD30123FB7001B0F0BDAA
:4463B20070B50D792F4C4523DB00E2181378002D02D0002B12D001E0002B02D10C2303700CE00021231C083344264E43F6183C360023F370337101310829F3D315700123C37070BDCE
:8263F600F0B581B0071C0E1C041C487900020D790543281C012178F7E3FB0090281CAFF7D4FC002363747079000231790843E073000A20740834009A002A05D0211C0931106877F7E7FD11E0281CAFF729FD00280AD0281CAFF7B9FC002805D0BE300078B2F7FFFE607201E002233B700423FB7001B0F0BDC046FCAD090094AC0900A8B10900F2
:2C6DE80070B5061C0C1C151C0821FF2093F7E7FE00280AD06B2383700123C37006714471210A8171C57193F765FE70BDB5
:3C6E1400F0B581B0051C0091161C1F1C0D21FF2093F7CFFE041E0ED06B2383700223C3700571C6720773009905300622BDF7A0FD201C93F749FE01B0F0BD0000F6
:03A99400020410AA
:39A99700FB349B5F80000080001000000000000000000000000000000000000000000000000000000000000000000000000000000000000000000000004E
:1C666400012909D1436803208003034001208003834201D1012000E0002070476F
:0C64780000B52021764804F051FA00BD68
:1864840010B5754C2378002B03D0102100207DF703FB0023237010BD9B
:D0649C00F0B581B06D4E337B002B04D01021012200207DF7D4FAB0680130B060830701D1431CB36000210091012300998B40307B184046D0331C10331C204843C5182C1D0027AB7D002B14D0EA7DE989002000F07DFCAF75AF60AF810123EB76AB7E002B03D0207CB16843182B60A089B16843182360E37D002B17D0B0682B68984213D3A37D002B10D0217C0B182B60208900280AD06168BEF78CFE0206120E6189002000F054FC67602781B3682068834208D3E37D002B05D0E775227D6189002000F045FC0098013000900428ADD301B0F0BD96
:5C656C00F0B581B000900C200022384D2C7B012393401E1C23401CD02B1C10331C275743FB185B7D8B4214D1B4432C732A1D0098002800D02A1C01238B40D94313680B401360002C03D1102100207DF771FA002002E00132042AD8D301B0F0BDDC
:9C65C80070B5234C036DBE331D780123AB40616819403CD0002201239340217B194033D0231C10331C215143CE18311D737DAB422AD1737E002B27D1CB7D002B17D08B7D002B07D00B8901330B814B68124A82569B184B60104BC0560F228B56984204DD8889A26883180B6011E008750FE00A4BC0560E228B56984209DB8B7C002B06D101238B74C87402E00132042AC3D370BD64AB090070AB09001601000038
:1466FC0000B58B21944804F00FF95A21934804F00BF900BD46
:6C67100030B5904D2B68002B03D0112100207DF7BDF900240123A340286818400FD02B1C083344206043C0183E23195C002906D0427D011C1731807D002300F063FB2B1C083344206043C0183C300023C37003710134082CDED32B607B4803604521C9006B1800211970E430016030BD74
:A8677C00F0B5754F3B68002B04D01121012200207DF765F9786801307860830701D1431C7B6000250123AB403868184038D03B1C083344206843C418261C3C36B378002B16D078682368984212D37379002B0FD0217D0B182360A089002809D0A168BEF737FDE081281C00F03EF80023A360A381F378002B05D03379002B02D0281C00F032F87B68606883420AD3B378002B07D00023B370627D211C1731A07D00F0FCFA0135082DBED3F0BD2C
:3E68240030B5C578AA1F1206120E44234B434A49CC1881780B071B0F4849C95C61771F2A00D90022A277062D05D94368991D201C1F30BEF795F83F340120207030BD37
:7C686200F0B581B03B494522D2008A5C002A33D04422424308318D182F1C3C37FB78002B2AD0AA7F00920A321006000E011D3E2094F798F9041E1FD00220A0700120E070A61D687F2071A87D6071291C1731301C0622BEF766F8009A22730736291C1F31301CBEF75EF8EB8900997354201CB0F7B4FA0023FB703B7101B0F0BDF4
:FB68DE00F0B584B00290039108274168C278130285781D43019553180322985600250090021C144E0123AB40306803400ED0331C083344246C43E4180E23E35E934202DA1A0612162F1C0135082DEAD3082D05D1082F03D2381C00F054F83D1C082D4DD244226A439419039961771C234B43054A0BE097A90900A8B1090094AC0900B0B1090014E3050098AC0900D218137823765378637693786383D378237708340022002B02D0FF2B00D00122271C3C377A713268002A05D172601121012200207DF75DF87268237D9B182360638A9B1863600023BB70A360A3810099E18101990B069A0FA27502984168201C17300622BDF7DAFF0123AB4032681A43328E
:0769D90060281C04B0F0BDB2
:4669E00030B5B54D44234343291C0831CC18211C3C310023CB700B71012282402B6893432B608B78002B06D0627D211C1731A07D002300F0FFF92B68002B03D1112100207DF73CF830BDD5
:246A260030B50024051C00F008F9011E08D0281C00F008F8041C9F4A117A002900D10C1C201C30BD27
:FB6A4A00F0B584B0051C0C1C80786968019100236946CB704306D90F0391029100260123B3409249086818401ED0442070434718BB7F08370299994216D1391C17310198062203F012FF00280ED10121787D8140214009D06A460332311C281C00F05BF80121787D81408C430136082ED7D3002C4DD002990198FFF7D0FD002832D000270123BB400293234027D01C237B43794818180079032820D100260123B34073490868184016D0442070434018437F0830BB420FD1039A8275696817300622BDF73CFF6A460332311C281C00F024F80298844302E00136082EDFD30137082FCFD3002C14D000270120B84020400CD0391C281CFFF7CFFE061C082E0854
:1B6B4500D06A460332311C281C00F007F80137082FEBD36946C87804B0F0BD83
:E06B6000F0B583B0071C01910C1C02924068FB78C3180320195600914F4E44236343301C0830C418251C3C35AB78002B21D011202356994203DD608A7368C31863606B79002B0BD0A3890133A381A368009A9B18A3600199381CFFF735FE3FE0237D002B3CD14049705C002838D002980121017034E010202356994224DB0121A970627D211C1731A07D012300F014F97068638A1B1863606B79002B02D0237D1B1823600023A381A3602F49705C002814D002980378002B0DD00199381CFFF703FE01232B7109E0237D002B06D12649705C002802D00298012101700099E18103B0F0BD9D
:FB6C4000F0B587B0C1780B0281781943069142680023FF2401A81CC01B4A1068002800D19DE04B06D90F04910198FFF7FBFC002805D001980022022100F0AEFB039000270198851D06988304990E8C1F0123BB4005930D4801680B407CD01C2179430E18317A0436012975D323D003295AD35CD004296FD15EE0C046A8B10900C8B3090098AC09002802000094AC09002978002960D04B1CA3425DDC311C0831281C00F060F8002852DA2B78591C641A240624166D18012CEADC4DE0297800294AD04B1CA34247DC6978022926D3032904D9142902D0162920D116E000210DE0337A311C09312A18901C0222FFF7C6FC00282DD0009802300006010E0091083B
:676D3B001C29788B1E9842EBDB08E0337A311C0931A81C0222FFF7B2FC002819D02B78591C641A240624166D18012CC7DC14E0337A0398834210D10BE0B37B049898420BD1311C08310198062203F096FD002803D102980599084302900137082F00D271E7029807B0F0BD21
:466DA200F0B5061C0F1C00240123A3403868184011D063010B481D187378687883420AD12A78B31CA878C118E81C03F072FD002801D1201C04E00134042CE5DB0021C843F0BD7CAD090044
:3866800070B5051C0E1C141C8B4214D9042B07D103782370437863700023E370A3700AE01022AB49201CBEF76DF9321C291C201C0C30BEF767F970BDA8
:4466B800F0B581B0141C1D1CAC4215D0061C0F1C6A460232AC4206D22B1C211CFFF7D4FF2A1C391C06E0231C381C291CFFF7CCFF221C311C6846023004F0E0F80006001601B0F0BD7D
:D0A9D00031B80200996E0900816F0900017009005F70090031B8020031B8020031B8020031B8020031B8020031B8020031B8020031B802001171090031B8020031B8020031B8020031B8020031B8020031B8020031B8020031B8020031B8020031B8020031B8020031B8020031B8020031B8020031B8020031B8020031B8020031B8020031B8020031B8020031B8020031B8020031B8020031B8020031B8020031B8020031B8020031B8020031B8020031B8020031B8020031B8020031B8020031B8020031B8020031B8020031B8020031B80200AC
:246E740030B5051CCC78342C00D30024A000AD4A8258281CC4F712FD2823585D022800D1AC7330BDD3
:3A6E980010B50B1D9907890F01D11A6808E05B1AC9001C68CC402022511A5A688A402243A04B9A4202D8A0490A6001E0112303700123C37010BC08BC184731
:806F8000F0B583B0051C0C1C734A03CA01900291237D012B07D1A07EC0210140402902D112232B7028E0211C153101A80622BDF7E9FC6A46217D01A800F00EFA071C03F0A1FC061C624B1878874204D2391C201D00F07DFA0AE0009B834205D2227D01A9201D00F08DFA01E007232B70301C03F091FC281CFFF7BBFF03B0F0BC08BC18473E
:5E70000070B582B0051C0C1C544A03CA0090019112232B704F4A137A002B19D0611D68460622BDF7AFFC21796846002200F0D4F9041C47490B7898420AD203F063FC061C201C00F07CF9301C03F064FC00232B70281CFFF78CFF02B070BC08BC184700
:20705E0030B5041C03F04FFC051C00F059F9281C03F051FC201CFFF77BFF30BC08BC18472D
:6471100010B5041C0A1C09790D480378994205D2D078FFF7ACFF2834002000E01220207010BC08BC1847C046D0A909001F10040050AB0900A8A90900E44E0800321508001DAB09009CB10900B0A90900B8A90900C0A90900C8A90900FCAD0900FF7FFFFFE9FC000082
:5C6ED20030B583B0051C0C1C9A4A03CA01900291B0F7DCFC002802D00C232B701CE095498B7D95490878834201D30723F5E7211D01A80622BDF73DFD6A46E17801A800F08BF98D490B78984201D21723E5E7009AE17801A800F0B2F903B030BD06
:406F2E0030B582B0051C0C1CB0F7B2FC002801D00C2012E0211D68460622BDF71CFDE1786846002200F06AF97D490B78984203D200F0B9F9002000E01220287002B030BDF7
:92707E0070B58EB00C1C364B06CB02910392354B06CB0091019205A98870CC70334DFF208130291820014118102204AE301C0830BDF769FCA1008031685802906000405B0390FF2001302918A0004058009061004031685A264908400190E92080002858E040C007C00F0AA9087002A9301C19300622BDF748FC6946301C1F300622BDF742FCB31D1F221A48002193F794FF0EB070BDE7
:126F6E00784A1178784B1A7A8B1AC3730223C370704785
:03AB1D0020000015
:1071A40000B5EB21A54803F0BBFBAEF7E2FE00BD42
:2C71B40000B54121A24803F0B3FBA2480021C182017600F026F82022FF219F4803F078FB2022FF219D4803F073FB00BD26
:3671E00000B5B1F719FB00239749CB750B7600F012F800200AE097490B5C022B05D301230B5420314318FF211970013092490B789842F0D300BD33
:1472160000B5FF219048032203F051FBFF238E48437200BDE9
:64722A00F0B5061C0F1C151E01D0FF231360002422E08148011CC031095D002915D0FF2101310122A24041581140FA07D20FA240914210D1062161430818311C062203F024FB002807D1201C0BE0002D03D02B68FF2B00D12C600134754803789C42D8D3FF20F0BDD6
:46728E0070B5061C141CCD076F4801230355031C20339918FF230B70EB0F9340016C19430164311C062353436348C0180622BDF762FB6848037801330370221CE90F301C00F04AF970BD05
:4A72D40010B55D4A115C634C2378994204D25B4BCB18FF2119701154594900230B540B1C20331A18FF231370012282400B6C93430B6406210B1C43434D48C018BDF75AFE53480378013B037010BD10
:20731E0000B5EB21474803F0FEFA2022FF21474803F0C9FA2022FF21464803F0C4FA00BD0F
:76733E0070B53F4C0721C9016518295C420000231353221C803283009A1800231360221C403243009A180123DB031380DA11A3188200D2180023136001228240D6436B6A33406B62354A1378994203D2304BFF225A542A54FF2181316118000140181021BDF713FE2B6A33402B627520C000235C013B235470BD55
:2473B40010B52C490A7890420AD20121814005E0224C236A0B4004D1490001309042F7D3FF2010BD66
:F673D800F0B586B0041C01230193FF23181C03AD13C50120002A00D0136013490E1C049B022B08D3FF230133CD184036059B5B685F047F0C03E00D1C8035059B9F88002452E01D235B01CB1802931B68034041D0338801B40598022801BC1DD302B40D490B40019302BC26E0FCAD0900689B0800E44E08007EB409007CB10900289C080032150800FD4E08009CB10900FA4E08001DAB0900FF7FFFFF0093029B5B68E340DB07DB0F01B40598984201D0002000E00120029001BC019B002B11D0059B1B6801B42868834201BC0AD1009B9F4207D103940DE0002A03D01368FF2B00D1146040000435023601345C4B1B789C42A8D3039806B0F0BD5A
:3274CE0030B50C1C594DFF2181316B182201011CD0181022BDF74FFA281C4030610008180121C9030180C8112818A4000021015130BD6C
:66750000F0B50E1C171C1C1C191CFFF7E0FF4A4D281C8030A1000818316801606000B18841531D2040012918FB07DB0FA3404A689A4313434B600123A3400A681A430A600B7A01330B72311C381CB1F7F7F80721C90169180855085D38490B78984201D2374B1C54F0BD1D
:2075660010B5141C0022FFF734FF30490B78984202D23249445400E0FF202F4B185510BD55
:6C75860070B5041C0D1C2E480368DB072DD50B78012B2AD16079C0210140402925D1201C00220221FFF715FF21490B7898421CD2204B820080329958221CA607B60F01D1116006E01170090A5170090A9170090AD1704100C95A2171090A6171E92189005958C140C807C00F287070BD79
:1675F200FF2807D0154A5076154A517215490B180220187070475C
:5076080000B50C4A137898420ED2104A135C022B03D3021C002907D003E00A490A7E012B02D1111CFFF7E1FF00BDC0461DAB0900FCAD0900321508007EB409007CB1090050AB0900E44E08009CB10900289C0800D2
:1676840010B54468B0F7FEFB002803D1201C01D099F754FF10BD26
:52769A0030B582B00D1C141C0F210622224000D027216A46118090708304980ED070402099F72BFF0190002811D04022291C03F014F97EF7BEFB6D46E978019A8B18D870E878019943181C71281C78F7BCFA02B030BDA1
:7476EC0070B5051C00244068B0F7A2FC00282FD1A14E7068002825D03168002907D00A68012001E0013012688A42FBD1011C9B48038899421CDA0C2099F7F6FE002817D06B684360EB784372AB7803723168002904D00B6803600860306001E030600060012405E0AA78E978686800F003F8041C201C70BD30
:82776000F0B5051C0E1C171C88490868C0070BD50020FFF71FFE864CE075E07D85490B78984204D300202BE0814C0023E37501232360201D042103F0C5F8002001194319DB780B712B5C0B7501300328F6D3A5616677277703F0A6F8041C77488368002B06D176498160C060002383826CF7A4FE734874498160C060201C03F09BF80120F0BD52
:6077E20030B584B0041CB1F729FC002826D1644D686800281FD064480368E97EDB0703D508016849081802E0090167484018291C08316A46B1F7F3FA291C18316846032203F047F8002801D0002000E00120B0F7B4FB002802D00023A360E36004B030BDBB
:D4784200F0B583B001244E4D50490B6800281CD1E87E0130DB070BD5FFF7ABFDE876E87E4C490B78984201D2002000E0012008E0E876E87E4E494B78984201D2002000E0012000283DD1041C41E0DB072AD5EB7EED69474EFF20013031189800421800922A1CA907890F01D1286808E06A1AC9001768CF402020411A50688840384300990860301C403059000918687900022A79104308800720C0013018C05C0121FFF792FE0EE00F2301AA13801835697AD1702B7A9370686802900B18181D1223037002E0122301A8038001A878F7A8F9201C03B0F0BD35
:3A79160010B5B1F709FD26490B689879012801D1AEF736FB21480378002B03D116480368DB0709D502F0E3FF041CB0F75BFBB0F766FB201C02F0E3FF10BDBE
:6C79500010B512E00468211C844202D10023094800E02368036000230B606068002801D099F7E6FD201C99F7E3FD024908680028E8D110BDA08F08003415080050AB0900A48F08001DAB0900E89C080031CD0400A8B008004F7F04007CAF09006E9C08006C9C0800FCAD0900C04F080042
:6879C80030B500252C1C1CE07448011CC0310B5D002B15D0192D0ED2714A137E002B00D1147602230B55E0300555211C201C00F037F8013504E001230B55E030FF2101550134684803789C42DED3192D07D22C1C03E0201CB0F72EFF0134192CF9D36049CD75FFF7F4FB30BDD8
:387A300030B55F4B1C5C5F490B68DB0710D500215D4A13789C420BD25C4A63009D5A2B0405D463000121C90329439952012100E00021FFF7D1FD30BDA3
:547A680070B582B00C1C4D4DFF2101316958C140CA07D20F4C4B195C4C4E3368DB0710D54B4E337899420CD24B004A4E9E5B330407D401228B004848C35800930196694602E0062148434119E035605DB0F7BCFE02B070BDC6
:607ABC0030B5151C0024012928D14368032189030B40012189038B4220D100220221FFF77DFC36490B78984216D2354A4300995A0B0404D543004904490C99520124002D08D03149405C2A4A1378984206D2211CFFF77CFD082002E0022000E0002030BD60
:487B1C0070B500242948255C294A507A2118204A1078BDF781FB061CFF2D11D0FF280FD0011C281CFFF792FF2248835D4355B54206D0011C2039731801211970FF2383550134032CDED370BD9A
:747B640030B51048437EFF2B19D00024251CFFF7D3FF211C0BE0164A505C022806D301305054505CA04201D9041C0D1C0131064803789942EFD303490D76FFF73AFB30BD689B0800E44E0800321508007EB4090050AB09001DAB09003CAE0900FCAE09007CB10900FD4E08009CB10900489C0800289C080052
:907BD80010B582B01D4C21684306D80F6B469A07920F01D1196006E01970090A5970090A9970090AD970164C216801AC2170090A61706946B0F796FD0006000EFF2819D00021104A535CFF2B11D15054193A127E0D4B5A720D4C0223235489181920BDF71DFB0006000E01232354181C03E001310329E6D3002002B010BDC04680980E0084980E00FD4E08009CB10900289C080026
:A47CBA00F0B5051C13235B049F4F3B60082105206DF768FF9D4F3B689D4803403B603B68C00703433B608B4F3B6802273B43894F3B60974C984820620123974F3B60974FB868606278686065A8692430C17880220A43934F3A60934E8378B07B002B0ED1924D0021B0F791FCB169081C243042781302007B18430022B0F79EFE09E00121B0F783FC8A4D8A4A13680120400603431360884805608848838A8848036000232360F0BDA5
:307D5E000523838183692633187801280FD10021CB4382490B6000234B607D490B68802003430B607A490B68800403430B6070470C
:567D8E0000B5C369002B23D013235B04694A13605F4A13685D4A13605B4A1368594A1360554A1368644A13607248724A11684160724A11684161714A11688160714A13680360704A1368704A136061486EF771FE08BC184700001F
:6C7DE40030B5052383816C4A116806220A40062A02D181692A3108E08B0702D481692C3103E04B0704D481692E310B8801330B8013235B0449490B605049CB69002B12D1524C2568C37B012B0CD12368802083432360022099F7A9FF80231D43A06899040843A060256030BC08BC1847C6
:187E500013235B043A4803604148C369002B02D14348036803607047DD
:107E680000B5002901D1FFF724FF08BC184700001E
:5680A800F0B50C1C171CADF762FE061C201DB4F741FF051E1ED0B18D0B051B0D012040031843210408432B1CA907890F01D1186006E01870000A5870000A9870000AD8703A06120E2104090C281D91F7BDFC281CB3F7ACFAF0BDA0
:2A80FE0030B50C1CFF233D3343430548C51802F0FAFBA2352C8002F0FEFB30BDC046F44E0800349D080038B00800AE
:C07FE800F0B581B0051C0C1C08790002C978084352D00020ADF7FAFEFF2801D109234CE0071CADF7B4FE0023038121790902E27811438186C186051C83F7FDFB2E1CB03673885808E8806379252B0ED2394800900521BCF7C5FF6179C8084907490F01228A40009B195C11431954B07BFF233D334343314819180091281CB0F7B0F82F4885662521281CFDF73BFC307B0021B0F7E5FA0523AB80381CB0F730F900999E3101200870381C002100F035F8A279E179381C00F005F801E012232B7001B0F0BD22
:A0815800F0B582B00D1C041C002D06D1CC23195C002902D000239E490B80022D03D0291CB2F75EFD10E0E37B012B05D1236B002B02D046231B5BA381FF200830205C012802D8201CB3F770F9924A10680A38904A1080012D20D16946A07B99F778FB8E4D287800280BD100988007800F07D003280FD1884A13680A3B0198984209D3874E777A337A73726EF73AFA77720120287002E0201CB0F7ECFB02B0F0BC08BC184785
:28825A0070B52C2267496748BCF78FFB66486649086066494160664A674901611830664C674D674E74C070BD52
:FB83400070B582B0051C041C8034E37A002B08D0036DBE3319780820AEF792FF0023A376E3726378032B28D0A87B99F7B6FA4008218C431A1E04360C618C00291DD08E421BD36078012806D1688CBCF75FFF062803D13E2002E0042803D008202B6DAF33187003236370281C6EF711FB2B6DBE3319780520AEF764FF58E06068002808D00090002301936946A87B99F7D8FB002363606378032B38D0FF201930285A864230D825E0FDCC0800E4B60800EC010800AB210800642C08006C21080078E405000CB4090078150800158309001985090059810900318109009D860900F9810900349D080009C1080054AB090064AB0900A87B85F7D1FD002804D12851
:35843B001CB3F70BF8002802D0A349C8780CE06378002B07D1A14BA87B185C032802D29E49887801E09C494878A874281CB2F7E7FE02B070BD97
:2C83140000B5017D032901D0042902D1B2F72DFD09E0037D062B02D100F008F803E0092B01D1B2F753FD08BC18470000D8
:64869C0010B5041C11490B689B0711D5C37B012B07D1FF200630205C002802D1201C6FF720FA8123185D012802D1201CFFF7D5FF10BC08BC1847C04674150800E3C00800FDCC08001C800E00FFBFFFFFBC8B0E0054AB09008603080014010000ECB008001CCD08005B
:2686760010B5021C803202235370036D598909015184041CB2F77BFC236DBE3319780C20AEF7F3FD10BD50
:4684D20030B5051C041C9C34036DB8331968A08899F79CF9002815DB2B6DB8331968A08899F78DF92B6DB2331988884208D340180131C901BCF779FEE070E078802801D98023E37030BD9D
:6281F800F0B5041C056D81300078002814D1A07B99F767FB47082E1CB8363168381C99F702FB00281ADD3168381C99F7F5FAEB785B0098420ADB0EE0201C01216FF72BF9002803DB6E4A13689C4204D1B23529880439884202DB201CB2F7ADFFF0BC08BC184704
:54870000F0B5061E20D00768002F1DD0407CADF732FB051C707C182141430C484418786890F7D1FF98F752FF381C98F709FF00233360217A01312172217A05480278A88D90F706FF00232372F0BDC046F4B008007C150800EF
:80875C0070B5051C0E1C041C8034A37F002B1ED0B0F7D7FA184A537C012B09D9E37E002B02D1A08BC10603D5311C281CB0F79CFACD23585D00280AD0FF230533E818837D002B04D04378002B01D1012383700B490B681B070FD56378022B0CD1FF201630285C002807D0A0898004800E0023002800D10123237670BDECCC0800E02C0800F2
:FB87DC00F0B5041C051C3A4806689835A8880712F306D90FE9707307D90F0307DA0F002F04D0344803685B0300D5111CFF231533E0184378002B03D1002901D0012343708A4216D0AB79002B15D1002F08D0D0231859C168C91BC16002D48368DB1983600122AA71201CB2F7F1FD201CAFF7E4FD01E0002383713307DA0FA8884307D90F8A4234D11C4F397C0A0702D5B304990E2DD1184A13689B0303D5B3079B0F032B25D004214840A880251C5035AE87B304980E1CD020221149BB68181D02F02CF8CC342078800712D50D490B68012080030340580B0BD02B68BE331878ADF75DFAAF303D210170012028870023AB87F0BDA88B0E00E02C0800ECCC08BD
:0988D7000080980E00BC8B0E001D
:1888E00010B51F4C2068002805D08008800098F727FE0023236010BD9C
:3C88F800F0B5051CC668B469002C16D0B0F79BFB002812D1154F3A1C211C1331E01CB0F773FA381C00F00AF80023AB60EB60A008800098F709FE0023B361F0BD2D
:1689340000B582B0262369460B800190081C77F78DF902B000BDAB
:22894A0000B54368002B04D010220448002192F76CFB00BDC046E49C08009EB409001720000040
:9C898800F0B583B00291FF233D3343432248C618356D01F0B3FF371C90372C1CB0348E239A5B02998A1A1204120C638853433A6FD21851014909019101F0A8FFF37B012B0ED16B8B5B000093288B4000019A101841014909181CBCF729FCA0800098E080281C82F718FFF37B002B0ED1E68870086883A188019898F707FFE288011C101CBCF714FC301A400828830298431E3B800123BB7203B0F0BD349D0800D0
:B48A2C00F0B581B00090ADF7A0F9041C0027364E336BDB071FD5B4421DD0251C2C354223A97D9A5D914216D1291C1031301C3C30062201F029FF00280DD101F04DFF051CBE36307800F036F8281C01F04DFF3078AFF756FC03E0C03601370F2FD8DB0098B2F7A7FD251C0123EB852C35201C81F78FF800980021AEF78FFA1C4A13681021DB0603D5A971201CB3F71BFC201CB1F7D9FDBE342178FF223D325143144BC9187F23FF2023300B54A623FF2017300B5401B0F0BD0C
:408AE00010B5FF233D3343430C48C418201C80304178012907D1418C608CBCF7A7FB062803D13E2002E0042903D00820236DAF33187010BD2890080040150800349D08006D
:BE8B2800F0B5051C046D3C4803689D4201D1B0F7EFFA281CB0F72BF92E1C8036308901380ED33081308904237370002808D1281C6DF739FFBE3421780520AEF78DFB3DE0707800281FD1A87B98F7B3FE4008B034A16898F749FE01239B0698420CD267883B1859014909381CBCF734FB7843A168081840014009A060A068002373700223EB74A86117E0022815D1B37E002B12D0F37A002B0FD1F089318A431A1904090C164B994207D2002902D0281C00F007F8281CB2F77EFA281C6EF797F8F0BDD2
:428BE60010B5041C006DB2231A5A4A43A3699B1AA3617834238BE3820369DB04DB0E0A1C5A43E07825234B4325339B1AC018252175F77BF8E07010BDC0466C210800FF7F00003C
:8C8C6400F0B5051C1F49FF230533C418E378980000230B544318581C00230370AF692B6D1889421C267C688C5043B04063681B1858014009381A01239B06984220D2B31D20789840A368D901EB7B002B00D15143E268824200D3101CBCF79EFA011C802800D980219F352970074803789E4202D2701C207404E000230434191C381C0BC4F0BDC046ECB008006F150800C4
:8C8CFC00F0B5061C071C9C373888102101401D490BD01D4BF518EB7898000A5C9301AA68D218AA604318597811E0174BF518EB7898004118487800280DD08C78097861438901BCF75DFAA9680918A960211C8B01E868C018E8602B7C002B11D1E86800280ED0AB68D901F37B002B03D1336D1A8901325143BCF744FA802800D98020F870F0BDC046ECB008000401000032
:588D8800F0B50D1C114C20600B68DB0701D598F73AFD0F4E0020706637680E483840306099F746F899F744F82868E0606868A0600220706699F73CF899F73AF899F738F837600020E060A060F0BDC04600820E001C800E00FFFFFFFD51
:788DE80030B5041C80304378002B1BD10323E374252101230B55837E002B07D0236DD98B09014184A36903840123C372618CA06974F77AFF238C984204D02084216DB03188800880FF230133E158E518A06998F7EBFC216DB2310A88011C101CBCF7DAF9011C201CB2F72EFAA3692B60201CB0F73CF900236B7130BD17
:FB8E7000F0B581B02F4806682F4805682F480378002B52D12E480368AB4203D12D480368B3424AD02C4C2D4FFE20284007D1002D03D02B480368DB0301D5002E1CD063681B071B0F022B02D0022099F741F825480078606324480078A06367F7BFF901F031FD822141432068642250436430BCF78DF9431C3B6018E063681B0702D0002099F726F800206063A063184A13680093174A1088392109014143181CBCF776F9386014490098BCF771F9134908603868A06107490D6007490E6001B0F0BC08BC1847C04614CD0800B4C4080008C30800B8CA080030AB09000C000F00DC5E0800FC0A080009C308000AC30800C02D0800E80A080020CF01009C000FDB
:018F6B000005
:648FA80030B5041C15490B685D78B1F747F9022C01D0042C16D1281C203082F793F8042C07D10D4800231A1C191C92F72FF8022102E0022C03D10821281CADF7EFFF281CACF76CFF06490B689879012801D1ACF7CEFF30BD98B008000E200000C49C0800C89C0800B4
:F8901800F0B5041C00216EF736FA002803DA01234E4843716FE0061C251C7835687A00280DD1A07B98F74DFC4008236DB833196898F7E9FB002804DC687A002805D0002E03DD201CB2F7A7F855E0E37B012B03D1002801D101236B72A878802101433C4A1160082105206CF78EFD384A5379002B41D1B0F745F8374F381C052101F046FC03233B74201C00F037F8AFF7F6FFEB8A002B0AD1FF201630205C002805D1B0F72FF83B7C082003433B740023AB74FF230533E6180023F375201CB2F772F9264A13780021002B00D101211170F078FF2806D16B7A022B03D1081CF070A3697360012805D8F1708B001C48C0187B7C8370201CAFF797F9F0BDC3
:7091100030B5847C18490B788374051C012200216EF753F8AC742C6DB223195B0239884200DB081C11494143E5208000BCF75EF8FF210531695C884200D3081C32342178490701D5012801D8002800D101200349487430BDA42C0800A4860E00ECCC08006C150800ECB00800741508007102000095
:F894D000F0B50D1C041C002D17D171498B79002B0BD070490B69834207D16F4D2B68DB0603D546310120087063E0C17B807BAFF7A1F8201CB0F7C8FE5BE0FFF70CFF022D57D1664D2B1C5421085B0004271C52373988084358644833221C56329007800F01D1166808E0121AC0001168C1402026301A566886400E431E60A06B002835D157480368DB0716D5A06E4223195C3C300022FDF739FF53490B7898420BD243005149CA5A110406D4800050494058E8602A61802013E0A26ED06BE860161C3C36707900023179084328612B68802083432B60002042321178012900D180202B6803432B606868082108436860A06E806AE864F0BC08BC1847C6
:5493260030B5041C002917D15F498B79002B0BD05E490B69834207D15D4D2B68DB0603D546310120087012E0C17B807BAFF777F9201CB0F7A6F80AE0022908D148308188027E53185A1CA28143885B1A438030BC08BC1847A8
:2096C800034B04480360044B044803607047C046A0AA090050150800CCAA0900641508000A
:2CAAA0009F9504006D9904007F93040000000000279309000000000009920900000000000000000005990400C3930400CF
:2CAACC009F9504006D99040091A2040000000000D194090000000000C995090093A304005D5909008B590900C3930400D0
:FB920800F0B584B0A24F051C002601220092041CB0F721FB4434207B01286DD305D0032809D33FD0042867D145E0E07D002834D006282FD131E0E07D002801D0062829D194480378002B0ED07CF7FCFD0121914A5156884207DA637E002B04D1281C6CF74CFF267648E0237E002B45D0281C00F0A4F8061C637E002B3ED10423237386498B7986490B6000220092381CB0F71CFCB86031E0431E012B2ED8281C00F08DF8061C29E0E07D002801D0062824D16388013B638020E0237E002B17D0E37D042B14D1A0884306D80F01900822744902A801F00CFBBB680198834207D102A9381C062201F0E3FA002800D10126281CB0F7AFFB281CB0F754F8002E0532
:23930300D03206120E6749A088AEF763F80098002803D0281C0121B0F799F904B0F0BC08BC184792
:3296E80010B5041C6CF709FD201C6DF76CF94A23002018536523195D0220ADF7BDFDA36EBC3318780021AEF799FF6C340220207010BD7A
:1497440000B5011C32310B78FB2213400B70AEF7A1F900BD72
:4C976800F0B5061C0F1C104D2C68A07B98F7B1F880084300991C608CA26983185801400998F742F8041C002F0BD0B17B2B68987B6EF777F8002804D1032C01D8002400E0033C201CF0BDC0466C21080066
:2881300010B5041CC37B012B05D1AA480378002B01D101230370201CB2F7B5FD201CFFF7EBFF10BC08BC18475F
:6284700070B5041C0E1C994D2878002802D0013828702878012804D8954A136895490B401360002816D0201C9830C378002B02D18188CA060ED58379002B11D0311C201CB0F735FC2B78012B0AD9311C201CB0F701FC05E0201CB0F7C6F8201CB2F76FFE70BDFB
:48937A0030B54E4A11680B06D90F884218D14C4D2C68ACF7EEFDC1780B02817819430279130419434279130619438C4208D12A1F13681A0C41780B0200781843824201D0002000E0012030BDC8
:FB93C200F0B583B0061C0024271C051C50352B7B002B5DD0012401A8B0F779FB00906B7B002B38D0EB7A012B09D14823985B0006C00FAFF7C2F8002801D1041C48E02E239B5D012B27D101A90098AFF796F92B4A1378984208D2EB7A022B1CD02B78022B19D1FEF704FB16E026480368002B00D041246408640023480378002B0BD00098012808D1029B03208003034001208003834200D102271C480368DB070FD52E20805D0022012800D10122009901A8FEF724FB071C082802D10120044308E0002F06D03A06120E074948363088ADF7A2FF201C03B0F0BDE8B4090068C30800002D0800108B0E0080980E00AC210800642C080008800E00A88B0E008868
:1394BD00980E003215080094AC09006C9C080050AB09004A
:FB95C800F0B582B0041C071CB0F745F958373B79002B50D0FB78012B10D1251C2835AB79012B0BD17B79002B08D1287AFFF7C1FE002803D1201C6CF780FD3CE0FB78012B39D8A56E6846B0F75FFA061C7B79002B10D16946281C3C300622BBF7AFF9291C42310E70281C3C30FDF7A9FF6C34012020702CE0251C2835AB79012B06D16946AFF778F8FF2801D0FEF7EEF916480368DB0710D5A8790022012800D10122311C6846FEF727FA022805D113494823185B0422ADF7ACFEA37C10498878834202D1201CB0F733FF201C0121AFF7DDFF02B0F0BC08BC1847C046AC210800642C080008800E007C8B0E0050AB09001DAB09003CAE0900FCAE090080980EA9
:0596C300007415080011
:04AAF8004205000013
:04AAFC005E040000F4
:04AB000062040000EB
:04AB04004205000006
:04AB08006C040000D9
:04AB0C0062190000CA
:04AB14006C040000CD
:04AB100044050000F8
:04AB180062190000BE
:FB97BC00F0B587B0061C4568059581780A07120F0192C07803908A09009243191A79069200200490C84A13681879002804D1C7490B681B0600D4CAE10198062800D9CCE1C34C2378C3490879834202D3201CADF739FBC0484188002923D00378002B10D06378002B04D0BC4898F724FC002818D000236370A370B74A508850214143B64805E02378B448002B04D15022514398F7C6FB06E098F70EFC002802D0201CADF711FB2078AB490B79984200D392E129231F1C47430297E11C8807800F01D10A6808E0091AC0000B68C3402022101A4A6882401A43029FA14B0199595CB954B818019F032F01D0052F5AD1984A13681B0600D446E100994170039FBB66
:FB98B7001F0372291C09300622BBF760F80635E11C8807800F01D10B6808E0091AC0000A68C2402023181A4B6883401343029FF8180230291C0622BBF749F8019F052F17D10635E11C8807800F01D10B6808E0091AC0000A68C2402023181A4B68834013430299C8180F30039A0C3A291CBBF72EF8E11C8807800F01D10B6808E0091AC0000A68C2402023181A4B68834013430299C8182830F17872688918C978017001200490F0E00198042806D0684A1368F07871684018C078587264490868C379012B18D10099281CADF7B1FD019A042A05D1ADF7CEFD002800D1D5E03CE0FF2803D10099281CADF7F7FDADF7D7FD002800D1C9E030E05B490B78002BF1
:FB99B2002CD0019A042A18D1594F291C381C1030062200F076FF002800D0B7E0B87D03071B0F00998B4200D0B0E08023034000D1ACE04006400EB87510E00922835601200856834200DAA1E0291C49480622BAF7C0FF8023009803434548837501210491E11C8807800F01D10A6808E0091AC0000B68C3402022101A4A6882401A430299881800994170291C02300622BAF7A1FF33480378002B1CD0E11C8807800F01D10B6808E0091AC0000A68C2402023181A4B68834013430299C818F17872688918ADF7A7FE0006000EFF2802D0002104915CE006350398FA300006000E03900198E11C012812D18807800F01D10B6808E0091AC0000A68C24020231852
:F39AAD001A4B68834013430299C8180021017215E08807800F01D10B6808E0091AC0000A68C2402023181A4B68834013430299C818039A0272291C0930BAF74DFFE11C8807800F01D10B681BE0091AC0000A68C2402023181A11E0C04F0800E02C08005DC30800BC9C080093C3080014E3050068C30800B8AF0800C8AF08004B68834013430299C8182830F17872688918C97801700699480601D5002104910198022801D9062806D1301CFCF767FF0499002903D104900498002802D023780133237023780B490879834202D3201CADF782F90699080703D5301CAEF732FA05E00598002802D0059897F7D5FC07B0F0BDC046BC9C080047
:489BA00010B5564C822099F75DFB000600160022A15600290ED0CB10CA1AC310D2187F23DB439A4201DA181C04E07F207F2A01DC10060016010609162170494A1368002B01D14848C17710BD9D
:B49BE80070B5002644480368002B01D184F7BCFE434C4449201C0F300522BAF7BFFE00252819C07B98F782F836180135052DF7D33D48C36A5B011CD53C4803685B0518D400253B4803789E4213D001200A2D00D9022040194100374885F70CFE002805D0291C201C0F3085F717FE013E0135252DE7D3211C0F313048052200F027FE002809D0211C0F312C480522BAF787FE63690120834363616369DB0707D4FFF780FA616901229143104001436161002070BC08BC1847A8
:269C9C0000B575F73BFC00280BD11F480368002B07D114490B681D490868834201D1012000E0002000BD56
:80918800F0B583B0012100910027C0237B431A481C18206BC00729D5251CBC356B78002B24D1261CE38D2C36002B1FD0B379002B02D00021009119E0211C0C310F48052201F074FB002811D00223B371201CB3F714F801A9201CB2F7FCFF01A9A878B2F796F8082201A9A878B3F718F901370F2FCBD3009803B0F0BD28900800004F0800FE
:129CC20000B5B821194800F02CFE00230B4A137000BDCF
:609CD40010B5041C15480368002B0BD0201C002185F7CCFD1821201C85F7C8FD4E21201C85F7C4FD10BDC046F4B40900B4C4080050370800F4460800F44E08005420080020040800A4030800E0340800004F080010CD0800E4C708009034080014CD080007
:FB851800F0B581B0041C061C88360027B780F774FF230533C518EB7D0133EB75C37B012B14D16B78002B1AD1694803689B0716D5A07B99F7C6F980084100A06981420ED099F75AF940008421085108E001236B705A480378A3740123DB07AB61AF705C4800680090830723D5EB7D012B07D17DF761FC011C201CAEF7F8FE01F005FB55484379022B14D1236DBE330068197888420ED17DF74FFC4F4B991D1A7988541879411C0720BCF75AFE4A4B18714A4B1F707DF740FCA874009906220A40062A2FD1A07B99F77EF94008308344496258D00107D4012109061143404AA150201CFFF76CFF236DBE33187885F71BFD201C00F0E9F8E878012804D8394980E0
:63861300000B5C01330B54E37B0099201C002B02D1FFF724FF01E000F097F8201CB0F711F8B77014E0AF758B070AD5B0782E490B78984205D2E37B002B02D00130B07006E0337C002B00D03774201CB2F7A6FD0098830702D5201CFDF7ADFF01B0F0BC08BC18472D
:189D540000B575F79DF9002805D11848437D002B01D176F7DCF900BD26
:189D6C0000B575F791F9002805D11248437D002B01D176F7D0F900BD2C
:269D840070B5051C0E1C0024C02363430C481818036BDB0703D5321C291CB2F775F901340F2CF1D370BDE5
:229DAA0000B5064876F7ACF97CF7F5FA13211620FFF7E3FF00BDE44E0800289008009C4508003E
:04AB20000000000031
:08AB2400FFFFFFFFFFFF00002F
